{"contracts/Conuts.sol":{"CONUTToken":{"abi":[{"inputs":[],"stateMutability":"nonpayable","type":"constructor"},{"anonymous":false,"inputs":[{"indexed":false,"internalType":"address","name":"account","type":"address"}],"name":"AddConfirmer","type":"event"},{"anonymous":false,"inputs":[{"indexed":true,"internalType":"address","name":"owner","type":"address"},{"indexed":true,"internalType":"address","name":"spender","type":"address"},{"indexed":false,"internalType":"uint256","name":"value","type":"uint256"}],"name":"Approval","type":"event"},{"anonymous":false,"inputs":[{"indexed":false,"internalType":"address","name":"account","type":"address"},{"indexed":false,"internalType":"uint256","name":"confirmedTime","type":"uint256"}],"name":"Confirmed","type":"event"},{"anonymous":false,"inputs":[{"indexed":true,"internalType":"address","name":"previousOwner","type":"address"},{"indexed":true,"internalType":"address","name":"newOwner","type":"address"}],"name":"OwnershipTransferred","type":"event"},{"anonymous":false,"inputs":[{"indexed":false,"internalType":"address","name":"account","type":"address"}],"name":"Paused","type":"event"},{"anonymous":false,"inputs":[{"indexed":false,"internalType":"address","name":"account","type":"address"}],"name":"RemoveConfirmer","type":"event"},{"anonymous":false,"inputs":[{"indexed":true,"internalType":"address","name":"account","type":"address"},{"indexed":false,"internalType":"uint256","name":"amount","type":"uint256"},{"indexed":false,"internalType":"uint256","name":"startTime","type":"uint256"},{"indexed":false,"internalType":"uint256","name":"releaseMonths","type":"uint256"}],"name":"TimeLock","type":"event"},{"anonymous":false,"inputs":[{"indexed":true,"internalType":"address","name":"account","type":"address"},{"indexed":false,"internalType":"uint256","name":"valueIndex","type":"uint256"},{"indexed":false,"internalType":"uint256","name":"value","type":"uint256"}],"name":"TimeLockUpdate","type":"event"},{"anonymous":false,"inputs":[{"indexed":true,"internalType":"address","name":"from","type":"address"},{"indexed":true,"internalType":"address","name":"to","type":"address"},{"indexed":false,"internalType":"uint256","name":"value","type":"uint256"}],"name":"Transfer","type":"event"},{"anonymous":false,"inputs":[{"indexed":false,"internalType":"address","name":"account","type":"address"}],"name":"Unpaused","type":"event"},{"inputs":[{"internalType":"uint256","name":"","type":"uint256"}],"name":"_confirmers","outputs":[{"internalType":"address","name":"","type":"address"}],"stateMutability":"view","type":"function"},{"inputs":[{"internalType":"address","name":"walletAddress","type":"address"}],"name":"addConfirmer","outputs":[],"stateMutability":"nonpayable","type":"function"},{"inputs":[{"internalType":"address","name":"owner","type":"address"},{"internalType":"address","name":"spender","type":"address"}],"name":"allowance","outputs":[{"internalType":"uint256","name":"","type":"uint256"}],"stateMutability":"view","type":"function"},{"inputs":[{"internalType":"address","name":"spender","type":"address"},{"internalType":"uint256","name":"amount","type":"uint256"}],"name":"approve","outputs":[{"internalType":"bool","name":"","type":"bool"}],"stateMutability":"nonpayable","type":"function"},{"inputs":[{"internalType":"address","name":"account","type":"address"}],"name":"balanceOf","outputs":[{"internalType":"uint256","name":"","type":"uint256"}],"stateMutability":"view","type":"function"},{"inputs":[{"internalType":"uint256","name":"amount","type":"uint256"}],"name":"burn","outputs":[],"stateMutability":"nonpayable","type":"function"},{"inputs":[{"internalType":"address","name":"account","type":"address"},{"internalType":"uint256","name":"amount","type":"uint256"}],"name":"burnFrom","outputs":[],"stateMutability":"nonpayable","type":"function"},{"inputs":[],"name":"decimals","outputs":[{"internalType":"uint8","name":"","type":"uint8"}],"stateMutability":"view","type":"function"},{"inputs":[{"internalType":"address","name":"spender","type":"address"},{"internalType":"uint256","name":"subtractedValue","type":"uint256"}],"name":"decreaseAllowance","outputs":[{"internalType":"bool","name":"","type":"bool"}],"stateMutability":"nonpayable","type":"function"},{"inputs":[{"internalType":"address","name":"walletAddress","type":"address"}],"name":"getConfirmed","outputs":[{"internalType":"bool","name":"","type":"bool"},{"internalType":"uint256","name":"","type":"uint256"}],"stateMutability":"view","type":"function"},{"inputs":[],"name":"getConfirmer","outputs":[{"internalType":"address[]","name":"","type":"address[]"}],"stateMutability":"view","type":"function"},{"inputs":[{"internalType":"address","name":"walletAddress","type":"address"}],"name":"getLockInfo","outputs":[{"internalType":"uint256","name":"lockAmount","type":"uint256"},{"internalType":"uint256","name":"startTime","type":"uint256"},{"internalType":"uint256","name":"releaseMonths","type":"uint256"},{"internalType":"uint256","name":"released","type":"uint256"}],"stateMutability":"view","type":"function"},{"inputs":[],"name":"getLockWallets","outputs":[{"internalType":"address[]","name":"","type":"address[]"}],"stateMutability":"view","type":"function"},{"inputs":[{"internalType":"address","name":"spender","type":"address"},{"internalType":"uint256","name":"addedValue","type":"uint256"}],"name":"increaseAllowance","outputs":[{"internalType":"bool","name":"","type":"bool"}],"stateMutability":"nonpayable","type":"function"},{"inputs":[],"name":"name","outputs":[{"internalType":"string","name":"","type":"string"}],"stateMutability":"view","type":"function"},{"inputs":[],"name":"owner","outputs":[{"internalType":"address","name":"","type":"address"}],"stateMutability":"view","type":"function"},{"inputs":[],"name":"pause","outputs":[],"stateMutability":"nonpayable","type":"function"},{"inputs":[],"name":"paused","outputs":[{"internalType":"bool","name":"","type":"bool"}],"stateMutability":"view","type":"function"},{"inputs":[{"internalType":"address","name":"walletAddress","type":"address"}],"name":"removeConfirmer","outputs":[],"stateMutability":"nonpayable","type":"function"},{"inputs":[],"name":"renounceOwnership","outputs":[],"stateMutability":"nonpayable","type":"function"},{"inputs":[{"internalType":"address","name":"walletAddress","type":"address"},{"internalType":"uint256","name":"startTime","type":"uint256"},{"internalType":"uint256","name":"releaseMonths","type":"uint256"},{"internalType":"uint256","name":"amount","type":"uint256"}],"name":"setLock","outputs":[],"stateMutability":"nonpayable","type":"function"},{"inputs":[{"internalType":"address","name":"walletAddress","type":"address"},{"internalType":"uint256","name":"amount","type":"uint256"}],"name":"setLockAmount","outputs":[],"stateMutability":"nonpayable","type":"function"},{"inputs":[{"internalType":"address","name":"walletAddress","type":"address"},{"internalType":"uint256","name":"releaseMonths","type":"uint256"}],"name":"setLockReleaseMonths","outputs":[],"stateMutability":"nonpayable","type":"function"},{"inputs":[{"internalType":"address","name":"walletAddress","type":"address"},{"internalType":"uint256","name":"startTime","type":"uint256"}],"name":"setLockStartTime","outputs":[],"stateMutability":"nonpayable","type":"function"},{"inputs":[],"name":"symbol","outputs":[{"internalType":"string","name":"","type":"string"}],"stateMutability":"view","type":"function"},{"inputs":[],"name":"toConfirm","outputs":[],"stateMutability":"nonpayable","type":"function"},{"inputs":[],"name":"totalSupply","outputs":[{"internalType":"uint256","name":"","type":"uint256"}],"stateMutability":"view","type":"function"},{"inputs":[{"internalType":"address","name":"to","type":"address"},{"internalType":"uint256","name":"amount","type":"uint256"}],"name":"transfer","outputs":[{"internalType":"bool","name":"","type":"bool"}],"stateMutability":"nonpayable","type":"function"},{"inputs":[{"internalType":"address","name":"from","type":"address"},{"internalType":"address","name":"to","type":"address"},{"internalType":"uint256","name":"amount","type":"uint256"}],"name":"transferFrom","outputs":[{"internalType":"bool","name":"","type":"bool"}],"stateMutability":"nonpayable","type":"function"},{"inputs":[{"internalType":"address","name":"newOwner","type":"address"}],"name":"transferOwnership","outputs":[],"stateMutability":"nonpayable","type":"function"},{"inputs":[],"name":"unpause","outputs":[],"stateMutability":"nonpayable","type":"function"}],"evm":{"bytecode":{"linkReferences":{},"object":"60806040523480156200001157600080fd5b5060408051808201825260058082526410d3d3955560da1b60208084018281528551808701909652928552840152815191929162000052916003916200062f565b508051620000689060049060208401906200062f565b50506005805460ff19169055506200008033620000fb565b620000a933620000936012600a6200075c565b620000a3906305f5e10062000828565b62000155565b600780546001810182556000919091527fa66cc928b5edb82af9bd49922954155ab7b0942694bea4ce44661d9a8736c6880180546001600160a01b03191633179055620000f56200024c565b620008f0565b600580546001600160a01b03838116610100818102610100600160a81b031985161790945560405193909204169182907f8be0079c531659141344cd1fd0a4f28419497f9722a3daafe3b4186f6b6457e090600090a35050565b6001600160a01b038216620001b15760405162461bcd60e51b815260206004820152601f60248201527f45524332303a206d696e7420746f20746865207a65726f20616464726573730060448201526064015b60405180910390fd5b620001bf60008383620003ad565b8060026000828254620001d39190620006d5565b90915550506001600160a01b0382166000908152602081905260408120805483929062000202908490620006d5565b90915550506040518181526001600160a01b038316906000907fddf252ad1be2c89b69c2b068fc378daa952ba7f163c4a11628f55a4df523b3ef9060200160405180910390a35050565b62000257336200042f565b806200028b57506200027660055461010090046001600160a01b031690565b6001600160a01b0316336001600160a01b0316145b620002e75760405162461bcd60e51b815260206004820152602560248201527f43616c6c6572206973206e6f7420746865206f776e6572206f7220636f6e66696044820152643936b2b91760d91b6064820152608401620001a8565b60005b60075460ff82161015620003aa5760006006600060078460ff1681548110620003175762000317620008da565b6000918252602080832091909101546001600160a01b031683528201929092526040018120805460ff191692151592909217909155600780544292600692909160ff86169081106200036d576200036d620008da565b60009182526020808320909101546001600160a01b0316835282019290925260400190206001015580620003a181620008a1565b915050620002ea565b50565b620003b7620004a7565b620003c38382620004f1565b15620004125760405162461bcd60e51b815260206004820152601660248201527f45524332303a204c6f636b65642062616c616e63652e000000000000000000006044820152606401620001a8565b6200042a8383836200042a60201b620013621760201c565b505050565b6000805b60075460ff821610156200049e57826001600160a01b031660078260ff1681548110620004645762000464620008da565b6000918252602090912001546001600160a01b03161415620004895750600192915050565b806200049581620008a1565b91505062000433565b50600092915050565b60055460ff1615620004ef5760405162461bcd60e51b815260206004820152601060248201526f14185d5cd8589b194e881c185d5cd95960821b6044820152606401620001a8565b565b6001600160a01b038216600090815260086020526040812054156200049e5760006200051e844262000579565b6001600160a01b0385166000908152600860205260409020549091508390620005499083906200084a565b6001600160a01b0386166000908152602081905260409020546200056e91906200084a565b109150505b92915050565b6001600160a01b03821660009081526008602052604081208054600182015460029092015490919081851015620005b7576000935050505062000573565b6000620005c583876200084a565b90506000620005d862278d0083620006f0565b9050808311620005f057849550505050505062000573565b6001811015620006095760009550505050505062000573565b8262000616828762000828565b620006229190620006f0565b9550505050505062000573565b8280546200063d9062000864565b90600052602060002090601f016020900481019282620006615760008555620006ac565b82601f106200067c57805160ff1916838001178555620006ac565b82800160010185558215620006ac579182015b82811115620006ac5782518255916020019190600101906200068f565b50620006ba929150620006be565b5090565b5b80821115620006ba5760008155600101620006bf565b60008219821115620006eb57620006eb620008c4565b500190565b6000826200070e57634e487b7160e01b600052601260045260246000fd5b500490565b600181815b8085111562000754578160001904821115620007385762000738620008c4565b808516156200074657918102915b93841c939080029062000718565b509250929050565b60006200076d60ff84168362000774565b9392505050565b600082620007855750600162000573565b81620007945750600062000573565b8160018114620007ad5760028114620007b857620007d8565b600191505062000573565b60ff841115620007cc57620007cc620008c4565b50506001821b62000573565b5060208310610133831016604e8410600b8410161715620007fd575081810a62000573565b62000809838362000713565b8060001904821115620008205762000820620008c4565b029392505050565b6000816000190483118215151615620008455762000845620008c4565b500290565b6000828210156200085f576200085f620008c4565b500390565b600181811c908216806200087957607f821691505b602082108114156200089b57634e487b7160e01b600052602260045260246000fd5b50919050565b600060ff821660ff811415620008bb57620008bb620008c4565b60010192915050565b634e487b7160e01b600052601160045260246000fd5b634e487b7160e01b600052603260045260246000fd5b61225880620009006000396000f3fe608060405234801561001057600080fd5b50600436106101e55760003560e01c8063715018a61161010f5780638da5cb5b116100a2578063a9059cbb11610071578063a9059cbb14610423578063dd62ed3e14610436578063ef9f357414610449578063f2fde38b1461045c57600080fd5b80638da5cb5b146103ea57806392e27a081461040057806395d89b4114610408578063a457c2d71461041057600080fd5b806376b57027116100de57806376b57027146103a757806379cc6790146103ba57806383df4f37146103cd5780638456cb59146103e257600080fd5b8063715018a61461032e5780637238ccdb1461033657806374db76621461036957806375d966e91461039457600080fd5b806339509351116101875780635c383ea0116101565780635c383ea0146102df5780635c975abb146102f25780636884461a146102fd57806370a082311461030557600080fd5b806339509351146102875780633c97a9c51461029a5780633f4ba83a146102c457806342966c68146102cc57600080fd5b806323b872dd116101c357806323b872dd1461023d57806324a7039d14610250578063313ce567146102655780633873d4751461027457600080fd5b806306fdde03146101ea578063095ea7b31461020857806318160ddd1461022b575b600080fd5b6101f261046f565b6040516101ff9190611fbd565b60405180910390f35b61021b610216366004611ef4565b610501565b60405190151581526020016101ff565b6002545b6040519081526020016101ff565b61021b61024b366004611eb8565b61051b565b61026361025e366004611f1e565b61053f565b005b604051601281526020016101ff565b610263610282366004611ef4565b610759565b61021b610295366004611ef4565b61086d565b6102ad6102a8366004611e63565b61088f565b6040805192151583526020830191909152016101ff565b6102636108c3565b6102636102da366004611f57565b610901565b6102636102ed366004611ef4565b61090e565b60055460ff1661021b565b6102636109e5565b61022f610313366004611e63565b6001600160a01b031660009081526020819052604090205490565b610263610a88565b610349610344366004611e63565b610abc565b6040805194855260208501939093529183015260608201526080016101ff565b61037c610377366004611f57565b610bbc565b6040516001600160a01b0390911681526020016101ff565b6102636103a2366004611e63565b610be6565b6102636103b5366004611ef4565b610e9a565b6102636103c8366004611ef4565b610fb7565b6103d5610fcc565b6040516101ff9190611f70565b610263611035565b60055461010090046001600160a01b031661037c565b6103d5611069565b6101f26110d1565b61021b61041e366004611ef4565b6110e0565b61021b610431366004611ef4565b61115b565b61022f610444366004611e85565b611169565b610263610457366004611e63565b611194565b61026361046a366004611e63565b6112a2565b60606003805461047e90612185565b80601f01602080910402602001604051908101604052809291908181526020018280546104aa90612185565b80156104f75780601f106104cc576101008083540402835291602001916104f7565b820191906000526020600020905b8154815290600101906020018083116104da57829003601f168201915b5050505050905090565b60003361050f818585611367565b60019150505b92915050565b60003361052985828561148b565b610534858585611505565b506001949350505050565b6105476116de565b6001600160a01b0384166000908152600860205260409020546001116105b45760405162461bcd60e51b815260206004820152601760248201527f416c65616479206578697374206c6f636b20696e666f2e00000000000000000060448201526064015b60405180910390fd5b82421061061b5760405162461bcd60e51b815260206004820152602f60248201527f45524332303a2043757272656e742074696d652069732067726561746572207460448201526e3430b71039ba30b93a103a34b6b29760891b60648201526084016105ab565b6000821161063b5760405162461bcd60e51b81526004016105ab90612082565b6000811161068b5760405162461bcd60e51b815260206004820181905260248201527f45524332303a20416d6f756e742069732067726561746572207468616e20302e60448201526064016105ab565b604080516060808201835283825260208083018781528385018781526001600160a01b038a1660008181526008855287812096518755925160018088019190915591516002909601959095556009805491820181559091527f6e1540171b6c0c960b71a7020d9f60077f6af931a8bbf590da0223dacf75c7af0180546001600160a01b03191684179055835185815290810187905292830185905290917f1e79ce210cfb5d5b665fdab9417fddaf7112bcbbdb74138529c203c1173ea54f910160405180910390a250505050565b6107616116de565b61076961173e565b6107855760405162461bcd60e51b81526004016105ab90612012565b6001600160a01b0382166000908152600860205260409020546107ba5760405162461bcd60e51b81526004016105ab90612054565b6000811161080a5760405162461bcd60e51b815260206004820181905260248201527f45524332303a20416d6f756e742069732067726561746572207468616e20302e60448201526064016105ab565b6001600160a01b0382166000818152600860209081526040918290208490558151600181529081018490527f546881d7b11e2e451d337a9f8c5902323a467b3b333b598942f963b9e67c7d4e91015b60405180910390a2610869611825565b5050565b60003361050f8185856108808383611169565b61088a9190612115565b611367565b60008061089a6116de565b50506001600160a01b03166000908152600660205260409020805460019091015460ff90911691565b6108cb6116de565b6108d361173e565b6108ef5760405162461bcd60e51b81526004016105ab90612012565b6108f761196d565b6108ff611825565b565b61090b33826119bf565b50565b6109166116de565b61091e61173e565b61093a5760405162461bcd60e51b81526004016105ab90612012565b6001600160a01b03821660009081526008602052604090205461096f5760405162461bcd60e51b81526004016105ab90612054565b6000811161098f5760405162461bcd60e51b81526004016105ab90612082565b6001600160a01b0382166000818152600860209081526040918290206002018490558151600381529081018490527f546881d7b11e2e451d337a9f8c5902323a467b3b333b598942f963b9e67c7d4e9101610859565b336109ef81611b19565b610a0b5760405162461bcd60e51b81526004016105ab906120c9565b336000908152600660205260409020805460ff19166001179055610a324262015180612115565b3360008181526006602090815260409182902060010193909355805191825242928201929092527fab825bb15a80ddd6248dab50c44299ab366e0658b16d6c37ceda8018f5b1adde91015b60405180910390a150565b610a906116de565b610a9861173e565b610ab45760405162461bcd60e51b81526004016105ab90612012565b6108f7611b89565b6000808080336001600160a01b0386161480610af9575060055461010090046001600160a01b03166001600160a01b0316336001600160a01b0316145b610b455760405162461bcd60e51b815260206004820152601860248201527f43616c6c6572206973206e6f7420746865206f776e65722e000000000000000060448201526064016105ab565b6001600160a01b038516600090815260086020526040902054610b7a5760405162461bcd60e51b81526004016105ab90612054565b6000610b868642611b9b565b6001600160a01b039690961660009081526008602052604090208054600182015460029092015490989197909650945092505050565b60078181548110610bcc57600080fd5b6000918252602090912001546001600160a01b0316905081565b610bee6116de565b610bf661173e565b610c125760405162461bcd60e51b81526004016105ab90612012565b80610c1c81611b19565b610c385760405162461bcd60e51b81526004016105ab906120c9565b600754600310610c8a5760405162461bcd60e51b815260206004820152601e60248201527f4d757374206265206174206c65617374203320636f6e6669726d6572732e000060448201526064016105ab565b6000805b60075460ff82161015610e1d57836001600160a01b031660078260ff1681548110610cbb57610cbb61220c565b6000918252602090912001546001600160a01b031614610d555760078160ff1681548110610ceb57610ceb61220c565b600091825260209091200154600780546001600160a01b039092169160ff8516908110610d1a57610d1a61220c565b600091825260209091200180546001600160a01b0319166001600160a01b039290921691909117905581610d4d816121c0565b925050610e0b565b836001600160a01b031660078260ff1681548110610d7557610d7561220c565b6000918252602090912001546001600160a01b03161415610e0b5760078160ff1681548110610da657610da661220c565b6000918252602082200180546001600160a01b031916905560078054600692919060ff8516908110610dda57610dda61220c565b60009182526020808320909101546001600160a01b031683528201929092526040018120805460ff19168155600101555b80610e15816121c0565b915050610c8e565b506007805480610e2f57610e2f6121f6565b600082815260209020810160001990810180546001600160a01b0319169055019055610e59611825565b6040516001600160a01b03841681527f996ac2d2d3bae289f37a56cbfa088fb659e7f5b37433a0f06d8e005844d73eb69060200160405180910390a1505050565b610ea26116de565b610eaa61173e565b610ec65760405162461bcd60e51b81526004016105ab90612012565b6001600160a01b038216600090815260086020526040902054610efb5760405162461bcd60e51b81526004016105ab90612054565b804210610f615760405162461bcd60e51b815260206004820152602e60248201527f45524332303a2043757272656e742074696d652069732067726561746572207460448201526d68616e2073746172742074696d6560901b60648201526084016105ab565b6001600160a01b0382166000818152600860209081526040918290206001018490558151600281529081018490527f546881d7b11e2e451d337a9f8c5902323a467b3b333b598942f963b9e67c7d4e9101610859565b610fc282338361148b565b61086982826119bf565b6060610fd66116de565b60098054806020026020016040519081016040528092919081815260200182805480156104f757602002820191906000526020600020905b81546001600160a01b0316815260019091019060200180831161100e575050505050905090565b61103d6116de565b61104561173e565b6110615760405162461bcd60e51b81526004016105ab90612012565b6108f7611c42565b60606110736116de565b60078054806020026020016040519081016040528092919081815260200182805480156104f7576020028201919060005260206000209081546001600160a01b0316815260019091019060200180831161100e575050505050905090565b60606004805461047e90612185565b600033816110ee8286611169565b90508381101561114e5760405162461bcd60e51b815260206004820152602560248201527f45524332303a2064656372656173656420616c6c6f77616e63652062656c6f77604482015264207a65726f60d81b60648201526084016105ab565b6105348286868403611367565b60003361050f818585611505565b6001600160a01b03918216600090815260016020908152604080832093909416825291909152205490565b61119c6116de565b6111a461173e565b6111c05760405162461bcd60e51b81526004016105ab90612012565b6111c981611b19565b156112165760405162461bcd60e51b815260206004820152601760248201527f416c6561647920657869737420636f6e6669726d65722e00000000000000000060448201526064016105ab565b600780546001810182556000919091527fa66cc928b5edb82af9bd49922954155ab7b0942694bea4ce44661d9a8736c6880180546001600160a01b0319166001600160a01b038316179055611269611825565b6040516001600160a01b03821681527f36cdd242bdd95cb0e707df56299f9f974765eefb508f6e9165d196e29bd7337490602001610a7d565b336112ac81611b19565b6112c85760405162461bcd60e51b81526004016105ab906120c9565b6112d061173e565b6112ec5760405162461bcd60e51b81526004016105ab90612012565b6001600160a01b0382166113515760405162461bcd60e51b815260206004820152602660248201527f4f776e61626c653a206e6577206f776e657220697320746865207a65726f206160448201526564647265737360d01b60648201526084016105ab565b61135a82611c7f565b610869611825565b505050565b6001600160a01b0383166113c95760405162461bcd60e51b8152602060048201526024808201527f45524332303a20617070726f76652066726f6d20746865207a65726f206164646044820152637265737360e01b60648201526084016105ab565b6001600160a01b03821661142a5760405162461bcd60e51b815260206004820152602260248201527f45524332303a20617070726f766520746f20746865207a65726f206164647265604482015261737360f01b60648201526084016105ab565b6001600160a01b0383811660008181526001602090815260408083209487168084529482529182902085905590518481527f8c5be1e5ebec7d5bd14f71427d1e84f3dd0314c0f7b2291e5b200ac8c7c3b925910160405180910390a3505050565b60006114978484611169565b905060001981146114ff57818110156114f25760405162461bcd60e51b815260206004820152601d60248201527f45524332303a20696e73756666696369656e7420616c6c6f77616e636500000060448201526064016105ab565b6114ff8484848403611367565b50505050565b6001600160a01b0383166115695760405162461bcd60e51b815260206004820152602560248201527f45524332303a207472616e736665722066726f6d20746865207a65726f206164604482015264647265737360d81b60648201526084016105ab565b6001600160a01b0382166115cb5760405162461bcd60e51b815260206004820152602360248201527f45524332303a207472616e7366657220746f20746865207a65726f206164647260448201526265737360e81b60648201526084016105ab565b6115d6838383611cd9565b6001600160a01b0383166000908152602081905260409020548181101561164e5760405162461bcd60e51b815260206004820152602660248201527f45524332303a207472616e7366657220616d6f756e7420657863656564732062604482015265616c616e636560d01b60648201526084016105ab565b6001600160a01b03808516600090815260208190526040808220858503905591851681529081208054849290611685908490612115565b92505081905550826001600160a01b0316846001600160a01b03167fddf252ad1be2c89b69c2b068fc378daa952ba7f163c4a11628f55a4df523b3ef846040516116d191815260200190565b60405180910390a36114ff565b6005546001600160a01b036101009091041633146108ff5760405162461bcd60e51b815260206004820181905260248201527f4f776e61626c653a2063616c6c6572206973206e6f7420746865206f776e657260448201526064016105ab565b600080805b60075460ff82161015611808576006600060078360ff168154811061176a5761176a61220c565b60009182526020808320909101546001600160a01b0316835282019290925260400190205460ff16151560011480156117e35750426006600060078460ff16815481106117b9576117b961220c565b60009182526020808320909101546001600160a01b03168352820192909252604001902060010154115b156117f657816117f2816121c0565b9250505b80611800816121c0565b915050611743565b5060018160ff16111561181d57600191505090565b600091505090565b61182e33611b19565b8061185a575060055461010090046001600160a01b03166001600160a01b0316336001600160a01b0316145b6118b45760405162461bcd60e51b815260206004820152602560248201527f43616c6c6572206973206e6f7420746865206f776e6572206f7220636f6e66696044820152643936b2b91760d91b60648201526084016105ab565b60005b60075460ff8216101561090b5760006006600060078460ff16815481106118e0576118e061220c565b6000918252602080832091909101546001600160a01b031683528201929092526040018120805460ff191692151592909217909155600780544292600692909160ff86169081106119335761193361220c565b60009182526020808320909101546001600160a01b0316835282019290925260400190206001015580611965816121c0565b9150506118b7565b611975611d31565b6005805460ff191690557f5db9ee0a495bf2e6ff9c91a7834c1ba4fdd244a5e8aa4e537bd38aeae4b073aa335b6040516001600160a01b03909116815260200160405180910390a1565b6001600160a01b038216611a1f5760405162461bcd60e51b815260206004820152602160248201527f45524332303a206275726e2066726f6d20746865207a65726f206164647265736044820152607360f81b60648201526084016105ab565b611a2b82600083611cd9565b6001600160a01b03821660009081526020819052604090205481811015611a9f5760405162461bcd60e51b815260206004820152602260248201527f45524332303a206275726e20616d6f756e7420657863656564732062616c616e604482015261636560f01b60648201526084016105ab565b6001600160a01b0383166000908152602081905260408120838303905560028054849290611ace90849061216e565b90915550506040518281526000906001600160a01b038516907fddf252ad1be2c89b69c2b068fc378daa952ba7f163c4a11628f55a4df523b3ef9060200160405180910390a3505050565b6000805b60075460ff82161015611b8057826001600160a01b031660078260ff1681548110611b4a57611b4a61220c565b6000918252602090912001546001600160a01b03161415611b6e5750600192915050565b80611b78816121c0565b915050611b1d565b50600092915050565b611b916116de565b6108ff6000611c7f565b6001600160a01b03821660009081526008602052604081208054600182015460029092015490919081851015611bd75760009350505050610515565b6000611be3838761216e565b90506000611bf462278d008361212d565b9050808311611c0a578495505050505050610515565b6001811015611c2157600095505050505050610515565b82611c2c828761214f565b611c36919061212d565b95505050505050610515565b611c4a611d7a565b6005805460ff191660011790557f62e78cea01bee320cd4e420270b5ea74000d11b0c9f74754ebdbfc544b05a2586119a23390565b600580546001600160a01b03838116610100818102610100600160a81b031985161790945560405193909204169182907f8be0079c531659141344cd1fd0a4f28419497f9722a3daafe3b4186f6b6457e090600090a35050565b611ce1611d7a565b611ceb8382611dc0565b156113625760405162461bcd60e51b815260206004820152601660248201527522a92199181d102637b1b5b2b2103130b630b731b29760511b60448201526064016105ab565b60055460ff166108ff5760405162461bcd60e51b815260206004820152601460248201527314185d5cd8589b194e881b9bdd081c185d5cd95960621b60448201526064016105ab565b60055460ff16156108ff5760405162461bcd60e51b815260206004820152601060248201526f14185d5cd8589b194e881c185d5cd95960821b60448201526064016105ab565b6001600160a01b03821660009081526008602052604081205415611e3f576000611dea8442611b9b565b6001600160a01b0385166000908152600860205260409020549091508390611e1390839061216e565b6001600160a01b038616600090815260208190526040902054611e36919061216e565b10915050610515565b506000610515565b80356001600160a01b0381168114611e5e57600080fd5b919050565b600060208284031215611e7557600080fd5b611e7e82611e47565b9392505050565b60008060408385031215611e9857600080fd5b611ea183611e47565b9150611eaf60208401611e47565b90509250929050565b600080600060608486031215611ecd57600080fd5b611ed684611e47565b9250611ee460208501611e47565b9150604084013590509250925092565b60008060408385031215611f0757600080fd5b611f1083611e47565b946020939093013593505050565b60008060008060808587031215611f3457600080fd5b611f3d85611e47565b966020860135965060408601359560600135945092505050565b600060208284031215611f6957600080fd5b5035919050565b6020808252825182820181905260009190848201906040850190845b81811015611fb15783516001600160a01b031683529284019291840191600101611f8c565b50909695505050505050565b600060208083528351808285015260005b81811015611fea57858101830151858201604001528201611fce565b81811115611ffc576000604083870101525b50601f01601f1916929092016040019392505050565b60208082526022908201527f496e73756666696369656e7420657865637574696f6e20636f6e646974696f6e604082015261399760f11b606082015260800190565b6020808252601490820152732737ba1032bc34b9ba103637b1b59034b733379760611b604082015260600190565b60208082526027908201527f45524332303a2052656c656173654d6f6e7468732069732067726561746572206040820152663a3430b710181760c91b606082015260800190565b6020808252602c908201527f546869732061646472657373206f722063616c6c6572206973206e6f7420746860408201526b329031b7b73334b936b2b91760a11b606082015260800190565b60008219821115612128576121286121e0565b500190565b60008261214a57634e487b7160e01b600052601260045260246000fd5b500490565b6000816000190483118215151615612169576121696121e0565b500290565b600082821015612180576121806121e0565b500390565b600181811c9082168061219957607f821691505b602082108114156121ba57634e487b7160e01b600052602260045260246000fd5b50919050565b600060ff821660ff8114156121d7576121d76121e0565b60010192915050565b634e487b7160e01b600052601160045260246000fd5b634e487b7160e01b600052603160045260246000fd5b634e487b7160e01b600052603260045260246000fdfea264697066735822122086787ec20083de951d4091e7da8c47afeb558610794be4afdcc0b5039f53cab664736f6c63430008070033","opcodes":"PUSH1 0x80 PUSH1 0x40 MSTORE CALLVALUE DUP1 ISZERO PUSH3 0x11 JUMPI PUSH1 0x0 DUP1 REVERT JUMPDEST POP PUSH1 0x40 DUP1 MLOAD DUP1 DUP3 ADD DUP3 MSTORE PUSH1 0x5 DUP1 DUP3 MSTORE PUSH5 0x10D3D39555 PUSH1 0xDA SHL PUSH1 0x20 DUP1 DUP5 ADD DUP3 DUP2 MSTORE DUP6 MLOAD DUP1 DUP8 ADD SWAP1 SWAP7 MSTORE SWAP3 DUP6 MSTORE DUP5 ADD MSTORE DUP2 MLOAD SWAP2 SWAP3 SWAP2 PUSH3 0x52 SWAP2 PUSH1 0x3 SWAP2 PUSH3 0x62F JUMP JUMPDEST POP DUP1 MLOAD PUSH3 0x68 SWAP1 PUSH1 0x4 SWAP1 PUSH1 0x20 DUP5 ADD SWAP1 PUSH3 0x62F JUMP JUMPDEST POP POP PUSH1 0x5 DUP1 SLOAD PUSH1 0xFF NOT AND SWAP1 SSTORE POP PUSH3 0x80 CALLER PUSH3 0xFB JUMP JUMPDEST PUSH3 0xA9 CALLER PUSH3 0x93 PUSH1 0x12 PUSH1 0xA PUSH3 0x75C JUMP JUMPDEST PUSH3 0xA3 SWAP1 PUSH4 0x5F5E100 PUSH3 0x828 JUMP JUMPDEST PUSH3 0x155 JUMP JUMPDEST PUSH1 0x7 DUP1 SLOAD PUSH1 0x1 DUP2 ADD DUP3 SSTORE PUSH1 0x0 SWAP2 SWAP1 SWAP2 MSTORE PUSH32 0xA66CC928B5EDB82AF9BD49922954155AB7B0942694BEA4CE44661D9A8736C688 ADD DUP1 SLOAD PUSH1 0x1 PUSH1 0x1 PUSH1 0xA0 SHL SUB NOT AND CALLER OR SWAP1 SSTORE PUSH3 0xF5 PUSH3 0x24C JUMP JUMPDEST PUSH3 0x8F0 JUMP JUMPDEST PUSH1 0x5 DUP1 SLOAD PUSH1 0x1 PUSH1 0x1 PUSH1 0xA0 SHL SUB DUP4 DUP2 AND PUSH2 0x100 DUP2 DUP2 MUL PUSH2 0x100 PUSH1 0x1 PUSH1 0xA8 SHL SUB NOT DUP6 AND OR SWAP1 SWAP5 SSTORE PUSH1 0x40 MLOAD SWAP4 SWAP1 SWAP3 DIV AND SWAP2 DUP3 SWAP1 PUSH32 0x8BE0079C531659141344CD1FD0A4F28419497F9722A3DAAFE3B4186F6B6457E0 SWAP1 PUSH1 0x0 SWAP1 LOG3 POP POP JUMP JUMPDEST PUSH1 0x1 PUSH1 0x1 PUSH1 0xA0 SHL SUB DUP3 AND PUSH3 0x1B1 JUMPI PUSH1 0x40 MLOAD PUSH3 0x461BCD PUSH1 0xE5 SHL DUP2 MSTORE PUSH1 0x20 PUSH1 0x4 DUP3 ADD MSTORE PUSH1 0x1F PUSH1 0x24 DUP3 ADD MSTORE PUSH32 0x45524332303A206D696E7420746F20746865207A65726F206164647265737300 PUSH1 0x44 DUP3 ADD MSTORE PUSH1 0x64 ADD JUMPDEST PUSH1 0x40 MLOAD DUP1 SWAP2 SUB SWAP1 REVERT JUMPDEST PUSH3 0x1BF PUSH1 0x0 DUP4 DUP4 PUSH3 0x3AD JUMP JUMPDEST DUP1 PUSH1 0x2 PUSH1 0x0 DUP3 DUP3 SLOAD PUSH3 0x1D3 SWAP2 SWAP1 PUSH3 0x6D5 JUMP JUMPDEST SWAP1 SWAP2 SSTORE POP POP PUSH1 0x1 PUSH1 0x1 PUSH1 0xA0 SHL SUB DUP3 AND PUSH1 0x0 SWAP1 DUP2 MSTORE PUSH1 0x20 DUP2 SWAP1 MSTORE PUSH1 0x40 DUP2 KECCAK256 DUP1 SLOAD DUP4 SWAP3 SWAP1 PUSH3 0x202 SWAP1 DUP5 SWAP1 PUSH3 0x6D5 JUMP JUMPDEST SWAP1 SWAP2 SSTORE POP POP PUSH1 0x40 MLOAD DUP2 DUP2 MSTORE PUSH1 0x1 PUSH1 0x1 PUSH1 0xA0 SHL SUB DUP4 AND SWAP1 PUSH1 0x0 SWAP1 PUSH32 0xDDF252AD1BE2C89B69C2B068FC378DAA952BA7F163C4A11628F55A4DF523B3EF SWAP1 PUSH1 0x20 ADD PUSH1 0x40 MLOAD DUP1 SWAP2 SUB SWAP1 LOG3 POP POP JUMP JUMPDEST PUSH3 0x257 CALLER PUSH3 0x42F JUMP JUMPDEST DUP1 PUSH3 0x28B JUMPI POP PUSH3 0x276 PUSH1 0x5 SLOAD PUSH2 0x100 SWAP1 DIV PUSH1 0x1 PUSH1 0x1 PUSH1 0xA0 SHL SUB AND SWAP1 JUMP JUMPDEST PUSH1 0x1 PUSH1 0x1 PUSH1 0xA0 SHL SUB AND CALLER PUSH1 0x1 PUSH1 0x1 PUSH1 0xA0 SHL SUB AND EQ JUMPDEST PUSH3 0x2E7 JUMPI PUSH1 0x40 MLOAD PUSH3 0x461BCD PUSH1 0xE5 SHL DUP2 MSTORE PUSH1 0x20 PUSH1 0x4 DUP3 ADD MSTORE PUSH1 0x25 PUSH1 0x24 DUP3 ADD MSTORE PUSH32 0x43616C6C6572206973206E6F7420746865206F776E6572206F7220636F6E6669 PUSH1 0x44 DUP3 ADD MSTORE PUSH5 0x3936B2B917 PUSH1 0xD9 SHL PUSH1 0x64 DUP3 ADD MSTORE PUSH1 0x84 ADD PUSH3 0x1A8 JUMP JUMPDEST PUSH1 0x0 JUMPDEST PUSH1 0x7 SLOAD PUSH1 0xFF DUP3 AND LT ISZERO PUSH3 0x3AA JUMPI PUSH1 0x0 PUSH1 0x6 PUSH1 0x0 PUSH1 0x7 DUP5 PUSH1 0xFF AND DUP2 SLOAD DUP2 LT PUSH3 0x317 JUMPI PUSH3 0x317 PUSH3 0x8DA JUMP JUMPDEST PUSH1 0x0 SWAP2 DUP3 MSTORE PUSH1 0x20 DUP1 DUP4 KECCAK256 SWAP2 SWAP1 SWAP2 ADD SLOAD PUSH1 0x1 PUSH1 0x1 PUSH1 0xA0 SHL SUB AND DUP4 MSTORE DUP3 ADD SWAP3 SWAP1 SWAP3 MSTORE PUSH1 0x40 ADD DUP2 KECCAK256 DUP1 SLOAD PUSH1 0xFF NOT AND SWAP3 ISZERO ISZERO SWAP3 SWAP1 SWAP3 OR SWAP1 SWAP2 SSTORE PUSH1 0x7 DUP1 SLOAD TIMESTAMP SWAP3 PUSH1 0x6 SWAP3 SWAP1 SWAP2 PUSH1 0xFF DUP7 AND SWAP1 DUP2 LT PUSH3 0x36D JUMPI PUSH3 0x36D PUSH3 0x8DA JUMP JUMPDEST PUSH1 0x0 SWAP2 DUP3 MSTORE PUSH1 0x20 DUP1 DUP4 KECCAK256 SWAP1 SWAP2 ADD SLOAD PUSH1 0x1 PUSH1 0x1 PUSH1 0xA0 SHL SUB AND DUP4 MSTORE DUP3 ADD SWAP3 SWAP1 SWAP3 MSTORE PUSH1 0x40 ADD SWAP1 KECCAK256 PUSH1 0x1 ADD SSTORE DUP1 PUSH3 0x3A1 DUP2 PUSH3 0x8A1 JUMP JUMPDEST SWAP2 POP POP PUSH3 0x2EA JUMP JUMPDEST POP JUMP JUMPDEST PUSH3 0x3B7 PUSH3 0x4A7 JUMP JUMPDEST PUSH3 0x3C3 DUP4 DUP3 PUSH3 0x4F1 JUMP JUMPDEST ISZERO PUSH3 0x412 JUMPI PUSH1 0x40 MLOAD PUSH3 0x461BCD PUSH1 0xE5 SHL DUP2 MSTORE PUSH1 0x20 PUSH1 0x4 DUP3 ADD MSTORE PUSH1 0x16 PUSH1 0x24 DUP3 ADD MSTORE PUSH32 0x45524332303A204C6F636B65642062616C616E63652E00000000000000000000 PUSH1 0x44 DUP3 ADD MSTORE PUSH1 0x64 ADD PUSH3 0x1A8 JUMP JUMPDEST PUSH3 0x42A DUP4 DUP4 DUP4 PUSH3 0x42A PUSH1 0x20 SHL PUSH3 0x1362 OR PUSH1 0x20 SHR JUMP JUMPDEST POP POP POP JUMP JUMPDEST PUSH1 0x0 DUP1 JUMPDEST PUSH1 0x7 SLOAD PUSH1 0xFF DUP3 AND LT ISZERO PUSH3 0x49E JUMPI DUP3 PUSH1 0x1 PUSH1 0x1 PUSH1 0xA0 SHL SUB AND PUSH1 0x7 DUP3 PUSH1 0xFF AND DUP2 SLOAD DUP2 LT PUSH3 0x464 JUMPI PUSH3 0x464 PUSH3 0x8DA JUMP JUMPDEST PUSH1 0x0 SWAP2 DUP3 MSTORE PUSH1 0x20 SWAP1 SWAP2 KECCAK256 ADD SLOAD PUSH1 0x1 PUSH1 0x1 PUSH1 0xA0 SHL SUB AND EQ ISZERO PUSH3 0x489 JUMPI POP PUSH1 0x1 SWAP3 SWAP2 POP POP JUMP JUMPDEST DUP1 PUSH3 0x495 DUP2 PUSH3 0x8A1 JUMP JUMPDEST SWAP2 POP POP PUSH3 0x433 JUMP JUMPDEST POP PUSH1 0x0 SWAP3 SWAP2 POP POP JUMP JUMPDEST PUSH1 0x5 SLOAD PUSH1 0xFF AND ISZERO PUSH3 0x4EF JUMPI PUSH1 0x40 MLOAD PUSH3 0x461BCD PUSH1 0xE5 SHL DUP2 MSTORE PUSH1 0x20 PUSH1 0x4 DUP3 ADD MSTORE PUSH1 0x10 PUSH1 0x24 DUP3 ADD MSTORE PUSH16 0x14185D5CD8589B194E881C185D5CD959 PUSH1 0x82 SHL PUSH1 0x44 DUP3 ADD MSTORE PUSH1 0x64 ADD PUSH3 0x1A8 JUMP JUMPDEST JUMP JUMPDEST PUSH1 0x1 PUSH1 0x1 PUSH1 0xA0 SHL SUB DUP3 AND PUSH1 0x0 SWAP1 DUP2 MSTORE PUSH1 0x8 PUSH1 0x20 MSTORE PUSH1 0x40 DUP2 KECCAK256 SLOAD ISZERO PUSH3 0x49E JUMPI PUSH1 0x0 PUSH3 0x51E DUP5 TIMESTAMP PUSH3 0x579 JUMP JUMPDEST PUSH1 0x1 PUSH1 0x1 PUSH1 0xA0 SHL SUB DUP6 AND PUSH1 0x0 SWAP1 DUP2 MSTORE PUSH1 0x8 PUSH1 0x20 MSTORE PUSH1 0x40 SWAP1 KECCAK256 SLOAD SWAP1 SWAP2 POP DUP4 SWAP1 PUSH3 0x549 SWAP1 DUP4 SWAP1 PUSH3 0x84A JUMP JUMPDEST PUSH1 0x1 PUSH1 0x1 PUSH1 0xA0 SHL SUB DUP7 AND PUSH1 0x0 SWAP1 DUP2 MSTORE PUSH1 0x20 DUP2 SWAP1 MSTORE PUSH1 0x40 SWAP1 KECCAK256 SLOAD PUSH3 0x56E SWAP2 SWAP1 PUSH3 0x84A JUMP JUMPDEST LT SWAP2 POP POP JUMPDEST SWAP3 SWAP2 POP POP JUMP JUMPDEST PUSH1 0x1 PUSH1 0x1 PUSH1 0xA0 SHL SUB DUP3 AND PUSH1 0x0 SWAP1 DUP2 MSTORE PUSH1 0x8 PUSH1 0x20 MSTORE PUSH1 0x40 DUP2 KECCAK256 DUP1 SLOAD PUSH1 0x1 DUP3 ADD SLOAD PUSH1 0x2 SWAP1 SWAP3 ADD SLOAD SWAP1 SWAP2 SWAP1 DUP2 DUP6 LT ISZERO PUSH3 0x5B7 JUMPI PUSH1 0x0 SWAP4 POP POP POP POP PUSH3 0x573 JUMP JUMPDEST PUSH1 0x0 PUSH3 0x5C5 DUP4 DUP8 PUSH3 0x84A JUMP JUMPDEST SWAP1 POP PUSH1 0x0 PUSH3 0x5D8 PUSH3 0x278D00 DUP4 PUSH3 0x6F0 JUMP JUMPDEST SWAP1 POP DUP1 DUP4 GT PUSH3 0x5F0 JUMPI DUP5 SWAP6 POP POP POP POP POP POP PUSH3 0x573 JUMP JUMPDEST PUSH1 0x1 DUP2 LT ISZERO PUSH3 0x609 JUMPI PUSH1 0x0 SWAP6 POP POP POP POP POP POP PUSH3 0x573 JUMP JUMPDEST DUP3 PUSH3 0x616 DUP3 DUP8 PUSH3 0x828 JUMP JUMPDEST PUSH3 0x622 SWAP2 SWAP1 PUSH3 0x6F0 JUMP JUMPDEST SWAP6 POP POP POP POP POP POP PUSH3 0x573 JUMP JUMPDEST DUP3 DUP1 SLOAD PUSH3 0x63D SWAP1 PUSH3 0x864 JUMP JUMPDEST SWAP1 PUSH1 0x0 MSTORE PUSH1 0x20 PUSH1 0x0 KECCAK256 SWAP1 PUSH1 0x1F ADD PUSH1 0x20 SWAP1 DIV DUP2 ADD SWAP3 DUP3 PUSH3 0x661 JUMPI PUSH1 0x0 DUP6 SSTORE PUSH3 0x6AC JUMP JUMPDEST DUP3 PUSH1 0x1F LT PUSH3 0x67C JUMPI DUP1 MLOAD PUSH1 0xFF NOT AND DUP4 DUP1 ADD OR DUP6 SSTORE PUSH3 0x6AC JUMP JUMPDEST DUP3 DUP1 ADD PUSH1 0x1 ADD DUP6 SSTORE DUP3 ISZERO PUSH3 0x6AC JUMPI SWAP2 DUP3 ADD JUMPDEST DUP3 DUP2 GT ISZERO PUSH3 0x6AC JUMPI DUP3 MLOAD DUP3 SSTORE SWAP2 PUSH1 0x20 ADD SWAP2 SWAP1 PUSH1 0x1 ADD SWAP1 PUSH3 0x68F JUMP JUMPDEST POP PUSH3 0x6BA SWAP3 SWAP2 POP PUSH3 0x6BE JUMP JUMPDEST POP SWAP1 JUMP JUMPDEST JUMPDEST DUP1 DUP3 GT ISZERO PUSH3 0x6BA JUMPI PUSH1 0x0 DUP2 SSTORE PUSH1 0x1 ADD PUSH3 0x6BF JUMP JUMPDEST PUSH1 0x0 DUP3 NOT DUP3 GT ISZERO PUSH3 0x6EB JUMPI PUSH3 0x6EB PUSH3 0x8C4 JUMP JUMPDEST POP ADD SWAP1 JUMP JUMPDEST PUSH1 0x0 DUP3 PUSH3 0x70E JUMPI PUSH4 0x4E487B71 PUSH1 0xE0 SHL PUSH1 0x0 MSTORE PUSH1 0x12 PUSH1 0x4 MSTORE PUSH1 0x24 PUSH1 0x0 REVERT JUMPDEST POP DIV SWAP1 JUMP JUMPDEST PUSH1 0x1 DUP2 DUP2 JUMPDEST DUP1 DUP6 GT ISZERO PUSH3 0x754 JUMPI DUP2 PUSH1 0x0 NOT DIV DUP3 GT ISZERO PUSH3 0x738 JUMPI PUSH3 0x738 PUSH3 0x8C4 JUMP JUMPDEST DUP1 DUP6 AND ISZERO PUSH3 0x746 JUMPI SWAP2 DUP2 MUL SWAP2 JUMPDEST SWAP4 DUP5 SHR SWAP4 SWAP1 DUP1 MUL SWAP1 PUSH3 0x718 JUMP JUMPDEST POP SWAP3 POP SWAP3 SWAP1 POP JUMP JUMPDEST PUSH1 0x0 PUSH3 0x76D PUSH1 0xFF DUP5 AND DUP4 PUSH3 0x774 JUMP JUMPDEST SWAP4 SWAP3 POP POP POP JUMP JUMPDEST PUSH1 0x0 DUP3 PUSH3 0x785 JUMPI POP PUSH1 0x1 PUSH3 0x573 JUMP JUMPDEST DUP2 PUSH3 0x794 JUMPI POP PUSH1 0x0 PUSH3 0x573 JUMP JUMPDEST DUP2 PUSH1 0x1 DUP2 EQ PUSH3 0x7AD JUMPI PUSH1 0x2 DUP2 EQ PUSH3 0x7B8 JUMPI PUSH3 0x7D8 JUMP JUMPDEST PUSH1 0x1 SWAP2 POP POP PUSH3 0x573 JUMP JUMPDEST PUSH1 0xFF DUP5 GT ISZERO PUSH3 0x7CC JUMPI PUSH3 0x7CC PUSH3 0x8C4 JUMP JUMPDEST POP POP PUSH1 0x1 DUP3 SHL PUSH3 0x573 JUMP JUMPDEST POP PUSH1 0x20 DUP4 LT PUSH2 0x133 DUP4 LT AND PUSH1 0x4E DUP5 LT PUSH1 0xB DUP5 LT AND OR ISZERO PUSH3 0x7FD JUMPI POP DUP2 DUP2 EXP PUSH3 0x573 JUMP JUMPDEST PUSH3 0x809 DUP4 DUP4 PUSH3 0x713 JUMP JUMPDEST DUP1 PUSH1 0x0 NOT DIV DUP3 GT ISZERO PUSH3 0x820 JUMPI PUSH3 0x820 PUSH3 0x8C4 JUMP JUMPDEST MUL SWAP4 SWAP3 POP POP POP JUMP JUMPDEST PUSH1 0x0 DUP2 PUSH1 0x0 NOT DIV DUP4 GT DUP3 ISZERO ISZERO AND ISZERO PUSH3 0x845 JUMPI PUSH3 0x845 PUSH3 0x8C4 JUMP JUMPDEST POP MUL SWAP1 JUMP JUMPDEST PUSH1 0x0 DUP3 DUP3 LT ISZERO PUSH3 0x85F JUMPI PUSH3 0x85F PUSH3 0x8C4 JUMP JUMPDEST POP SUB SWAP1 JUMP JUMPDEST PUSH1 0x1 DUP2 DUP2 SHR SWAP1 DUP3 AND DUP1 PUSH3 0x879 JUMPI PUSH1 0x7F DUP3 AND SWAP2 POP JUMPDEST PUSH1 0x20 DUP3 LT DUP2 EQ ISZERO PUSH3 0x89B JUMPI PUSH4 0x4E487B71 PUSH1 0xE0 SHL PUSH1 0x0 MSTORE PUSH1 0x22 PUSH1 0x4 MSTORE PUSH1 0x24 PUSH1 0x0 REVERT JUMPDEST POP SWAP2 SWAP1 POP JUMP JUMPDEST PUSH1 0x0 PUSH1 0xFF DUP3 AND PUSH1 0xFF DUP2 EQ ISZERO PUSH3 0x8BB JUMPI PUSH3 0x8BB PUSH3 0x8C4 JUMP JUMPDEST PUSH1 0x1 ADD SWAP3 SWAP2 POP POP JUMP JUMPDEST PUSH4 0x4E487B71 PUSH1 0xE0 SHL PUSH1 0x0 MSTORE PUSH1 0x11 PUSH1 0x4 MSTORE PUSH1 0x24 PUSH1 0x0 REVERT JUMPDEST PUSH4 0x4E487B71 PUSH1 0xE0 SHL PUSH1 0x0 MSTORE PUSH1 0x32 PUSH1 0x4 MSTORE PUSH1 0x24 PUSH1 0x0 REVERT JUMPDEST PUSH2 0x2258 DUP1 PUSH3 0x900 PUSH1 0x0 CODECOPY PUSH1 0x0 RETURN INVALID PUSH1 0x80 PUSH1 0x40 MSTORE CALLVALUE DUP1 ISZERO PUSH2 0x10 JUMPI PUSH1 0x0 DUP1 REVERT JUMPDEST POP PUSH1 0x4 CALLDATASIZE LT PUSH2 0x1E5 JUMPI PUSH1 0x0 CALLDATALOAD PUSH1 0xE0 SHR DUP1 PUSH4 0x715018A6 GT PUSH2 0x10F JUMPI DUP1 PUSH4 0x8DA5CB5B GT PUSH2 0xA2 JUMPI DUP1 PUSH4 0xA9059CBB GT PUSH2 0x71 JUMPI DUP1 PUSH4 0xA9059CBB EQ PUSH2 0x423 JUMPI DUP1 PUSH4 0xDD62ED3E EQ PUSH2 0x436 JUMPI DUP1 PUSH4 0xEF9F3574 EQ PUSH2 0x449 JUMPI DUP1 PUSH4 0xF2FDE38B EQ PUSH2 0x45C JUMPI PUSH1 0x0 DUP1 REVERT JUMPDEST DUP1 PUSH4 0x8DA5CB5B EQ PUSH2 0x3EA JUMPI DUP1 PUSH4 0x92E27A08 EQ PUSH2 0x400 JUMPI DUP1 PUSH4 0x95D89B41 EQ PUSH2 0x408 JUMPI DUP1 PUSH4 0xA457C2D7 EQ PUSH2 0x410 JUMPI PUSH1 0x0 DUP1 REVERT JUMPDEST DUP1 PUSH4 0x76B57027 GT PUSH2 0xDE JUMPI DUP1 PUSH4 0x76B57027 EQ PUSH2 0x3A7 JUMPI DUP1 PUSH4 0x79CC6790 EQ PUSH2 0x3BA JUMPI DUP1 PUSH4 0x83DF4F37 EQ PUSH2 0x3CD JUMPI DUP1 PUSH4 0x8456CB59 EQ PUSH2 0x3E2 JUMPI PUSH1 0x0 DUP1 REVERT JUMPDEST DUP1 PUSH4 0x715018A6 EQ PUSH2 0x32E JUMPI DUP1 PUSH4 0x7238CCDB EQ PUSH2 0x336 JUMPI DUP1 PUSH4 0x74DB7662 EQ PUSH2 0x369 JUMPI DUP1 PUSH4 0x75D966E9 EQ PUSH2 0x394 JUMPI PUSH1 0x0 DUP1 REVERT JUMPDEST DUP1 PUSH4 0x39509351 GT PUSH2 0x187 JUMPI DUP1 PUSH4 0x5C383EA0 GT PUSH2 0x156 JUMPI DUP1 PUSH4 0x5C383EA0 EQ PUSH2 0x2DF JUMPI DUP1 PUSH4 0x5C975ABB EQ PUSH2 0x2F2 JUMPI DUP1 PUSH4 0x6884461A EQ PUSH2 0x2FD JUMPI DUP1 PUSH4 0x70A08231 EQ PUSH2 0x305 JUMPI PUSH1 0x0 DUP1 REVERT JUMPDEST DUP1 PUSH4 0x39509351 EQ PUSH2 0x287 JUMPI DUP1 PUSH4 0x3C97A9C5 EQ PUSH2 0x29A JUMPI DUP1 PUSH4 0x3F4BA83A EQ PUSH2 0x2C4 JUMPI DUP1 PUSH4 0x42966C68 EQ PUSH2 0x2CC JUMPI PUSH1 0x0 DUP1 REVERT JUMPDEST DUP1 PUSH4 0x23B872DD GT PUSH2 0x1C3 JUMPI DUP1 PUSH4 0x23B872DD EQ PUSH2 0x23D JUMPI DUP1 PUSH4 0x24A7039D EQ PUSH2 0x250 JUMPI DUP1 PUSH4 0x313CE567 EQ PUSH2 0x265 JUMPI DUP1 PUSH4 0x3873D475 EQ PUSH2 0x274 JUMPI PUSH1 0x0 DUP1 REVERT JUMPDEST DUP1 PUSH4 0x6FDDE03 EQ PUSH2 0x1EA JUMPI DUP1 PUSH4 0x95EA7B3 EQ PUSH2 0x208 JUMPI DUP1 PUSH4 0x18160DDD EQ PUSH2 0x22B JUMPI JUMPDEST PUSH1 0x0 DUP1 REVERT JUMPDEST PUSH2 0x1F2 PUSH2 0x46F JUMP JUMPDEST PUSH1 0x40 MLOAD PUSH2 0x1FF SWAP2 SWAP1 PUSH2 0x1FBD JUMP JUMPDEST PUSH1 0x40 MLOAD DUP1 SWAP2 SUB SWAP1 RETURN JUMPDEST PUSH2 0x21B PUSH2 0x216 CALLDATASIZE PUSH1 0x4 PUSH2 0x1EF4 JUMP JUMPDEST PUSH2 0x501 JUMP JUMPDEST PUSH1 0x40 MLOAD SWAP1 ISZERO ISZERO DUP2 MSTORE PUSH1 0x20 ADD PUSH2 0x1FF JUMP JUMPDEST PUSH1 0x2 SLOAD JUMPDEST PUSH1 0x40 MLOAD SWAP1 DUP2 MSTORE PUSH1 0x20 ADD PUSH2 0x1FF JUMP JUMPDEST PUSH2 0x21B PUSH2 0x24B CALLDATASIZE PUSH1 0x4 PUSH2 0x1EB8 JUMP JUMPDEST PUSH2 0x51B JUMP JUMPDEST PUSH2 0x263 PUSH2 0x25E CALLDATASIZE PUSH1 0x4 PUSH2 0x1F1E JUMP JUMPDEST PUSH2 0x53F JUMP JUMPDEST STOP JUMPDEST PUSH1 0x40 MLOAD PUSH1 0x12 DUP2 MSTORE PUSH1 0x20 ADD PUSH2 0x1FF JUMP JUMPDEST PUSH2 0x263 PUSH2 0x282 CALLDATASIZE PUSH1 0x4 PUSH2 0x1EF4 JUMP JUMPDEST PUSH2 0x759 JUMP JUMPDEST PUSH2 0x21B PUSH2 0x295 CALLDATASIZE PUSH1 0x4 PUSH2 0x1EF4 JUMP JUMPDEST PUSH2 0x86D JUMP JUMPDEST PUSH2 0x2AD PUSH2 0x2A8 CALLDATASIZE PUSH1 0x4 PUSH2 0x1E63 JUMP JUMPDEST PUSH2 0x88F JUMP JUMPDEST PUSH1 0x40 DUP1 MLOAD SWAP3 ISZERO ISZERO DUP4 MSTORE PUSH1 0x20 DUP4 ADD SWAP2 SWAP1 SWAP2 MSTORE ADD PUSH2 0x1FF JUMP JUMPDEST PUSH2 0x263 PUSH2 0x8C3 JUMP JUMPDEST PUSH2 0x263 PUSH2 0x2DA CALLDATASIZE PUSH1 0x4 PUSH2 0x1F57 JUMP JUMPDEST PUSH2 0x901 JUMP JUMPDEST PUSH2 0x263 PUSH2 0x2ED CALLDATASIZE PUSH1 0x4 PUSH2 0x1EF4 JUMP JUMPDEST PUSH2 0x90E JUMP JUMPDEST PUSH1 0x5 SLOAD PUSH1 0xFF AND PUSH2 0x21B JUMP JUMPDEST PUSH2 0x263 PUSH2 0x9E5 JUMP JUMPDEST PUSH2 0x22F PUSH2 0x313 CALLDATASIZE PUSH1 0x4 PUSH2 0x1E63 JUMP JUMPDEST PUSH1 0x1 PUSH1 0x1 PUSH1 0xA0 SHL SUB AND PUSH1 0x0 SWAP1 DUP2 MSTORE PUSH1 0x20 DUP2 SWAP1 MSTORE PUSH1 0x40 SWAP1 KECCAK256 SLOAD SWAP1 JUMP JUMPDEST PUSH2 0x263 PUSH2 0xA88 JUMP JUMPDEST PUSH2 0x349 PUSH2 0x344 CALLDATASIZE PUSH1 0x4 PUSH2 0x1E63 JUMP JUMPDEST PUSH2 0xABC JUMP JUMPDEST PUSH1 0x40 DUP1 MLOAD SWAP5 DUP6 MSTORE PUSH1 0x20 DUP6 ADD SWAP4 SWAP1 SWAP4 MSTORE SWAP2 DUP4 ADD MSTORE PUSH1 0x60 DUP3 ADD MSTORE PUSH1 0x80 ADD PUSH2 0x1FF JUMP JUMPDEST PUSH2 0x37C PUSH2 0x377 CALLDATASIZE PUSH1 0x4 PUSH2 0x1F57 JUMP JUMPDEST PUSH2 0xBBC JUMP JUMPDEST PUSH1 0x40 MLOAD PUSH1 0x1 PUSH1 0x1 PUSH1 0xA0 SHL SUB SWAP1 SWAP2 AND DUP2 MSTORE PUSH1 0x20 ADD PUSH2 0x1FF JUMP JUMPDEST PUSH2 0x263 PUSH2 0x3A2 CALLDATASIZE PUSH1 0x4 PUSH2 0x1E63 JUMP JUMPDEST PUSH2 0xBE6 JUMP JUMPDEST PUSH2 0x263 PUSH2 0x3B5 CALLDATASIZE PUSH1 0x4 PUSH2 0x1EF4 JUMP JUMPDEST PUSH2 0xE9A JUMP JUMPDEST PUSH2 0x263 PUSH2 0x3C8 CALLDATASIZE PUSH1 0x4 PUSH2 0x1EF4 JUMP JUMPDEST PUSH2 0xFB7 JUMP JUMPDEST PUSH2 0x3D5 PUSH2 0xFCC JUMP JUMPDEST PUSH1 0x40 MLOAD PUSH2 0x1FF SWAP2 SWAP1 PUSH2 0x1F70 JUMP JUMPDEST PUSH2 0x263 PUSH2 0x1035 JUMP JUMPDEST PUSH1 0x5 SLOAD PUSH2 0x100 SWAP1 DIV PUSH1 0x1 PUSH1 0x1 PUSH1 0xA0 SHL SUB AND PUSH2 0x37C JUMP JUMPDEST PUSH2 0x3D5 PUSH2 0x1069 JUMP JUMPDEST PUSH2 0x1F2 PUSH2 0x10D1 JUMP JUMPDEST PUSH2 0x21B PUSH2 0x41E CALLDATASIZE PUSH1 0x4 PUSH2 0x1EF4 JUMP JUMPDEST PUSH2 0x10E0 JUMP JUMPDEST PUSH2 0x21B PUSH2 0x431 CALLDATASIZE PUSH1 0x4 PUSH2 0x1EF4 JUMP JUMPDEST PUSH2 0x115B JUMP JUMPDEST PUSH2 0x22F PUSH2 0x444 CALLDATASIZE PUSH1 0x4 PUSH2 0x1E85 JUMP JUMPDEST PUSH2 0x1169 JUMP JUMPDEST PUSH2 0x263 PUSH2 0x457 CALLDATASIZE PUSH1 0x4 PUSH2 0x1E63 JUMP JUMPDEST PUSH2 0x1194 JUMP JUMPDEST PUSH2 0x263 PUSH2 0x46A CALLDATASIZE PUSH1 0x4 PUSH2 0x1E63 JUMP JUMPDEST PUSH2 0x12A2 JUMP JUMPDEST PUSH1 0x60 PUSH1 0x3 DUP1 SLOAD PUSH2 0x47E SWAP1 PUSH2 0x2185 JUMP JUMPDEST DUP1 PUSH1 0x1F ADD PUSH1 0x20 DUP1 SWAP2 DIV MUL PUSH1 0x20 ADD PUSH1 0x40 MLOAD SWAP1 DUP2 ADD PUSH1 0x40 MSTORE DUP1 SWAP3 SWAP2 SWAP1 DUP2 DUP2 MSTORE PUSH1 0x20 ADD DUP3 DUP1 SLOAD PUSH2 0x4AA SWAP1 PUSH2 0x2185 JUMP JUMPDEST DUP1 ISZERO PUSH2 0x4F7 JUMPI DUP1 PUSH1 0x1F LT PUSH2 0x4CC JUMPI PUSH2 0x100 DUP1 DUP4 SLOAD DIV MUL DUP4 MSTORE SWAP2 PUSH1 0x20 ADD SWAP2 PUSH2 0x4F7 JUMP JUMPDEST DUP3 ADD SWAP2 SWAP1 PUSH1 0x0 MSTORE PUSH1 0x20 PUSH1 0x0 KECCAK256 SWAP1 JUMPDEST DUP2 SLOAD DUP2 MSTORE SWAP1 PUSH1 0x1 ADD SWAP1 PUSH1 0x20 ADD DUP1 DUP4 GT PUSH2 0x4DA JUMPI DUP3 SWAP1 SUB PUSH1 0x1F AND DUP3 ADD SWAP2 JUMPDEST POP POP POP POP POP SWAP1 POP SWAP1 JUMP JUMPDEST PUSH1 0x0 CALLER PUSH2 0x50F DUP2 DUP6 DUP6 PUSH2 0x1367 JUMP JUMPDEST PUSH1 0x1 SWAP2 POP POP JUMPDEST SWAP3 SWAP2 POP POP JUMP JUMPDEST PUSH1 0x0 CALLER PUSH2 0x529 DUP6 DUP3 DUP6 PUSH2 0x148B JUMP JUMPDEST PUSH2 0x534 DUP6 DUP6 DUP6 PUSH2 0x1505 JUMP JUMPDEST POP PUSH1 0x1 SWAP5 SWAP4 POP POP POP POP JUMP JUMPDEST PUSH2 0x547 PUSH2 0x16DE JUMP JUMPDEST PUSH1 0x1 PUSH1 0x1 PUSH1 0xA0 SHL SUB DUP5 AND PUSH1 0x0 SWAP1 DUP2 MSTORE PUSH1 0x8 PUSH1 0x20 MSTORE PUSH1 0x40 SWAP1 KECCAK256 SLOAD PUSH1 0x1 GT PUSH2 0x5B4 JUMPI PUSH1 0x40 MLOAD PUSH3 0x461BCD PUSH1 0xE5 SHL DUP2 MSTORE PUSH1 0x20 PUSH1 0x4 DUP3 ADD MSTORE PUSH1 0x17 PUSH1 0x24 DUP3 ADD MSTORE PUSH32 0x416C65616479206578697374206C6F636B20696E666F2E000000000000000000 PUSH1 0x44 DUP3 ADD MSTORE PUSH1 0x64 ADD JUMPDEST PUSH1 0x40 MLOAD DUP1 SWAP2 SUB SWAP1 REVERT JUMPDEST DUP3 TIMESTAMP LT PUSH2 0x61B JUMPI PUSH1 0x40 MLOAD PUSH3 0x461BCD PUSH1 0xE5 SHL DUP2 MSTORE PUSH1 0x20 PUSH1 0x4 DUP3 ADD MSTORE PUSH1 0x2F PUSH1 0x24 DUP3 ADD MSTORE PUSH32 0x45524332303A2043757272656E742074696D6520697320677265617465722074 PUSH1 0x44 DUP3 ADD MSTORE PUSH15 0x3430B71039BA30B93A103A34B6B297 PUSH1 0x89 SHL PUSH1 0x64 DUP3 ADD MSTORE PUSH1 0x84 ADD PUSH2 0x5AB JUMP JUMPDEST PUSH1 0x0 DUP3 GT PUSH2 0x63B JUMPI PUSH1 0x40 MLOAD PUSH3 0x461BCD PUSH1 0xE5 SHL DUP2 MSTORE PUSH1 0x4 ADD PUSH2 0x5AB SWAP1 PUSH2 0x2082 JUMP JUMPDEST PUSH1 0x0 DUP2 GT PUSH2 0x68B JUMPI PUSH1 0x40 MLOAD PUSH3 0x461BCD PUSH1 0xE5 SHL DUP2 MSTORE PUSH1 0x20 PUSH1 0x4 DUP3 ADD DUP2 SWAP1 MSTORE PUSH1 0x24 DUP3 ADD MSTORE PUSH32 0x45524332303A20416D6F756E742069732067726561746572207468616E20302E PUSH1 0x44 DUP3 ADD MSTORE PUSH1 0x64 ADD PUSH2 0x5AB JUMP JUMPDEST PUSH1 0x40 DUP1 MLOAD PUSH1 0x60 DUP1 DUP3 ADD DUP4 MSTORE DUP4 DUP3 MSTORE PUSH1 0x20 DUP1 DUP4 ADD DUP8 DUP2 MSTORE DUP4 DUP6 ADD DUP8 DUP2 MSTORE PUSH1 0x1 PUSH1 0x1 PUSH1 0xA0 SHL SUB DUP11 AND PUSH1 0x0 DUP2 DUP2 MSTORE PUSH1 0x8 DUP6 MSTORE DUP8 DUP2 KECCAK256 SWAP7 MLOAD DUP8 SSTORE SWAP3 MLOAD PUSH1 0x1 DUP1 DUP9 ADD SWAP2 SWAP1 SWAP2 SSTORE SWAP2 MLOAD PUSH1 0x2 SWAP1 SWAP7 ADD SWAP6 SWAP1 SWAP6 SSTORE PUSH1 0x9 DUP1 SLOAD SWAP2 DUP3 ADD DUP2 SSTORE SWAP1 SWAP2 MSTORE PUSH32 0x6E1540171B6C0C960B71A7020D9F60077F6AF931A8BBF590DA0223DACF75C7AF ADD DUP1 SLOAD PUSH1 0x1 PUSH1 0x1 PUSH1 0xA0 SHL SUB NOT AND DUP5 OR SWAP1 SSTORE DUP4 MLOAD DUP6 DUP2 MSTORE SWAP1 DUP2 ADD DUP8 SWAP1 MSTORE SWAP3 DUP4 ADD DUP6 SWAP1 MSTORE SWAP1 SWAP2 PUSH32 0x1E79CE210CFB5D5B665FDAB9417FDDAF7112BCBBDB74138529C203C1173EA54F SWAP2 ADD PUSH1 0x40 MLOAD DUP1 SWAP2 SUB SWAP1 LOG2 POP POP POP POP JUMP JUMPDEST PUSH2 0x761 PUSH2 0x16DE JUMP JUMPDEST PUSH2 0x769 PUSH2 0x173E JUMP JUMPDEST PUSH2 0x785 JUMPI PUSH1 0x40 MLOAD PUSH3 0x461BCD PUSH1 0xE5 SHL DUP2 MSTORE PUSH1 0x4 ADD PUSH2 0x5AB SWAP1 PUSH2 0x2012 JUMP JUMPDEST PUSH1 0x1 PUSH1 0x1 PUSH1 0xA0 SHL SUB DUP3 AND PUSH1 0x0 SWAP1 DUP2 MSTORE PUSH1 0x8 PUSH1 0x20 MSTORE PUSH1 0x40 SWAP1 KECCAK256 SLOAD PUSH2 0x7BA JUMPI PUSH1 0x40 MLOAD PUSH3 0x461BCD PUSH1 0xE5 SHL DUP2 MSTORE PUSH1 0x4 ADD PUSH2 0x5AB SWAP1 PUSH2 0x2054 JUMP JUMPDEST PUSH1 0x0 DUP2 GT PUSH2 0x80A JUMPI PUSH1 0x40 MLOAD PUSH3 0x461BCD PUSH1 0xE5 SHL DUP2 MSTORE PUSH1 0x20 PUSH1 0x4 DUP3 ADD DUP2 SWAP1 MSTORE PUSH1 0x24 DUP3 ADD MSTORE PUSH32 0x45524332303A20416D6F756E742069732067726561746572207468616E20302E PUSH1 0x44 DUP3 ADD MSTORE PUSH1 0x64 ADD PUSH2 0x5AB JUMP JUMPDEST PUSH1 0x1 PUSH1 0x1 PUSH1 0xA0 SHL SUB DUP3 AND PUSH1 0x0 DUP2 DUP2 MSTORE PUSH1 0x8 PUSH1 0x20 SWAP1 DUP2 MSTORE PUSH1 0x40 SWAP2 DUP3 SWAP1 KECCAK256 DUP5 SWAP1 SSTORE DUP2 MLOAD PUSH1 0x1 DUP2 MSTORE SWAP1 DUP2 ADD DUP5 SWAP1 MSTORE PUSH32 0x546881D7B11E2E451D337A9F8C5902323A467B3B333B598942F963B9E67C7D4E SWAP2 ADD JUMPDEST PUSH1 0x40 MLOAD DUP1 SWAP2 SUB SWAP1 LOG2 PUSH2 0x869 PUSH2 0x1825 JUMP JUMPDEST POP POP JUMP JUMPDEST PUSH1 0x0 CALLER PUSH2 0x50F DUP2 DUP6 DUP6 PUSH2 0x880 DUP4 DUP4 PUSH2 0x1169 JUMP JUMPDEST PUSH2 0x88A SWAP2 SWAP1 PUSH2 0x2115 JUMP JUMPDEST PUSH2 0x1367 JUMP JUMPDEST PUSH1 0x0 DUP1 PUSH2 0x89A PUSH2 0x16DE JUMP JUMPDEST POP POP PUSH1 0x1 PUSH1 0x1 PUSH1 0xA0 SHL SUB AND PUSH1 0x0 SWAP1 DUP2 MSTORE PUSH1 0x6 PUSH1 0x20 MSTORE PUSH1 0x40 SWAP1 KECCAK256 DUP1 SLOAD PUSH1 0x1 SWAP1 SWAP2 ADD SLOAD PUSH1 0xFF SWAP1 SWAP2 AND SWAP2 JUMP JUMPDEST PUSH2 0x8CB PUSH2 0x16DE JUMP JUMPDEST PUSH2 0x8D3 PUSH2 0x173E JUMP JUMPDEST PUSH2 0x8EF JUMPI PUSH1 0x40 MLOAD PUSH3 0x461BCD PUSH1 0xE5 SHL DUP2 MSTORE PUSH1 0x4 ADD PUSH2 0x5AB SWAP1 PUSH2 0x2012 JUMP JUMPDEST PUSH2 0x8F7 PUSH2 0x196D JUMP JUMPDEST PUSH2 0x8FF PUSH2 0x1825 JUMP JUMPDEST JUMP JUMPDEST PUSH2 0x90B CALLER DUP3 PUSH2 0x19BF JUMP JUMPDEST POP JUMP JUMPDEST PUSH2 0x916 PUSH2 0x16DE JUMP JUMPDEST PUSH2 0x91E PUSH2 0x173E JUMP JUMPDEST PUSH2 0x93A JUMPI PUSH1 0x40 MLOAD PUSH3 0x461BCD PUSH1 0xE5 SHL DUP2 MSTORE PUSH1 0x4 ADD PUSH2 0x5AB SWAP1 PUSH2 0x2012 JUMP JUMPDEST PUSH1 0x1 PUSH1 0x1 PUSH1 0xA0 SHL SUB DUP3 AND PUSH1 0x0 SWAP1 DUP2 MSTORE PUSH1 0x8 PUSH1 0x20 MSTORE PUSH1 0x40 SWAP1 KECCAK256 SLOAD PUSH2 0x96F JUMPI PUSH1 0x40 MLOAD PUSH3 0x461BCD PUSH1 0xE5 SHL DUP2 MSTORE PUSH1 0x4 ADD PUSH2 0x5AB SWAP1 PUSH2 0x2054 JUMP JUMPDEST PUSH1 0x0 DUP2 GT PUSH2 0x98F JUMPI PUSH1 0x40 MLOAD PUSH3 0x461BCD PUSH1 0xE5 SHL DUP2 MSTORE PUSH1 0x4 ADD PUSH2 0x5AB SWAP1 PUSH2 0x2082 JUMP JUMPDEST PUSH1 0x1 PUSH1 0x1 PUSH1 0xA0 SHL SUB DUP3 AND PUSH1 0x0 DUP2 DUP2 MSTORE PUSH1 0x8 PUSH1 0x20 SWAP1 DUP2 MSTORE PUSH1 0x40 SWAP2 DUP3 SWAP1 KECCAK256 PUSH1 0x2 ADD DUP5 SWAP1 SSTORE DUP2 MLOAD PUSH1 0x3 DUP2 MSTORE SWAP1 DUP2 ADD DUP5 SWAP1 MSTORE PUSH32 0x546881D7B11E2E451D337A9F8C5902323A467B3B333B598942F963B9E67C7D4E SWAP2 ADD PUSH2 0x859 JUMP JUMPDEST CALLER PUSH2 0x9EF DUP2 PUSH2 0x1B19 JUMP JUMPDEST PUSH2 0xA0B JUMPI PUSH1 0x40 MLOAD PUSH3 0x461BCD PUSH1 0xE5 SHL DUP2 MSTORE PUSH1 0x4 ADD PUSH2 0x5AB SWAP1 PUSH2 0x20C9 JUMP JUMPDEST CALLER PUSH1 0x0 SWAP1 DUP2 MSTORE PUSH1 0x6 PUSH1 0x20 MSTORE PUSH1 0x40 SWAP1 KECCAK256 DUP1 SLOAD PUSH1 0xFF NOT AND PUSH1 0x1 OR SWAP1 SSTORE PUSH2 0xA32 TIMESTAMP PUSH3 0x15180 PUSH2 0x2115 JUMP JUMPDEST CALLER PUSH1 0x0 DUP2 DUP2 MSTORE PUSH1 0x6 PUSH1 0x20 SWAP1 DUP2 MSTORE PUSH1 0x40 SWAP2 DUP3 SWAP1 KECCAK256 PUSH1 0x1 ADD SWAP4 SWAP1 SWAP4 SSTORE DUP1 MLOAD SWAP2 DUP3 MSTORE TIMESTAMP SWAP3 DUP3 ADD SWAP3 SWAP1 SWAP3 MSTORE PUSH32 0xAB825BB15A80DDD6248DAB50C44299AB366E0658B16D6C37CEDA8018F5B1ADDE SWAP2 ADD JUMPDEST PUSH1 0x40 MLOAD DUP1 SWAP2 SUB SWAP1 LOG1 POP JUMP JUMPDEST PUSH2 0xA90 PUSH2 0x16DE JUMP JUMPDEST PUSH2 0xA98 PUSH2 0x173E JUMP JUMPDEST PUSH2 0xAB4 JUMPI PUSH1 0x40 MLOAD PUSH3 0x461BCD PUSH1 0xE5 SHL DUP2 MSTORE PUSH1 0x4 ADD PUSH2 0x5AB SWAP1 PUSH2 0x2012 JUMP JUMPDEST PUSH2 0x8F7 PUSH2 0x1B89 JUMP JUMPDEST PUSH1 0x0 DUP1 DUP1 DUP1 CALLER PUSH1 0x1 PUSH1 0x1 PUSH1 0xA0 SHL SUB DUP7 AND EQ DUP1 PUSH2 0xAF9 JUMPI POP PUSH1 0x5 SLOAD PUSH2 0x100 SWAP1 DIV PUSH1 0x1 PUSH1 0x1 PUSH1 0xA0 SHL SUB AND PUSH1 0x1 PUSH1 0x1 PUSH1 0xA0 SHL SUB AND CALLER PUSH1 0x1 PUSH1 0x1 PUSH1 0xA0 SHL SUB AND EQ JUMPDEST PUSH2 0xB45 JUMPI PUSH1 0x40 MLOAD PUSH3 0x461BCD PUSH1 0xE5 SHL DUP2 MSTORE PUSH1 0x20 PUSH1 0x4 DUP3 ADD MSTORE PUSH1 0x18 PUSH1 0x24 DUP3 ADD MSTORE PUSH32 0x43616C6C6572206973206E6F7420746865206F776E65722E0000000000000000 PUSH1 0x44 DUP3 ADD MSTORE PUSH1 0x64 ADD PUSH2 0x5AB JUMP JUMPDEST PUSH1 0x1 PUSH1 0x1 PUSH1 0xA0 SHL SUB DUP6 AND PUSH1 0x0 SWAP1 DUP2 MSTORE PUSH1 0x8 PUSH1 0x20 MSTORE PUSH1 0x40 SWAP1 KECCAK256 SLOAD PUSH2 0xB7A JUMPI PUSH1 0x40 MLOAD PUSH3 0x461BCD PUSH1 0xE5 SHL DUP2 MSTORE PUSH1 0x4 ADD PUSH2 0x5AB SWAP1 PUSH2 0x2054 JUMP JUMPDEST PUSH1 0x0 PUSH2 0xB86 DUP7 TIMESTAMP PUSH2 0x1B9B JUMP JUMPDEST PUSH1 0x1 PUSH1 0x1 PUSH1 0xA0 SHL SUB SWAP7 SWAP1 SWAP7 AND PUSH1 0x0 SWAP1 DUP2 MSTORE PUSH1 0x8 PUSH1 0x20 MSTORE PUSH1 0x40 SWAP1 KECCAK256 DUP1 SLOAD PUSH1 0x1 DUP3 ADD SLOAD PUSH1 0x2 SWAP1 SWAP3 ADD SLOAD SWAP1 SWAP9 SWAP2 SWAP8 SWAP1 SWAP7 POP SWAP5 POP SWAP3 POP POP POP JUMP JUMPDEST PUSH1 0x7 DUP2 DUP2 SLOAD DUP2 LT PUSH2 0xBCC JUMPI PUSH1 0x0 DUP1 REVERT JUMPDEST PUSH1 0x0 SWAP2 DUP3 MSTORE PUSH1 0x20 SWAP1 SWAP2 KECCAK256 ADD SLOAD PUSH1 0x1 PUSH1 0x1 PUSH1 0xA0 SHL SUB AND SWAP1 POP DUP2 JUMP JUMPDEST PUSH2 0xBEE PUSH2 0x16DE JUMP JUMPDEST PUSH2 0xBF6 PUSH2 0x173E JUMP JUMPDEST PUSH2 0xC12 JUMPI PUSH1 0x40 MLOAD PUSH3 0x461BCD PUSH1 0xE5 SHL DUP2 MSTORE PUSH1 0x4 ADD PUSH2 0x5AB SWAP1 PUSH2 0x2012 JUMP JUMPDEST DUP1 PUSH2 0xC1C DUP2 PUSH2 0x1B19 JUMP JUMPDEST PUSH2 0xC38 JUMPI PUSH1 0x40 MLOAD PUSH3 0x461BCD PUSH1 0xE5 SHL DUP2 MSTORE PUSH1 0x4 ADD PUSH2 0x5AB SWAP1 PUSH2 0x20C9 JUMP JUMPDEST PUSH1 0x7 SLOAD PUSH1 0x3 LT PUSH2 0xC8A JUMPI PUSH1 0x40 MLOAD PUSH3 0x461BCD PUSH1 0xE5 SHL DUP2 MSTORE PUSH1 0x20 PUSH1 0x4 DUP3 ADD MSTORE PUSH1 0x1E PUSH1 0x24 DUP3 ADD MSTORE PUSH32 0x4D757374206265206174206C65617374203320636F6E6669726D6572732E0000 PUSH1 0x44 DUP3 ADD MSTORE PUSH1 0x64 ADD PUSH2 0x5AB JUMP JUMPDEST PUSH1 0x0 DUP1 JUMPDEST PUSH1 0x7 SLOAD PUSH1 0xFF DUP3 AND LT ISZERO PUSH2 0xE1D JUMPI DUP4 PUSH1 0x1 PUSH1 0x1 PUSH1 0xA0 SHL SUB AND PUSH1 0x7 DUP3 PUSH1 0xFF AND DUP2 SLOAD DUP2 LT PUSH2 0xCBB JUMPI PUSH2 0xCBB PUSH2 0x220C JUMP JUMPDEST PUSH1 0x0 SWAP2 DUP3 MSTORE PUSH1 0x20 SWAP1 SWAP2 KECCAK256 ADD SLOAD PUSH1 0x1 PUSH1 0x1 PUSH1 0xA0 SHL SUB AND EQ PUSH2 0xD55 JUMPI PUSH1 0x7 DUP2 PUSH1 0xFF AND DUP2 SLOAD DUP2 LT PUSH2 0xCEB JUMPI PUSH2 0xCEB PUSH2 0x220C JUMP JUMPDEST PUSH1 0x0 SWAP2 DUP3 MSTORE PUSH1 0x20 SWAP1 SWAP2 KECCAK256 ADD SLOAD PUSH1 0x7 DUP1 SLOAD PUSH1 0x1 PUSH1 0x1 PUSH1 0xA0 SHL SUB SWAP1 SWAP3 AND SWAP2 PUSH1 0xFF DUP6 AND SWAP1 DUP2 LT PUSH2 0xD1A JUMPI PUSH2 0xD1A PUSH2 0x220C JUMP JUMPDEST PUSH1 0x0 SWAP2 DUP3 MSTORE PUSH1 0x20 SWAP1 SWAP2 KECCAK256 ADD DUP1 SLOAD PUSH1 0x1 PUSH1 0x1 PUSH1 0xA0 SHL SUB NOT AND PUSH1 0x1 PUSH1 0x1 PUSH1 0xA0 SHL SUB SWAP3 SWAP1 SWAP3 AND SWAP2 SWAP1 SWAP2 OR SWAP1 SSTORE DUP2 PUSH2 0xD4D DUP2 PUSH2 0x21C0 JUMP JUMPDEST SWAP3 POP POP PUSH2 0xE0B JUMP JUMPDEST DUP4 PUSH1 0x1 PUSH1 0x1 PUSH1 0xA0 SHL SUB AND PUSH1 0x7 DUP3 PUSH1 0xFF AND DUP2 SLOAD DUP2 LT PUSH2 0xD75 JUMPI PUSH2 0xD75 PUSH2 0x220C JUMP JUMPDEST PUSH1 0x0 SWAP2 DUP3 MSTORE PUSH1 0x20 SWAP1 SWAP2 KECCAK256 ADD SLOAD PUSH1 0x1 PUSH1 0x1 PUSH1 0xA0 SHL SUB AND EQ ISZERO PUSH2 0xE0B JUMPI PUSH1 0x7 DUP2 PUSH1 0xFF AND DUP2 SLOAD DUP2 LT PUSH2 0xDA6 JUMPI PUSH2 0xDA6 PUSH2 0x220C JUMP JUMPDEST PUSH1 0x0 SWAP2 DUP3 MSTORE PUSH1 0x20 DUP3 KECCAK256 ADD DUP1 SLOAD PUSH1 0x1 PUSH1 0x1 PUSH1 0xA0 SHL SUB NOT AND SWAP1 SSTORE PUSH1 0x7 DUP1 SLOAD PUSH1 0x6 SWAP3 SWAP2 SWAP1 PUSH1 0xFF DUP6 AND SWAP1 DUP2 LT PUSH2 0xDDA JUMPI PUSH2 0xDDA PUSH2 0x220C JUMP JUMPDEST PUSH1 0x0 SWAP2 DUP3 MSTORE PUSH1 0x20 DUP1 DUP4 KECCAK256 SWAP1 SWAP2 ADD SLOAD PUSH1 0x1 PUSH1 0x1 PUSH1 0xA0 SHL SUB AND DUP4 MSTORE DUP3 ADD SWAP3 SWAP1 SWAP3 MSTORE PUSH1 0x40 ADD DUP2 KECCAK256 DUP1 SLOAD PUSH1 0xFF NOT AND DUP2 SSTORE PUSH1 0x1 ADD SSTORE JUMPDEST DUP1 PUSH2 0xE15 DUP2 PUSH2 0x21C0 JUMP JUMPDEST SWAP2 POP POP PUSH2 0xC8E JUMP JUMPDEST POP PUSH1 0x7 DUP1 SLOAD DUP1 PUSH2 0xE2F JUMPI PUSH2 0xE2F PUSH2 0x21F6 JUMP JUMPDEST PUSH1 0x0 DUP3 DUP2 MSTORE PUSH1 0x20 SWAP1 KECCAK256 DUP2 ADD PUSH1 0x0 NOT SWAP1 DUP2 ADD DUP1 SLOAD PUSH1 0x1 PUSH1 0x1 PUSH1 0xA0 SHL SUB NOT AND SWAP1 SSTORE ADD SWAP1 SSTORE PUSH2 0xE59 PUSH2 0x1825 JUMP JUMPDEST PUSH1 0x40 MLOAD PUSH1 0x1 PUSH1 0x1 PUSH1 0xA0 SHL SUB DUP5 AND DUP2 MSTORE PUSH32 0x996AC2D2D3BAE289F37A56CBFA088FB659E7F5B37433A0F06D8E005844D73EB6 SWAP1 PUSH1 0x20 ADD PUSH1 0x40 MLOAD DUP1 SWAP2 SUB SWAP1 LOG1 POP POP POP JUMP JUMPDEST PUSH2 0xEA2 PUSH2 0x16DE JUMP JUMPDEST PUSH2 0xEAA PUSH2 0x173E JUMP JUMPDEST PUSH2 0xEC6 JUMPI PUSH1 0x40 MLOAD PUSH3 0x461BCD PUSH1 0xE5 SHL DUP2 MSTORE PUSH1 0x4 ADD PUSH2 0x5AB SWAP1 PUSH2 0x2012 JUMP JUMPDEST PUSH1 0x1 PUSH1 0x1 PUSH1 0xA0 SHL SUB DUP3 AND PUSH1 0x0 SWAP1 DUP2 MSTORE PUSH1 0x8 PUSH1 0x20 MSTORE PUSH1 0x40 SWAP1 KECCAK256 SLOAD PUSH2 0xEFB JUMPI PUSH1 0x40 MLOAD PUSH3 0x461BCD PUSH1 0xE5 SHL DUP2 MSTORE PUSH1 0x4 ADD PUSH2 0x5AB SWAP1 PUSH2 0x2054 JUMP JUMPDEST DUP1 TIMESTAMP LT PUSH2 0xF61 JUMPI PUSH1 0x40 MLOAD PUSH3 0x461BCD PUSH1 0xE5 SHL DUP2 MSTORE PUSH1 0x20 PUSH1 0x4 DUP3 ADD MSTORE PUSH1 0x2E PUSH1 0x24 DUP3 ADD MSTORE PUSH32 0x45524332303A2043757272656E742074696D6520697320677265617465722074 PUSH1 0x44 DUP3 ADD MSTORE PUSH14 0x68616E2073746172742074696D65 PUSH1 0x90 SHL PUSH1 0x64 DUP3 ADD MSTORE PUSH1 0x84 ADD PUSH2 0x5AB JUMP JUMPDEST PUSH1 0x1 PUSH1 0x1 PUSH1 0xA0 SHL SUB DUP3 AND PUSH1 0x0 DUP2 DUP2 MSTORE PUSH1 0x8 PUSH1 0x20 SWAP1 DUP2 MSTORE PUSH1 0x40 SWAP2 DUP3 SWAP1 KECCAK256 PUSH1 0x1 ADD DUP5 SWAP1 SSTORE DUP2 MLOAD PUSH1 0x2 DUP2 MSTORE SWAP1 DUP2 ADD DUP5 SWAP1 MSTORE PUSH32 0x546881D7B11E2E451D337A9F8C5902323A467B3B333B598942F963B9E67C7D4E SWAP2 ADD PUSH2 0x859 JUMP JUMPDEST PUSH2 0xFC2 DUP3 CALLER DUP4 PUSH2 0x148B JUMP JUMPDEST PUSH2 0x869 DUP3 DUP3 PUSH2 0x19BF JUMP JUMPDEST PUSH1 0x60 PUSH2 0xFD6 PUSH2 0x16DE JUMP JUMPDEST PUSH1 0x9 DUP1 SLOAD DUP1 PUSH1 0x20 MUL PUSH1 0x20 ADD PUSH1 0x40 MLOAD SWAP1 DUP2 ADD PUSH1 0x40 MSTORE DUP1 SWAP3 SWAP2 SWAP1 DUP2 DUP2 MSTORE PUSH1 0x20 ADD DUP3 DUP1 SLOAD DUP1 ISZERO PUSH2 0x4F7 JUMPI PUSH1 0x20 MUL DUP3 ADD SWAP2 SWAP1 PUSH1 0x0 MSTORE PUSH1 0x20 PUSH1 0x0 KECCAK256 SWAP1 JUMPDEST DUP2 SLOAD PUSH1 0x1 PUSH1 0x1 PUSH1 0xA0 SHL SUB AND DUP2 MSTORE PUSH1 0x1 SWAP1 SWAP2 ADD SWAP1 PUSH1 0x20 ADD DUP1 DUP4 GT PUSH2 0x100E JUMPI POP POP POP POP POP SWAP1 POP SWAP1 JUMP JUMPDEST PUSH2 0x103D PUSH2 0x16DE JUMP JUMPDEST PUSH2 0x1045 PUSH2 0x173E JUMP JUMPDEST PUSH2 0x1061 JUMPI PUSH1 0x40 MLOAD PUSH3 0x461BCD PUSH1 0xE5 SHL DUP2 MSTORE PUSH1 0x4 ADD PUSH2 0x5AB SWAP1 PUSH2 0x2012 JUMP JUMPDEST PUSH2 0x8F7 PUSH2 0x1C42 JUMP JUMPDEST PUSH1 0x60 PUSH2 0x1073 PUSH2 0x16DE JUMP JUMPDEST PUSH1 0x7 DUP1 SLOAD DUP1 PUSH1 0x20 MUL PUSH1 0x20 ADD PUSH1 0x40 MLOAD SWAP1 DUP2 ADD PUSH1 0x40 MSTORE DUP1 SWAP3 SWAP2 SWAP1 DUP2 DUP2 MSTORE PUSH1 0x20 ADD DUP3 DUP1 SLOAD DUP1 ISZERO PUSH2 0x4F7 JUMPI PUSH1 0x20 MUL DUP3 ADD SWAP2 SWAP1 PUSH1 0x0 MSTORE PUSH1 0x20 PUSH1 0x0 KECCAK256 SWAP1 DUP2 SLOAD PUSH1 0x1 PUSH1 0x1 PUSH1 0xA0 SHL SUB AND DUP2 MSTORE PUSH1 0x1 SWAP1 SWAP2 ADD SWAP1 PUSH1 0x20 ADD DUP1 DUP4 GT PUSH2 0x100E JUMPI POP POP POP POP POP SWAP1 POP SWAP1 JUMP JUMPDEST PUSH1 0x60 PUSH1 0x4 DUP1 SLOAD PUSH2 0x47E SWAP1 PUSH2 0x2185 JUMP JUMPDEST PUSH1 0x0 CALLER DUP2 PUSH2 0x10EE DUP3 DUP7 PUSH2 0x1169 JUMP JUMPDEST SWAP1 POP DUP4 DUP2 LT ISZERO PUSH2 0x114E JUMPI PUSH1 0x40 MLOAD PUSH3 0x461BCD PUSH1 0xE5 SHL DUP2 MSTORE PUSH1 0x20 PUSH1 0x4 DUP3 ADD MSTORE PUSH1 0x25 PUSH1 0x24 DUP3 ADD MSTORE PUSH32 0x45524332303A2064656372656173656420616C6C6F77616E63652062656C6F77 PUSH1 0x44 DUP3 ADD MSTORE PUSH5 0x207A65726F PUSH1 0xD8 SHL PUSH1 0x64 DUP3 ADD MSTORE PUSH1 0x84 ADD PUSH2 0x5AB JUMP JUMPDEST PUSH2 0x534 DUP3 DUP7 DUP7 DUP5 SUB PUSH2 0x1367 JUMP JUMPDEST PUSH1 0x0 CALLER PUSH2 0x50F DUP2 DUP6 DUP6 PUSH2 0x1505 JUMP JUMPDEST PUSH1 0x1 PUSH1 0x1 PUSH1 0xA0 SHL SUB SWAP2 DUP3 AND PUSH1 0x0 SWAP1 DUP2 MSTORE PUSH1 0x1 PUSH1 0x20 SWAP1 DUP2 MSTORE PUSH1 0x40 DUP1 DUP4 KECCAK256 SWAP4 SWAP1 SWAP5 AND DUP3 MSTORE SWAP2 SWAP1 SWAP2 MSTORE KECCAK256 SLOAD SWAP1 JUMP JUMPDEST PUSH2 0x119C PUSH2 0x16DE JUMP JUMPDEST PUSH2 0x11A4 PUSH2 0x173E JUMP JUMPDEST PUSH2 0x11C0 JUMPI PUSH1 0x40 MLOAD PUSH3 0x461BCD PUSH1 0xE5 SHL DUP2 MSTORE PUSH1 0x4 ADD PUSH2 0x5AB SWAP1 PUSH2 0x2012 JUMP JUMPDEST PUSH2 0x11C9 DUP2 PUSH2 0x1B19 JUMP JUMPDEST ISZERO PUSH2 0x1216 JUMPI PUSH1 0x40 MLOAD PUSH3 0x461BCD PUSH1 0xE5 SHL DUP2 MSTORE PUSH1 0x20 PUSH1 0x4 DUP3 ADD MSTORE PUSH1 0x17 PUSH1 0x24 DUP3 ADD MSTORE PUSH32 0x416C6561647920657869737420636F6E6669726D65722E000000000000000000 PUSH1 0x44 DUP3 ADD MSTORE PUSH1 0x64 ADD PUSH2 0x5AB JUMP JUMPDEST PUSH1 0x7 DUP1 SLOAD PUSH1 0x1 DUP2 ADD DUP3 SSTORE PUSH1 0x0 SWAP2 SWAP1 SWAP2 MSTORE PUSH32 0xA66CC928B5EDB82AF9BD49922954155AB7B0942694BEA4CE44661D9A8736C688 ADD DUP1 SLOAD PUSH1 0x1 PUSH1 0x1 PUSH1 0xA0 SHL SUB NOT AND PUSH1 0x1 PUSH1 0x1 PUSH1 0xA0 SHL SUB DUP4 AND OR SWAP1 SSTORE PUSH2 0x1269 PUSH2 0x1825 JUMP JUMPDEST PUSH1 0x40 MLOAD PUSH1 0x1 PUSH1 0x1 PUSH1 0xA0 SHL SUB DUP3 AND DUP2 MSTORE PUSH32 0x36CDD242BDD95CB0E707DF56299F9F974765EEFB508F6E9165D196E29BD73374 SWAP1 PUSH1 0x20 ADD PUSH2 0xA7D JUMP JUMPDEST CALLER PUSH2 0x12AC DUP2 PUSH2 0x1B19 JUMP JUMPDEST PUSH2 0x12C8 JUMPI PUSH1 0x40 MLOAD PUSH3 0x461BCD PUSH1 0xE5 SHL DUP2 MSTORE PUSH1 0x4 ADD PUSH2 0x5AB SWAP1 PUSH2 0x20C9 JUMP JUMPDEST PUSH2 0x12D0 PUSH2 0x173E JUMP JUMPDEST PUSH2 0x12EC JUMPI PUSH1 0x40 MLOAD PUSH3 0x461BCD PUSH1 0xE5 SHL DUP2 MSTORE PUSH1 0x4 ADD PUSH2 0x5AB SWAP1 PUSH2 0x2012 JUMP JUMPDEST PUSH1 0x1 PUSH1 0x1 PUSH1 0xA0 SHL SUB DUP3 AND PUSH2 0x1351 JUMPI PUSH1 0x40 MLOAD PUSH3 0x461BCD PUSH1 0xE5 SHL DUP2 MSTORE PUSH1 0x20 PUSH1 0x4 DUP3 ADD MSTORE PUSH1 0x26 PUSH1 0x24 DUP3 ADD MSTORE PUSH32 0x4F776E61626C653A206E6577206F776E657220697320746865207A65726F2061 PUSH1 0x44 DUP3 ADD MSTORE PUSH6 0x646472657373 PUSH1 0xD0 SHL PUSH1 0x64 DUP3 ADD MSTORE PUSH1 0x84 ADD PUSH2 0x5AB JUMP JUMPDEST PUSH2 0x135A DUP3 PUSH2 0x1C7F JUMP JUMPDEST PUSH2 0x869 PUSH2 0x1825 JUMP JUMPDEST POP POP POP JUMP JUMPDEST PUSH1 0x1 PUSH1 0x1 PUSH1 0xA0 SHL SUB DUP4 AND PUSH2 0x13C9 JUMPI PUSH1 0x40 MLOAD PUSH3 0x461BCD PUSH1 0xE5 SHL DUP2 MSTORE PUSH1 0x20 PUSH1 0x4 DUP3 ADD MSTORE PUSH1 0x24 DUP1 DUP3 ADD MSTORE PUSH32 0x45524332303A20617070726F76652066726F6D20746865207A65726F20616464 PUSH1 0x44 DUP3 ADD MSTORE PUSH4 0x72657373 PUSH1 0xE0 SHL PUSH1 0x64 DUP3 ADD MSTORE PUSH1 0x84 ADD PUSH2 0x5AB JUMP JUMPDEST PUSH1 0x1 PUSH1 0x1 PUSH1 0xA0 SHL SUB DUP3 AND PUSH2 0x142A JUMPI PUSH1 0x40 MLOAD PUSH3 0x461BCD PUSH1 0xE5 SHL DUP2 MSTORE PUSH1 0x20 PUSH1 0x4 DUP3 ADD MSTORE PUSH1 0x22 PUSH1 0x24 DUP3 ADD MSTORE PUSH32 0x45524332303A20617070726F766520746F20746865207A65726F206164647265 PUSH1 0x44 DUP3 ADD MSTORE PUSH2 0x7373 PUSH1 0xF0 SHL PUSH1 0x64 DUP3 ADD MSTORE PUSH1 0x84 ADD PUSH2 0x5AB JUMP JUMPDEST PUSH1 0x1 PUSH1 0x1 PUSH1 0xA0 SHL SUB DUP4 DUP2 AND PUSH1 0x0 DUP2 DUP2 MSTORE PUSH1 0x1 PUSH1 0x20 SWAP1 DUP2 MSTORE PUSH1 0x40 DUP1 DUP4 KECCAK256 SWAP5 DUP8 AND DUP1 DUP5 MSTORE SWAP5 DUP3 MSTORE SWAP2 DUP3 SWAP1 KECCAK256 DUP6 SWAP1 SSTORE SWAP1 MLOAD DUP5 DUP2 MSTORE PUSH32 0x8C5BE1E5EBEC7D5BD14F71427D1E84F3DD0314C0F7B2291E5B200AC8C7C3B925 SWAP2 ADD PUSH1 0x40 MLOAD DUP1 SWAP2 SUB SWAP1 LOG3 POP POP POP JUMP JUMPDEST PUSH1 0x0 PUSH2 0x1497 DUP5 DUP5 PUSH2 0x1169 JUMP JUMPDEST SWAP1 POP PUSH1 0x0 NOT DUP2 EQ PUSH2 0x14FF JUMPI DUP2 DUP2 LT ISZERO PUSH2 0x14F2 JUMPI PUSH1 0x40 MLOAD PUSH3 0x461BCD PUSH1 0xE5 SHL DUP2 MSTORE PUSH1 0x20 PUSH1 0x4 DUP3 ADD MSTORE PUSH1 0x1D PUSH1 0x24 DUP3 ADD MSTORE PUSH32 0x45524332303A20696E73756666696369656E7420616C6C6F77616E6365000000 PUSH1 0x44 DUP3 ADD MSTORE PUSH1 0x64 ADD PUSH2 0x5AB JUMP JUMPDEST PUSH2 0x14FF DUP5 DUP5 DUP5 DUP5 SUB PUSH2 0x1367 JUMP JUMPDEST POP POP POP POP JUMP JUMPDEST PUSH1 0x1 PUSH1 0x1 PUSH1 0xA0 SHL SUB DUP4 AND PUSH2 0x1569 JUMPI PUSH1 0x40 MLOAD PUSH3 0x461BCD PUSH1 0xE5 SHL DUP2 MSTORE PUSH1 0x20 PUSH1 0x4 DUP3 ADD MSTORE PUSH1 0x25 PUSH1 0x24 DUP3 ADD MSTORE PUSH32 0x45524332303A207472616E736665722066726F6D20746865207A65726F206164 PUSH1 0x44 DUP3 ADD MSTORE PUSH5 0x6472657373 PUSH1 0xD8 SHL PUSH1 0x64 DUP3 ADD MSTORE PUSH1 0x84 ADD PUSH2 0x5AB JUMP JUMPDEST PUSH1 0x1 PUSH1 0x1 PUSH1 0xA0 SHL SUB DUP3 AND PUSH2 0x15CB JUMPI PUSH1 0x40 MLOAD PUSH3 0x461BCD PUSH1 0xE5 SHL DUP2 MSTORE PUSH1 0x20 PUSH1 0x4 DUP3 ADD MSTORE PUSH1 0x23 PUSH1 0x24 DUP3 ADD MSTORE PUSH32 0x45524332303A207472616E7366657220746F20746865207A65726F2061646472 PUSH1 0x44 DUP3 ADD MSTORE PUSH3 0x657373 PUSH1 0xE8 SHL PUSH1 0x64 DUP3 ADD MSTORE PUSH1 0x84 ADD PUSH2 0x5AB JUMP JUMPDEST PUSH2 0x15D6 DUP4 DUP4 DUP4 PUSH2 0x1CD9 JUMP JUMPDEST PUSH1 0x1 PUSH1 0x1 PUSH1 0xA0 SHL SUB DUP4 AND PUSH1 0x0 SWAP1 DUP2 MSTORE PUSH1 0x20 DUP2 SWAP1 MSTORE PUSH1 0x40 SWAP1 KECCAK256 SLOAD DUP2 DUP2 LT ISZERO PUSH2 0x164E JUMPI PUSH1 0x40 MLOAD PUSH3 0x461BCD PUSH1 0xE5 SHL DUP2 MSTORE PUSH1 0x20 PUSH1 0x4 DUP3 ADD MSTORE PUSH1 0x26 PUSH1 0x24 DUP3 ADD MSTORE PUSH32 0x45524332303A207472616E7366657220616D6F756E7420657863656564732062 PUSH1 0x44 DUP3 ADD MSTORE PUSH6 0x616C616E6365 PUSH1 0xD0 SHL PUSH1 0x64 DUP3 ADD MSTORE PUSH1 0x84 ADD PUSH2 0x5AB JUMP JUMPDEST PUSH1 0x1 PUSH1 0x1 PUSH1 0xA0 SHL SUB DUP1 DUP6 AND PUSH1 0x0 SWAP1 DUP2 MSTORE PUSH1 0x20 DUP2 SWAP1 MSTORE PUSH1 0x40 DUP1 DUP3 KECCAK256 DUP6 DUP6 SUB SWAP1 SSTORE SWAP2 DUP6 AND DUP2 MSTORE SWAP1 DUP2 KECCAK256 DUP1 SLOAD DUP5 SWAP3 SWAP1 PUSH2 0x1685 SWAP1 DUP5 SWAP1 PUSH2 0x2115 JUMP JUMPDEST SWAP3 POP POP DUP2 SWAP1 SSTORE POP DUP3 PUSH1 0x1 PUSH1 0x1 PUSH1 0xA0 SHL SUB AND DUP5 PUSH1 0x1 PUSH1 0x1 PUSH1 0xA0 SHL SUB AND PUSH32 0xDDF252AD1BE2C89B69C2B068FC378DAA952BA7F163C4A11628F55A4DF523B3EF DUP5 PUSH1 0x40 MLOAD PUSH2 0x16D1 SWAP2 DUP2 MSTORE PUSH1 0x20 ADD SWAP1 JUMP JUMPDEST PUSH1 0x40 MLOAD DUP1 SWAP2 SUB SWAP1 LOG3 PUSH2 0x14FF JUMP JUMPDEST PUSH1 0x5 SLOAD PUSH1 0x1 PUSH1 0x1 PUSH1 0xA0 SHL SUB PUSH2 0x100 SWAP1 SWAP2 DIV AND CALLER EQ PUSH2 0x8FF JUMPI PUSH1 0x40 MLOAD PUSH3 0x461BCD PUSH1 0xE5 SHL DUP2 MSTORE PUSH1 0x20 PUSH1 0x4 DUP3 ADD DUP2 SWAP1 MSTORE PUSH1 0x24 DUP3 ADD MSTORE PUSH32 0x4F776E61626C653A2063616C6C6572206973206E6F7420746865206F776E6572 PUSH1 0x44 DUP3 ADD MSTORE PUSH1 0x64 ADD PUSH2 0x5AB JUMP JUMPDEST PUSH1 0x0 DUP1 DUP1 JUMPDEST PUSH1 0x7 SLOAD PUSH1 0xFF DUP3 AND LT ISZERO PUSH2 0x1808 JUMPI PUSH1 0x6 PUSH1 0x0 PUSH1 0x7 DUP4 PUSH1 0xFF AND DUP2 SLOAD DUP2 LT PUSH2 0x176A JUMPI PUSH2 0x176A PUSH2 0x220C JUMP JUMPDEST PUSH1 0x0 SWAP2 DUP3 MSTORE PUSH1 0x20 DUP1 DUP4 KECCAK256 SWAP1 SWAP2 ADD SLOAD PUSH1 0x1 PUSH1 0x1 PUSH1 0xA0 SHL SUB AND DUP4 MSTORE DUP3 ADD SWAP3 SWAP1 SWAP3 MSTORE PUSH1 0x40 ADD SWAP1 KECCAK256 SLOAD PUSH1 0xFF AND ISZERO ISZERO PUSH1 0x1 EQ DUP1 ISZERO PUSH2 0x17E3 JUMPI POP TIMESTAMP PUSH1 0x6 PUSH1 0x0 PUSH1 0x7 DUP5 PUSH1 0xFF AND DUP2 SLOAD DUP2 LT PUSH2 0x17B9 JUMPI PUSH2 0x17B9 PUSH2 0x220C JUMP JUMPDEST PUSH1 0x0 SWAP2 DUP3 MSTORE PUSH1 0x20 DUP1 DUP4 KECCAK256 SWAP1 SWAP2 ADD SLOAD PUSH1 0x1 PUSH1 0x1 PUSH1 0xA0 SHL SUB AND DUP4 MSTORE DUP3 ADD SWAP3 SWAP1 SWAP3 MSTORE PUSH1 0x40 ADD SWAP1 KECCAK256 PUSH1 0x1 ADD SLOAD GT JUMPDEST ISZERO PUSH2 0x17F6 JUMPI DUP2 PUSH2 0x17F2 DUP2 PUSH2 0x21C0 JUMP JUMPDEST SWAP3 POP POP JUMPDEST DUP1 PUSH2 0x1800 DUP2 PUSH2 0x21C0 JUMP JUMPDEST SWAP2 POP POP PUSH2 0x1743 JUMP JUMPDEST POP PUSH1 0x1 DUP2 PUSH1 0xFF AND GT ISZERO PUSH2 0x181D JUMPI PUSH1 0x1 SWAP2 POP POP SWAP1 JUMP JUMPDEST PUSH1 0x0 SWAP2 POP POP SWAP1 JUMP JUMPDEST PUSH2 0x182E CALLER PUSH2 0x1B19 JUMP JUMPDEST DUP1 PUSH2 0x185A JUMPI POP PUSH1 0x5 SLOAD PUSH2 0x100 SWAP1 DIV PUSH1 0x1 PUSH1 0x1 PUSH1 0xA0 SHL SUB AND PUSH1 0x1 PUSH1 0x1 PUSH1 0xA0 SHL SUB AND CALLER PUSH1 0x1 PUSH1 0x1 PUSH1 0xA0 SHL SUB AND EQ JUMPDEST PUSH2 0x18B4 JUMPI PUSH1 0x40 MLOAD PUSH3 0x461BCD PUSH1 0xE5 SHL DUP2 MSTORE PUSH1 0x20 PUSH1 0x4 DUP3 ADD MSTORE PUSH1 0x25 PUSH1 0x24 DUP3 ADD MSTORE PUSH32 0x43616C6C6572206973206E6F7420746865206F776E6572206F7220636F6E6669 PUSH1 0x44 DUP3 ADD MSTORE PUSH5 0x3936B2B917 PUSH1 0xD9 SHL PUSH1 0x64 DUP3 ADD MSTORE PUSH1 0x84 ADD PUSH2 0x5AB JUMP JUMPDEST PUSH1 0x0 JUMPDEST PUSH1 0x7 SLOAD PUSH1 0xFF DUP3 AND LT ISZERO PUSH2 0x90B JUMPI PUSH1 0x0 PUSH1 0x6 PUSH1 0x0 PUSH1 0x7 DUP5 PUSH1 0xFF AND DUP2 SLOAD DUP2 LT PUSH2 0x18E0 JUMPI PUSH2 0x18E0 PUSH2 0x220C JUMP JUMPDEST PUSH1 0x0 SWAP2 DUP3 MSTORE PUSH1 0x20 DUP1 DUP4 KECCAK256 SWAP2 SWAP1 SWAP2 ADD SLOAD PUSH1 0x1 PUSH1 0x1 PUSH1 0xA0 SHL SUB AND DUP4 MSTORE DUP3 ADD SWAP3 SWAP1 SWAP3 MSTORE PUSH1 0x40 ADD DUP2 KECCAK256 DUP1 SLOAD PUSH1 0xFF NOT AND SWAP3 ISZERO ISZERO SWAP3 SWAP1 SWAP3 OR SWAP1 SWAP2 SSTORE PUSH1 0x7 DUP1 SLOAD TIMESTAMP SWAP3 PUSH1 0x6 SWAP3 SWAP1 SWAP2 PUSH1 0xFF DUP7 AND SWAP1 DUP2 LT PUSH2 0x1933 JUMPI PUSH2 0x1933 PUSH2 0x220C JUMP JUMPDEST PUSH1 0x0 SWAP2 DUP3 MSTORE PUSH1 0x20 DUP1 DUP4 KECCAK256 SWAP1 SWAP2 ADD SLOAD PUSH1 0x1 PUSH1 0x1 PUSH1 0xA0 SHL SUB AND DUP4 MSTORE DUP3 ADD SWAP3 SWAP1 SWAP3 MSTORE PUSH1 0x40 ADD SWAP1 KECCAK256 PUSH1 0x1 ADD SSTORE DUP1 PUSH2 0x1965 DUP2 PUSH2 0x21C0 JUMP JUMPDEST SWAP2 POP POP PUSH2 0x18B7 JUMP JUMPDEST PUSH2 0x1975 PUSH2 0x1D31 JUMP JUMPDEST PUSH1 0x5 DUP1 SLOAD PUSH1 0xFF NOT AND SWAP1 SSTORE PUSH32 0x5DB9EE0A495BF2E6FF9C91A7834C1BA4FDD244A5E8AA4E537BD38AEAE4B073AA CALLER JUMPDEST PUSH1 0x40 MLOAD PUSH1 0x1 PUSH1 0x1 PUSH1 0xA0 SHL SUB SWAP1 SWAP2 AND DUP2 MSTORE PUSH1 0x20 ADD PUSH1 0x40 MLOAD DUP1 SWAP2 SUB SWAP1 LOG1 JUMP JUMPDEST PUSH1 0x1 PUSH1 0x1 PUSH1 0xA0 SHL SUB DUP3 AND PUSH2 0x1A1F JUMPI PUSH1 0x40 MLOAD PUSH3 0x461BCD PUSH1 0xE5 SHL DUP2 MSTORE PUSH1 0x20 PUSH1 0x4 DUP3 ADD MSTORE PUSH1 0x21 PUSH1 0x24 DUP3 ADD MSTORE PUSH32 0x45524332303A206275726E2066726F6D20746865207A65726F20616464726573 PUSH1 0x44 DUP3 ADD MSTORE PUSH1 0x73 PUSH1 0xF8 SHL PUSH1 0x64 DUP3 ADD MSTORE PUSH1 0x84 ADD PUSH2 0x5AB JUMP JUMPDEST PUSH2 0x1A2B DUP3 PUSH1 0x0 DUP4 PUSH2 0x1CD9 JUMP JUMPDEST PUSH1 0x1 PUSH1 0x1 PUSH1 0xA0 SHL SUB DUP3 AND PUSH1 0x0 SWAP1 DUP2 MSTORE PUSH1 0x20 DUP2 SWAP1 MSTORE PUSH1 0x40 SWAP1 KECCAK256 SLOAD DUP2 DUP2 LT ISZERO PUSH2 0x1A9F JUMPI PUSH1 0x40 MLOAD PUSH3 0x461BCD PUSH1 0xE5 SHL DUP2 MSTORE PUSH1 0x20 PUSH1 0x4 DUP3 ADD MSTORE PUSH1 0x22 PUSH1 0x24 DUP3 ADD MSTORE PUSH32 0x45524332303A206275726E20616D6F756E7420657863656564732062616C616E PUSH1 0x44 DUP3 ADD MSTORE PUSH2 0x6365 PUSH1 0xF0 SHL PUSH1 0x64 DUP3 ADD MSTORE PUSH1 0x84 ADD PUSH2 0x5AB JUMP JUMPDEST PUSH1 0x1 PUSH1 0x1 PUSH1 0xA0 SHL SUB DUP4 AND PUSH1 0x0 SWAP1 DUP2 MSTORE PUSH1 0x20 DUP2 SWAP1 MSTORE PUSH1 0x40 DUP2 KECCAK256 DUP4 DUP4 SUB SWAP1 SSTORE PUSH1 0x2 DUP1 SLOAD DUP5 SWAP3 SWAP1 PUSH2 0x1ACE SWAP1 DUP5 SWAP1 PUSH2 0x216E JUMP JUMPDEST SWAP1 SWAP2 SSTORE POP POP PUSH1 0x40 MLOAD DUP3 DUP2 MSTORE PUSH1 0x0 SWAP1 PUSH1 0x1 PUSH1 0x1 PUSH1 0xA0 SHL SUB DUP6 AND SWAP1 PUSH32 0xDDF252AD1BE2C89B69C2B068FC378DAA952BA7F163C4A11628F55A4DF523B3EF SWAP1 PUSH1 0x20 ADD PUSH1 0x40 MLOAD DUP1 SWAP2 SUB SWAP1 LOG3 POP POP POP JUMP JUMPDEST PUSH1 0x0 DUP1 JUMPDEST PUSH1 0x7 SLOAD PUSH1 0xFF DUP3 AND LT ISZERO PUSH2 0x1B80 JUMPI DUP3 PUSH1 0x1 PUSH1 0x1 PUSH1 0xA0 SHL SUB AND PUSH1 0x7 DUP3 PUSH1 0xFF AND DUP2 SLOAD DUP2 LT PUSH2 0x1B4A JUMPI PUSH2 0x1B4A PUSH2 0x220C JUMP JUMPDEST PUSH1 0x0 SWAP2 DUP3 MSTORE PUSH1 0x20 SWAP1 SWAP2 KECCAK256 ADD SLOAD PUSH1 0x1 PUSH1 0x1 PUSH1 0xA0 SHL SUB AND EQ ISZERO PUSH2 0x1B6E JUMPI POP PUSH1 0x1 SWAP3 SWAP2 POP POP JUMP JUMPDEST DUP1 PUSH2 0x1B78 DUP2 PUSH2 0x21C0 JUMP JUMPDEST SWAP2 POP POP PUSH2 0x1B1D JUMP JUMPDEST POP PUSH1 0x0 SWAP3 SWAP2 POP POP JUMP JUMPDEST PUSH2 0x1B91 PUSH2 0x16DE JUMP JUMPDEST PUSH2 0x8FF PUSH1 0x0 PUSH2 0x1C7F JUMP JUMPDEST PUSH1 0x1 PUSH1 0x1 PUSH1 0xA0 SHL SUB DUP3 AND PUSH1 0x0 SWAP1 DUP2 MSTORE PUSH1 0x8 PUSH1 0x20 MSTORE PUSH1 0x40 DUP2 KECCAK256 DUP1 SLOAD PUSH1 0x1 DUP3 ADD SLOAD PUSH1 0x2 SWAP1 SWAP3 ADD SLOAD SWAP1 SWAP2 SWAP1 DUP2 DUP6 LT ISZERO PUSH2 0x1BD7 JUMPI PUSH1 0x0 SWAP4 POP POP POP POP PUSH2 0x515 JUMP JUMPDEST PUSH1 0x0 PUSH2 0x1BE3 DUP4 DUP8 PUSH2 0x216E JUMP JUMPDEST SWAP1 POP PUSH1 0x0 PUSH2 0x1BF4 PUSH3 0x278D00 DUP4 PUSH2 0x212D JUMP JUMPDEST SWAP1 POP DUP1 DUP4 GT PUSH2 0x1C0A JUMPI DUP5 SWAP6 POP POP POP POP POP POP PUSH2 0x515 JUMP JUMPDEST PUSH1 0x1 DUP2 LT ISZERO PUSH2 0x1C21 JUMPI PUSH1 0x0 SWAP6 POP POP POP POP POP POP PUSH2 0x515 JUMP JUMPDEST DUP3 PUSH2 0x1C2C DUP3 DUP8 PUSH2 0x214F JUMP JUMPDEST PUSH2 0x1C36 SWAP2 SWAP1 PUSH2 0x212D JUMP JUMPDEST SWAP6 POP POP POP POP POP POP PUSH2 0x515 JUMP JUMPDEST PUSH2 0x1C4A PUSH2 0x1D7A JUMP JUMPDEST PUSH1 0x5 DUP1 SLOAD PUSH1 0xFF NOT AND PUSH1 0x1 OR SWAP1 SSTORE PUSH32 0x62E78CEA01BEE320CD4E420270B5EA74000D11B0C9F74754EBDBFC544B05A258 PUSH2 0x19A2 CALLER SWAP1 JUMP JUMPDEST PUSH1 0x5 DUP1 SLOAD PUSH1 0x1 PUSH1 0x1 PUSH1 0xA0 SHL SUB DUP4 DUP2 AND PUSH2 0x100 DUP2 DUP2 MUL PUSH2 0x100 PUSH1 0x1 PUSH1 0xA8 SHL SUB NOT DUP6 AND OR SWAP1 SWAP5 SSTORE PUSH1 0x40 MLOAD SWAP4 SWAP1 SWAP3 DIV AND SWAP2 DUP3 SWAP1 PUSH32 0x8BE0079C531659141344CD1FD0A4F28419497F9722A3DAAFE3B4186F6B6457E0 SWAP1 PUSH1 0x0 SWAP1 LOG3 POP POP JUMP JUMPDEST PUSH2 0x1CE1 PUSH2 0x1D7A JUMP JUMPDEST PUSH2 0x1CEB DUP4 DUP3 PUSH2 0x1DC0 JUMP JUMPDEST ISZERO PUSH2 0x1362 JUMPI PUSH1 0x40 MLOAD PUSH3 0x461BCD PUSH1 0xE5 SHL DUP2 MSTORE PUSH1 0x20 PUSH1 0x4 DUP3 ADD MSTORE PUSH1 0x16 PUSH1 0x24 DUP3 ADD MSTORE PUSH22 0x22A92199181D102637B1B5B2B2103130B630B731B297 PUSH1 0x51 SHL PUSH1 0x44 DUP3 ADD MSTORE PUSH1 0x64 ADD PUSH2 0x5AB JUMP JUMPDEST PUSH1 0x5 SLOAD PUSH1 0xFF AND PUSH2 0x8FF JUMPI PUSH1 0x40 MLOAD PUSH3 0x461BCD PUSH1 0xE5 SHL DUP2 MSTORE PUSH1 0x20 PUSH1 0x4 DUP3 ADD MSTORE PUSH1 0x14 PUSH1 0x24 DUP3 ADD MSTORE PUSH20 0x14185D5CD8589B194E881B9BDD081C185D5CD959 PUSH1 0x62 SHL PUSH1 0x44 DUP3 ADD MSTORE PUSH1 0x64 ADD PUSH2 0x5AB JUMP JUMPDEST PUSH1 0x5 SLOAD PUSH1 0xFF AND ISZERO PUSH2 0x8FF JUMPI PUSH1 0x40 MLOAD PUSH3 0x461BCD PUSH1 0xE5 SHL DUP2 MSTORE PUSH1 0x20 PUSH1 0x4 DUP3 ADD MSTORE PUSH1 0x10 PUSH1 0x24 DUP3 ADD MSTORE PUSH16 0x14185D5CD8589B194E881C185D5CD959 PUSH1 0x82 SHL PUSH1 0x44 DUP3 ADD MSTORE PUSH1 0x64 ADD PUSH2 0x5AB JUMP JUMPDEST PUSH1 0x1 PUSH1 0x1 PUSH1 0xA0 SHL SUB DUP3 AND PUSH1 0x0 SWAP1 DUP2 MSTORE PUSH1 0x8 PUSH1 0x20 MSTORE PUSH1 0x40 DUP2 KECCAK256 SLOAD ISZERO PUSH2 0x1E3F JUMPI PUSH1 0x0 PUSH2 0x1DEA DUP5 TIMESTAMP PUSH2 0x1B9B JUMP JUMPDEST PUSH1 0x1 PUSH1 0x1 PUSH1 0xA0 SHL SUB DUP6 AND PUSH1 0x0 SWAP1 DUP2 MSTORE PUSH1 0x8 PUSH1 0x20 MSTORE PUSH1 0x40 SWAP1 KECCAK256 SLOAD SWAP1 SWAP2 POP DUP4 SWAP1 PUSH2 0x1E13 SWAP1 DUP4 SWAP1 PUSH2 0x216E JUMP JUMPDEST PUSH1 0x1 PUSH1 0x1 PUSH1 0xA0 SHL SUB DUP7 AND PUSH1 0x0 SWAP1 DUP2 MSTORE PUSH1 0x20 DUP2 SWAP1 MSTORE PUSH1 0x40 SWAP1 KECCAK256 SLOAD PUSH2 0x1E36 SWAP2 SWAP1 PUSH2 0x216E JUMP JUMPDEST LT SWAP2 POP POP PUSH2 0x515 JUMP JUMPDEST POP PUSH1 0x0 PUSH2 0x515 JUMP JUMPDEST DUP1 CALLDATALOAD PUSH1 0x1 PUSH1 0x1 PUSH1 0xA0 SHL SUB DUP2 AND DUP2 EQ PUSH2 0x1E5E JUMPI PUSH1 0x0 DUP1 REVERT JUMPDEST SWAP2 SWAP1 POP JUMP JUMPDEST PUSH1 0x0 PUSH1 0x20 DUP3 DUP5 SUB SLT ISZERO PUSH2 0x1E75 JUMPI PUSH1 0x0 DUP1 REVERT JUMPDEST PUSH2 0x1E7E DUP3 PUSH2 0x1E47 JUMP JUMPDEST SWAP4 SWAP3 POP POP POP JUMP JUMPDEST PUSH1 0x0 DUP1 PUSH1 0x40 DUP4 DUP6 SUB SLT ISZERO PUSH2 0x1E98 JUMPI PUSH1 0x0 DUP1 REVERT JUMPDEST PUSH2 0x1EA1 DUP4 PUSH2 0x1E47 JUMP JUMPDEST SWAP2 POP PUSH2 0x1EAF PUSH1 0x20 DUP5 ADD PUSH2 0x1E47 JUMP JUMPDEST SWAP1 POP SWAP3 POP SWAP3 SWAP1 POP JUMP JUMPDEST PUSH1 0x0 DUP1 PUSH1 0x0 PUSH1 0x60 DUP5 DUP7 SUB SLT ISZERO PUSH2 0x1ECD JUMPI PUSH1 0x0 DUP1 REVERT JUMPDEST PUSH2 0x1ED6 DUP5 PUSH2 0x1E47 JUMP JUMPDEST SWAP3 POP PUSH2 0x1EE4 PUSH1 0x20 DUP6 ADD PUSH2 0x1E47 JUMP JUMPDEST SWAP2 POP PUSH1 0x40 DUP5 ADD CALLDATALOAD SWAP1 POP SWAP3 POP SWAP3 POP SWAP3 JUMP JUMPDEST PUSH1 0x0 DUP1 PUSH1 0x40 DUP4 DUP6 SUB SLT ISZERO PUSH2 0x1F07 JUMPI PUSH1 0x0 DUP1 REVERT JUMPDEST PUSH2 0x1F10 DUP4 PUSH2 0x1E47 JUMP JUMPDEST SWAP5 PUSH1 0x20 SWAP4 SWAP1 SWAP4 ADD CALLDATALOAD SWAP4 POP POP POP JUMP JUMPDEST PUSH1 0x0 DUP1 PUSH1 0x0 DUP1 PUSH1 0x80 DUP6 DUP8 SUB SLT ISZERO PUSH2 0x1F34 JUMPI PUSH1 0x0 DUP1 REVERT JUMPDEST PUSH2 0x1F3D DUP6 PUSH2 0x1E47 JUMP JUMPDEST SWAP7 PUSH1 0x20 DUP7 ADD CALLDATALOAD SWAP7 POP PUSH1 0x40 DUP7 ADD CALLDATALOAD SWAP6 PUSH1 0x60 ADD CALLDATALOAD SWAP5 POP SWAP3 POP POP POP JUMP JUMPDEST PUSH1 0x0 PUSH1 0x20 DUP3 DUP5 SUB SLT ISZERO PUSH2 0x1F69 JUMPI PUSH1 0x0 DUP1 REVERT JUMPDEST POP CALLDATALOAD SWAP2 SWAP1 POP JUMP JUMPDEST PUSH1 0x20 DUP1 DUP3 MSTORE DUP3 MLOAD DUP3 DUP3 ADD DUP2 SWAP1 MSTORE PUSH1 0x0 SWAP2 SWAP1 DUP5 DUP3 ADD SWAP1 PUSH1 0x40 DUP6 ADD SWAP1 DUP5 JUMPDEST DUP2 DUP2 LT ISZERO PUSH2 0x1FB1 JUMPI DUP4 MLOAD PUSH1 0x1 PUSH1 0x1 PUSH1 0xA0 SHL SUB AND DUP4 MSTORE SWAP3 DUP5 ADD SWAP3 SWAP2 DUP5 ADD SWAP2 PUSH1 0x1 ADD PUSH2 0x1F8C JUMP JUMPDEST POP SWAP1 SWAP7 SWAP6 POP POP POP POP POP POP JUMP JUMPDEST PUSH1 0x0 PUSH1 0x20 DUP1 DUP4 MSTORE DUP4 MLOAD DUP1 DUP3 DUP6 ADD MSTORE PUSH1 0x0 JUMPDEST DUP2 DUP2 LT ISZERO PUSH2 0x1FEA JUMPI DUP6 DUP2 ADD DUP4 ADD MLOAD DUP6 DUP3 ADD PUSH1 0x40 ADD MSTORE DUP3 ADD PUSH2 0x1FCE JUMP JUMPDEST DUP2 DUP2 GT ISZERO PUSH2 0x1FFC JUMPI PUSH1 0x0 PUSH1 0x40 DUP4 DUP8 ADD ADD MSTORE JUMPDEST POP PUSH1 0x1F ADD PUSH1 0x1F NOT AND SWAP3 SWAP1 SWAP3 ADD PUSH1 0x40 ADD SWAP4 SWAP3 POP POP POP JUMP JUMPDEST PUSH1 0x20 DUP1 DUP3 MSTORE PUSH1 0x22 SWAP1 DUP3 ADD MSTORE PUSH32 0x496E73756666696369656E7420657865637574696F6E20636F6E646974696F6E PUSH1 0x40 DUP3 ADD MSTORE PUSH2 0x3997 PUSH1 0xF1 SHL PUSH1 0x60 DUP3 ADD MSTORE PUSH1 0x80 ADD SWAP1 JUMP JUMPDEST PUSH1 0x20 DUP1 DUP3 MSTORE PUSH1 0x14 SWAP1 DUP3 ADD MSTORE PUSH20 0x2737BA1032BC34B9BA103637B1B59034B7333797 PUSH1 0x61 SHL PUSH1 0x40 DUP3 ADD MSTORE PUSH1 0x60 ADD SWAP1 JUMP JUMPDEST PUSH1 0x20 DUP1 DUP3 MSTORE PUSH1 0x27 SWAP1 DUP3 ADD MSTORE PUSH32 0x45524332303A2052656C656173654D6F6E746873206973206772656174657220 PUSH1 0x40 DUP3 ADD MSTORE PUSH7 0x3A3430B7101817 PUSH1 0xC9 SHL PUSH1 0x60 DUP3 ADD MSTORE PUSH1 0x80 ADD SWAP1 JUMP JUMPDEST PUSH1 0x20 DUP1 DUP3 MSTORE PUSH1 0x2C SWAP1 DUP3 ADD MSTORE PUSH32 0x546869732061646472657373206F722063616C6C6572206973206E6F74207468 PUSH1 0x40 DUP3 ADD MSTORE PUSH12 0x329031B7B73334B936B2B917 PUSH1 0xA1 SHL PUSH1 0x60 DUP3 ADD MSTORE PUSH1 0x80 ADD SWAP1 JUMP JUMPDEST PUSH1 0x0 DUP3 NOT DUP3 GT ISZERO PUSH2 0x2128 JUMPI PUSH2 0x2128 PUSH2 0x21E0 JUMP JUMPDEST POP ADD SWAP1 JUMP JUMPDEST PUSH1 0x0 DUP3 PUSH2 0x214A JUMPI PUSH4 0x4E487B71 PUSH1 0xE0 SHL PUSH1 0x0 MSTORE PUSH1 0x12 PUSH1 0x4 MSTORE PUSH1 0x24 PUSH1 0x0 REVERT JUMPDEST POP DIV SWAP1 JUMP JUMPDEST PUSH1 0x0 DUP2 PUSH1 0x0 NOT DIV DUP4 GT DUP3 ISZERO ISZERO AND ISZERO PUSH2 0x2169 JUMPI PUSH2 0x2169 PUSH2 0x21E0 JUMP JUMPDEST POP MUL SWAP1 JUMP JUMPDEST PUSH1 0x0 DUP3 DUP3 LT ISZERO PUSH2 0x2180 JUMPI PUSH2 0x2180 PUSH2 0x21E0 JUMP JUMPDEST POP SUB SWAP1 JUMP JUMPDEST PUSH1 0x1 DUP2 DUP2 SHR SWAP1 DUP3 AND DUP1 PUSH2 0x2199 JUMPI PUSH1 0x7F DUP3 AND SWAP2 POP JUMPDEST PUSH1 0x20 DUP3 LT DUP2 EQ ISZERO PUSH2 0x21BA JUMPI PUSH4 0x4E487B71 PUSH1 0xE0 SHL PUSH1 0x0 MSTORE PUSH1 0x22 PUSH1 0x4 MSTORE PUSH1 0x24 PUSH1 0x0 REVERT JUMPDEST POP SWAP2 SWAP1 POP JUMP JUMPDEST PUSH1 0x0 PUSH1 0xFF DUP3 AND PUSH1 0xFF DUP2 EQ ISZERO PUSH2 0x21D7 JUMPI PUSH2 0x21D7 PUSH2 0x21E0 JUMP JUMPDEST PUSH1 0x1 ADD SWAP3 SWAP2 POP POP JUMP JUMPDEST PUSH4 0x4E487B71 PUSH1 0xE0 SHL PUSH1 0x0 MSTORE PUSH1 0x11 PUSH1 0x4 MSTORE PUSH1 0x24 PUSH1 0x0 REVERT JUMPDEST PUSH4 0x4E487B71 PUSH1 0xE0 SHL PUSH1 0x0 MSTORE PUSH1 0x31 PUSH1 0x4 MSTORE PUSH1 0x24 PUSH1 0x0 REVERT JUMPDEST PUSH4 0x4E487B71 PUSH1 0xE0 SHL PUSH1 0x0 MSTORE PUSH1 0x32 PUSH1 0x4 MSTORE PUSH1 0x24 PUSH1 0x0 REVERT INVALID LOG2 PUSH5 0x6970667358 0x22 SLT KECCAK256 DUP7 PUSH25 0x7EC20083DE951D4091E7DA8C47AFEB558610794BE4AFDCC0B5 SUB SWAP16 MSTORE8 0xCA 0xB6 PUSH5 0x736F6C6343 STOP ADDMOD SMOD STOP CALLER "},"methodIdentifiers":{"_confirmers(uint256)":"74db7662","addConfirmer(address)":"ef9f3574","allowance(address,address)":"dd62ed3e","approve(address,uint256)":"095ea7b3","balanceOf(address)":"70a08231","burn(uint256)":"42966c68","burnFrom(address,uint256)":"79cc6790","decimals()":"313ce567","decreaseAllowance(address,uint256)":"a457c2d7","getConfirmed(address)":"3c97a9c5","getConfirmer()":"92e27a08","getLockInfo(address)":"7238ccdb","getLockWallets()":"83df4f37","increaseAllowance(address,uint256)":"39509351","name()":"06fdde03","owner()":"8da5cb5b","pause()":"8456cb59","paused()":"5c975abb","removeConfirmer(address)":"75d966e9","renounceOwnership()":"715018a6","setLock(address,uint256,uint256,uint256)":"24a7039d","setLockAmount(address,uint256)":"3873d475","setLockReleaseMonths(address,uint256)":"5c383ea0","setLockStartTime(address,uint256)":"76b57027","symbol()":"95d89b41","toConfirm()":"6884461a","totalSupply()":"18160ddd","transfer(address,uint256)":"a9059cbb","transferFrom(address,address,uint256)":"23b872dd","transferOwnership(address)":"f2fde38b","unpause()":"3f4ba83a"}},"storageLayout":{"storage":[{"astId":3212,"contract":"contracts/Conuts.sol:CONUTToken","label":"_balances","offset":0,"slot":"0","type":"t_mapping(t_address,t_uint256)"},{"astId":3218,"contract":"contracts/Conuts.sol:CONUTToken","label":"_allowances","offset":0,"slot":"1","type":"t_mapping(t_address,t_mapping(t_address,t_uint256))"},{"astId":3220,"contract":"contracts/Conuts.sol:CONUTToken","label":"_totalSupply","offset":0,"slot":"2","type":"t_uint256"},{"astId":3222,"contract":"contracts/Conuts.sol:CONUTToken","label":"_name","offset":0,"slot":"3","type":"t_string_storage"},{"astId":3224,"contract":"contracts/Conuts.sol:CONUTToken","label":"_symbol","offset":0,"slot":"4","type":"t_string_storage"},{"astId":3010,"contract":"contracts/Conuts.sol:CONUTToken","label":"_paused","offset":0,"slot":"5","type":"t_bool"},{"astId":2508,"contract":"contracts/Conuts.sol:CONUTToken","label":"_owner","offset":1,"slot":"5","type":"t_address"},{"astId":2640,"contract":"contracts/Conuts.sol:CONUTToken","label":"_confirmInfos","offset":0,"slot":"6","type":"t_mapping(t_address,t_struct(ConfirmInfo)2635_storage)"},{"astId":2643,"contract":"contracts/Conuts.sol:CONUTToken","label":"_confirmers","offset":0,"slot":"7","type":"t_array(t_address)dyn_storage"},{"astId":3864,"contract":"contracts/Conuts.sol:CONUTToken","label":"_lockInfos","offset":0,"slot":"8","type":"t_mapping(t_address,t_struct(LockInfo)3859_storage)"},{"astId":3867,"contract":"contracts/Conuts.sol:CONUTToken","label":"_lockedWallets","offset":0,"slot":"9","type":"t_array(t_address)dyn_storage"}],"types":{"t_address":{"encoding":"inplace","label":"address","numberOfBytes":"20"},"t_array(t_address)dyn_storage":{"base":"t_address","encoding":"dynamic_array","label":"address[]","numberOfBytes":"32"},"t_bool":{"encoding":"inplace","label":"bool","numberOfBytes":"1"},"t_mapping(t_address,t_mapping(t_address,t_uint256))":{"encoding":"mapping","key":"t_address","label":"mapping(address => mapping(address => uint256))","numberOfBytes":"32","value":"t_mapping(t_address,t_uint256)"},"t_mapping(t_address,t_struct(ConfirmInfo)2635_storage)":{"encoding":"mapping","key":"t_address","label":"mapping(address => struct Confirmer.ConfirmInfo)","numberOfBytes":"32","value":"t_struct(ConfirmInfo)2635_storage"},"t_mapping(t_address,t_struct(LockInfo)3859_storage)":{"encoding":"mapping","key":"t_address","label":"mapping(address => struct CONUTToken.LockInfo)","numberOfBytes":"32","value":"t_struct(LockInfo)3859_storage"},"t_mapping(t_address,t_uint256)":{"encoding":"mapping","key":"t_address","label":"mapping(address => uint256)","numberOfBytes":"32","value":"t_uint256"},"t_string_storage":{"encoding":"bytes","label":"string","numberOfBytes":"32"},"t_struct(ConfirmInfo)2635_storage":{"encoding":"inplace","label":"struct Confirmer.ConfirmInfo","members":[{"astId":2632,"contract":"contracts/Conuts.sol:CONUTToken","label":"confirmed","offset":0,"slot":"0","type":"t_bool"},{"astId":2634,"contract":"contracts/Conuts.sol:CONUTToken","label":"validTime","offset":0,"slot":"1","type":"t_uint256"}],"numberOfBytes":"64"},"t_struct(LockInfo)3859_storage":{"encoding":"inplace","label":"struct CONUTToken.LockInfo","members":[{"astId":3854,"contract":"contracts/Conuts.sol:CONUTToken","label":"amount","offset":0,"slot":"0","type":"t_uint256"},{"astId":3856,"contract":"contracts/Conuts.sol:CONUTToken","label":"startTime","offset":0,"slot":"1","type":"t_uint256"},{"astId":3858,"contract":"contracts/Conuts.sol:CONUTToken","label":"releaseMonths","offset":0,"slot":"2","type":"t_uint256"}],"numberOfBytes":"96"},"t_uint256":{"encoding":"inplace","label":"uint256","numberOfBytes":"32"}}}}}}