{
  "_format": "hh-sol-artifact-1",
  "contractName": "CONUTToken",
  "sourceName": "contracts/Conuts.sol",
  "abi": [
    {
      "inputs": [],
      "stateMutability": "nonpayable",
      "type": "constructor"
    },
    {
      "anonymous": false,
      "inputs": [
        {
          "indexed": false,
          "internalType": "address",
          "name": "account",
          "type": "address"
        }
      ],
      "name": "AddConfirmer",
      "type": "event"
    },
    {
      "anonymous": false,
      "inputs": [
        {
          "indexed": true,
          "internalType": "address",
          "name": "owner",
          "type": "address"
        },
        {
          "indexed": true,
          "internalType": "address",
          "name": "spender",
          "type": "address"
        },
        {
          "indexed": false,
          "internalType": "uint256",
          "name": "value",
          "type": "uint256"
        }
      ],
      "name": "Approval",
      "type": "event"
    },
    {
      "anonymous": false,
      "inputs": [
        {
          "indexed": false,
          "internalType": "address",
          "name": "account",
          "type": "address"
        },
        {
          "indexed": false,
          "internalType": "uint256",
          "name": "confirmedTime",
          "type": "uint256"
        }
      ],
      "name": "Confirmed",
      "type": "event"
    },
    {
      "anonymous": false,
      "inputs": [
        {
          "indexed": true,
          "internalType": "address",
          "name": "previousOwner",
          "type": "address"
        },
        {
          "indexed": true,
          "internalType": "address",
          "name": "newOwner",
          "type": "address"
        }
      ],
      "name": "OwnershipTransferred",
      "type": "event"
    },
    {
      "anonymous": false,
      "inputs": [
        {
          "indexed": false,
          "internalType": "address",
          "name": "account",
          "type": "address"
        }
      ],
      "name": "Paused",
      "type": "event"
    },
    {
      "anonymous": false,
      "inputs": [
        {
          "indexed": false,
          "internalType": "address",
          "name": "account",
          "type": "address"
        }
      ],
      "name": "RemoveConfirmer",
      "type": "event"
    },
    {
      "anonymous": false,
      "inputs": [
        {
          "indexed": true,
          "internalType": "address",
          "name": "account",
          "type": "address"
        },
        {
          "indexed": false,
          "internalType": "uint256",
          "name": "amount",
          "type": "uint256"
        },
        {
          "indexed": false,
          "internalType": "uint256",
          "name": "startTime",
          "type": "uint256"
        },
        {
          "indexed": false,
          "internalType": "uint256",
          "name": "releaseMonths",
          "type": "uint256"
        }
      ],
      "name": "TimeLock",
      "type": "event"
    },
    {
      "anonymous": false,
      "inputs": [
        {
          "indexed": true,
          "internalType": "address",
          "name": "account",
          "type": "address"
        },
        {
          "indexed": false,
          "internalType": "uint256",
          "name": "valueIndex",
          "type": "uint256"
        },
        {
          "indexed": false,
          "internalType": "uint256",
          "name": "value",
          "type": "uint256"
        }
      ],
      "name": "TimeLockUpdate",
      "type": "event"
    },
    {
      "anonymous": false,
      "inputs": [
        {
          "indexed": true,
          "internalType": "address",
          "name": "from",
          "type": "address"
        },
        {
          "indexed": true,
          "internalType": "address",
          "name": "to",
          "type": "address"
        },
        {
          "indexed": false,
          "internalType": "uint256",
          "name": "value",
          "type": "uint256"
        }
      ],
      "name": "Transfer",
      "type": "event"
    },
    {
      "anonymous": false,
      "inputs": [
        {
          "indexed": false,
          "internalType": "address",
          "name": "account",
          "type": "address"
        }
      ],
      "name": "Unpaused",
      "type": "event"
    },
    {
      "inputs": [
        {
          "internalType": "uint256",
          "name": "",
          "type": "uint256"
        }
      ],
      "name": "_confirmers",
      "outputs": [
        {
          "internalType": "address",
          "name": "",
          "type": "address"
        }
      ],
      "stateMutability": "view",
      "type": "function"
    },
    {
      "inputs": [
        {
          "internalType": "address",
          "name": "walletAddress",
          "type": "address"
        }
      ],
      "name": "addConfirmer",
      "outputs": [],
      "stateMutability": "nonpayable",
      "type": "function"
    },
    {
      "inputs": [
        {
          "internalType": "address",
          "name": "owner",
          "type": "address"
        },
        {
          "internalType": "address",
          "name": "spender",
          "type": "address"
        }
      ],
      "name": "allowance",
      "outputs": [
        {
          "internalType": "uint256",
          "name": "",
          "type": "uint256"
        }
      ],
      "stateMutability": "view",
      "type": "function"
    },
    {
      "inputs": [
        {
          "internalType": "address",
          "name": "spender",
          "type": "address"
        },
        {
          "internalType": "uint256",
          "name": "amount",
          "type": "uint256"
        }
      ],
      "name": "approve",
      "outputs": [
        {
          "internalType": "bool",
          "name": "",
          "type": "bool"
        }
      ],
      "stateMutability": "nonpayable",
      "type": "function"
    },
    {
      "inputs": [
        {
          "internalType": "address",
          "name": "account",
          "type": "address"
        }
      ],
      "name": "balanceOf",
      "outputs": [
        {
          "internalType": "uint256",
          "name": "",
          "type": "uint256"
        }
      ],
      "stateMutability": "view",
      "type": "function"
    },
    {
      "inputs": [
        {
          "internalType": "uint256",
          "name": "amount",
          "type": "uint256"
        }
      ],
      "name": "burn",
      "outputs": [],
      "stateMutability": "nonpayable",
      "type": "function"
    },
    {
      "inputs": [
        {
          "internalType": "address",
          "name": "account",
          "type": "address"
        },
        {
          "internalType": "uint256",
          "name": "amount",
          "type": "uint256"
        }
      ],
      "name": "burnFrom",
      "outputs": [],
      "stateMutability": "nonpayable",
      "type": "function"
    },
    {
      "inputs": [],
      "name": "decimals",
      "outputs": [
        {
          "internalType": "uint8",
          "name": "",
          "type": "uint8"
        }
      ],
      "stateMutability": "view",
      "type": "function"
    },
    {
      "inputs": [
        {
          "internalType": "address",
          "name": "spender",
          "type": "address"
        },
        {
          "internalType": "uint256",
          "name": "subtractedValue",
          "type": "uint256"
        }
      ],
      "name": "decreaseAllowance",
      "outputs": [
        {
          "internalType": "bool",
          "name": "",
          "type": "bool"
        }
      ],
      "stateMutability": "nonpayable",
      "type": "function"
    },
    {
      "inputs": [
        {
          "internalType": "address",
          "name": "walletAddress",
          "type": "address"
        }
      ],
      "name": "getConfirmed",
      "outputs": [
        {
          "internalType": "bool",
          "name": "",
          "type": "bool"
        },
        {
          "internalType": "uint256",
          "name": "",
          "type": "uint256"
        }
      ],
      "stateMutability": "view",
      "type": "function"
    },
    {
      "inputs": [],
      "name": "getConfirmer",
      "outputs": [
        {
          "internalType": "address[]",
          "name": "",
          "type": "address[]"
        }
      ],
      "stateMutability": "view",
      "type": "function"
    },
    {
      "inputs": [
        {
          "internalType": "address",
          "name": "walletAddress",
          "type": "address"
        }
      ],
      "name": "getLockInfo",
      "outputs": [
        {
          "internalType": "uint256",
          "name": "lockAmount",
          "type": "uint256"
        },
        {
          "internalType": "uint256",
          "name": "startTime",
          "type": "uint256"
        },
        {
          "internalType": "uint256",
          "name": "releaseMonths",
          "type": "uint256"
        },
        {
          "internalType": "uint256",
          "name": "released",
          "type": "uint256"
        }
      ],
      "stateMutability": "view",
      "type": "function"
    },
    {
      "inputs": [],
      "name": "getLockWallets",
      "outputs": [
        {
          "internalType": "address[]",
          "name": "",
          "type": "address[]"
        }
      ],
      "stateMutability": "view",
      "type": "function"
    },
    {
      "inputs": [
        {
          "internalType": "address",
          "name": "spender",
          "type": "address"
        },
        {
          "internalType": "uint256",
          "name": "addedValue",
          "type": "uint256"
        }
      ],
      "name": "increaseAllowance",
      "outputs": [
        {
          "internalType": "bool",
          "name": "",
          "type": "bool"
        }
      ],
      "stateMutability": "nonpayable",
      "type": "function"
    },
    {
      "inputs": [],
      "name": "name",
      "outputs": [
        {
          "internalType": "string",
          "name": "",
          "type": "string"
        }
      ],
      "stateMutability": "view",
      "type": "function"
    },
    {
      "inputs": [],
      "name": "owner",
      "outputs": [
        {
          "internalType": "address",
          "name": "",
          "type": "address"
        }
      ],
      "stateMutability": "view",
      "type": "function"
    },
    {
      "inputs": [],
      "name": "pause",
      "outputs": [],
      "stateMutability": "nonpayable",
      "type": "function"
    },
    {
      "inputs": [],
      "name": "paused",
      "outputs": [
        {
          "internalType": "bool",
          "name": "",
          "type": "bool"
        }
      ],
      "stateMutability": "view",
      "type": "function"
    },
    {
      "inputs": [
        {
          "internalType": "address",
          "name": "walletAddress",
          "type": "address"
        }
      ],
      "name": "removeConfirmer",
      "outputs": [],
      "stateMutability": "nonpayable",
      "type": "function"
    },
    {
      "inputs": [],
      "name": "renounceOwnership",
      "outputs": [],
      "stateMutability": "nonpayable",
      "type": "function"
    },
    {
      "inputs": [
        {
          "internalType": "address",
          "name": "walletAddress",
          "type": "address"
        },
        {
          "internalType": "uint256",
          "name": "startTime",
          "type": "uint256"
        },
        {
          "internalType": "uint256",
          "name": "releaseMonths",
          "type": "uint256"
        },
        {
          "internalType": "uint256",
          "name": "amount",
          "type": "uint256"
        }
      ],
      "name": "setLock",
      "outputs": [],
      "stateMutability": "nonpayable",
      "type": "function"
    },
    {
      "inputs": [
        {
          "internalType": "address",
          "name": "walletAddress",
          "type": "address"
        },
        {
          "internalType": "uint256",
          "name": "amount",
          "type": "uint256"
        }
      ],
      "name": "setLockAmount",
      "outputs": [],
      "stateMutability": "nonpayable",
      "type": "function"
    },
    {
      "inputs": [
        {
          "internalType": "address",
          "name": "walletAddress",
          "type": "address"
        },
        {
          "internalType": "uint256",
          "name": "releaseMonths",
          "type": "uint256"
        }
      ],
      "name": "setLockReleaseMonths",
      "outputs": [],
      "stateMutability": "nonpayable",
      "type": "function"
    },
    {
      "inputs": [
        {
          "internalType": "address",
          "name": "walletAddress",
          "type": "address"
        },
        {
          "internalType": "uint256",
          "name": "startTime",
          "type": "uint256"
        }
      ],
      "name": "setLockStartTime",
      "outputs": [],
      "stateMutability": "nonpayable",
      "type": "function"
    },
    {
      "inputs": [],
      "name": "symbol",
      "outputs": [
        {
          "internalType": "string",
          "name": "",
          "type": "string"
        }
      ],
      "stateMutability": "view",
      "type": "function"
    },
    {
      "inputs": [],
      "name": "toConfirm",
      "outputs": [],
      "stateMutability": "nonpayable",
      "type": "function"
    },
    {
      "inputs": [],
      "name": "totalSupply",
      "outputs": [
        {
          "internalType": "uint256",
          "name": "",
          "type": "uint256"
        }
      ],
      "stateMutability": "view",
      "type": "function"
    },
    {
      "inputs": [
        {
          "internalType": "address",
          "name": "to",
          "type": "address"
        },
        {
          "internalType": "uint256",
          "name": "amount",
          "type": "uint256"
        }
      ],
      "name": "transfer",
      "outputs": [
        {
          "internalType": "bool",
          "name": "",
          "type": "bool"
        }
      ],
      "stateMutability": "nonpayable",
      "type": "function"
    },
    {
      "inputs": [
        {
          "internalType": "address",
          "name": "from",
          "type": "address"
        },
        {
          "internalType": "address",
          "name": "to",
          "type": "address"
        },
        {
          "internalType": "uint256",
          "name": "amount",
          "type": "uint256"
        }
      ],
      "name": "transferFrom",
      "outputs": [
        {
          "internalType": "bool",
          "name": "",
          "type": "bool"
        }
      ],
      "stateMutability": "nonpayable",
      "type": "function"
    },
    {
      "inputs": [
        {
          "internalType": "address",
          "name": "newOwner",
          "type": "address"
        }
      ],
      "name": "transferOwnership",
      "outputs": [],
      "stateMutability": "nonpayable",
      "type": "function"
    },
    {
      "inputs": [],
      "name": "unpause",
      "outputs": [],
      "stateMutability": "nonpayable",
      "type": "function"
    }
  ],
  "bytecode": "0x60806040523480156200001157600080fd5b5060408051808201825260058082526410d3d3955560da1b60208084018281528551808701909652928552840152815191929162000052916003916200062f565b508051620000689060049060208401906200062f565b50506005805460ff19169055506200008033620000fb565b620000a933620000936012600a6200075c565b620000a3906305f5e10062000828565b62000155565b600780546001810182556000919091527fa66cc928b5edb82af9bd49922954155ab7b0942694bea4ce44661d9a8736c6880180546001600160a01b03191633179055620000f56200024c565b620008f0565b600580546001600160a01b03838116610100818102610100600160a81b031985161790945560405193909204169182907f8be0079c531659141344cd1fd0a4f28419497f9722a3daafe3b4186f6b6457e090600090a35050565b6001600160a01b038216620001b15760405162461bcd60e51b815260206004820152601f60248201527f45524332303a206d696e7420746f20746865207a65726f20616464726573730060448201526064015b60405180910390fd5b620001bf60008383620003ad565b8060026000828254620001d39190620006d5565b90915550506001600160a01b0382166000908152602081905260408120805483929062000202908490620006d5565b90915550506040518181526001600160a01b038316906000907fddf252ad1be2c89b69c2b068fc378daa952ba7f163c4a11628f55a4df523b3ef9060200160405180910390a35050565b62000257336200042f565b806200028b57506200027660055461010090046001600160a01b031690565b6001600160a01b0316336001600160a01b0316145b620002e75760405162461bcd60e51b815260206004820152602560248201527f43616c6c6572206973206e6f7420746865206f776e6572206f7220636f6e66696044820152643936b2b91760d91b6064820152608401620001a8565b60005b60075460ff82161015620003aa5760006006600060078460ff1681548110620003175762000317620008da565b6000918252602080832091909101546001600160a01b031683528201929092526040018120805460ff191692151592909217909155600780544292600692909160ff86169081106200036d576200036d620008da565b60009182526020808320909101546001600160a01b0316835282019290925260400190206001015580620003a181620008a1565b915050620002ea565b50565b620003b7620004a7565b620003c38382620004f1565b15620004125760405162461bcd60e51b815260206004820152601660248201527f45524332303a204c6f636b65642062616c616e63652e000000000000000000006044820152606401620001a8565b6200042a8383836200042a60201b620013621760201c565b505050565b6000805b60075460ff821610156200049e57826001600160a01b031660078260ff1681548110620004645762000464620008da565b6000918252602090912001546001600160a01b03161415620004895750600192915050565b806200049581620008a1565b91505062000433565b50600092915050565b60055460ff1615620004ef5760405162461bcd60e51b815260206004820152601060248201526f14185d5cd8589b194e881c185d5cd95960821b6044820152606401620001a8565b565b6001600160a01b038216600090815260086020526040812054156200049e5760006200051e844262000579565b6001600160a01b0385166000908152600860205260409020549091508390620005499083906200084a565b6001600160a01b0386166000908152602081905260409020546200056e91906200084a565b109150505b92915050565b6001600160a01b03821660009081526008602052604081208054600182015460029092015490919081851015620005b7576000935050505062000573565b6000620005c583876200084a565b90506000620005d862278d0083620006f0565b9050808311620005f057849550505050505062000573565b6001811015620006095760009550505050505062000573565b8262000616828762000828565b620006229190620006f0565b9550505050505062000573565b8280546200063d9062000864565b90600052602060002090601f016020900481019282620006615760008555620006ac565b82601f106200067c57805160ff1916838001178555620006ac565b82800160010185558215620006ac579182015b82811115620006ac5782518255916020019190600101906200068f565b50620006ba929150620006be565b5090565b5b80821115620006ba5760008155600101620006bf565b60008219821115620006eb57620006eb620008c4565b500190565b6000826200070e57634e487b7160e01b600052601260045260246000fd5b500490565b600181815b8085111562000754578160001904821115620007385762000738620008c4565b808516156200074657918102915b93841c939080029062000718565b509250929050565b60006200076d60ff84168362000774565b9392505050565b600082620007855750600162000573565b81620007945750600062000573565b8160018114620007ad5760028114620007b857620007d8565b600191505062000573565b60ff841115620007cc57620007cc620008c4565b50506001821b62000573565b5060208310610133831016604e8410600b8410161715620007fd575081810a62000573565b62000809838362000713565b8060001904821115620008205762000820620008c4565b029392505050565b6000816000190483118215151615620008455762000845620008c4565b500290565b6000828210156200085f576200085f620008c4565b500390565b600181811c908216806200087957607f821691505b602082108114156200089b57634e487b7160e01b600052602260045260246000fd5b50919050565b600060ff821660ff811415620008bb57620008bb620008c4565b60010192915050565b634e487b7160e01b600052601160045260246000fd5b634e487b7160e01b600052603260045260246000fd5b61225880620009006000396000f3fe608060405234801561001057600080fd5b50600436106101e55760003560e01c8063715018a61161010f5780638da5cb5b116100a2578063a9059cbb11610071578063a9059cbb14610423578063dd62ed3e14610436578063ef9f357414610449578063f2fde38b1461045c57600080fd5b80638da5cb5b146103ea57806392e27a081461040057806395d89b4114610408578063a457c2d71461041057600080fd5b806376b57027116100de57806376b57027146103a757806379cc6790146103ba57806383df4f37146103cd5780638456cb59146103e257600080fd5b8063715018a61461032e5780637238ccdb1461033657806374db76621461036957806375d966e91461039457600080fd5b806339509351116101875780635c383ea0116101565780635c383ea0146102df5780635c975abb146102f25780636884461a146102fd57806370a082311461030557600080fd5b806339509351146102875780633c97a9c51461029a5780633f4ba83a146102c457806342966c68146102cc57600080fd5b806323b872dd116101c357806323b872dd1461023d57806324a7039d14610250578063313ce567146102655780633873d4751461027457600080fd5b806306fdde03146101ea578063095ea7b31461020857806318160ddd1461022b575b600080fd5b6101f261046f565b6040516101ff9190611fbd565b60405180910390f35b61021b610216366004611ef4565b610501565b60405190151581526020016101ff565b6002545b6040519081526020016101ff565b61021b61024b366004611eb8565b61051b565b61026361025e366004611f1e565b61053f565b005b604051601281526020016101ff565b610263610282366004611ef4565b610759565b61021b610295366004611ef4565b61086d565b6102ad6102a8366004611e63565b61088f565b6040805192151583526020830191909152016101ff565b6102636108c3565b6102636102da366004611f57565b610901565b6102636102ed366004611ef4565b61090e565b60055460ff1661021b565b6102636109e5565b61022f610313366004611e63565b6001600160a01b031660009081526020819052604090205490565b610263610a88565b610349610344366004611e63565b610abc565b6040805194855260208501939093529183015260608201526080016101ff565b61037c610377366004611f57565b610bbc565b6040516001600160a01b0390911681526020016101ff565b6102636103a2366004611e63565b610be6565b6102636103b5366004611ef4565b610e9a565b6102636103c8366004611ef4565b610fb7565b6103d5610fcc565b6040516101ff9190611f70565b610263611035565b60055461010090046001600160a01b031661037c565b6103d5611069565b6101f26110d1565b61021b61041e366004611ef4565b6110e0565b61021b610431366004611ef4565b61115b565b61022f610444366004611e85565b611169565b610263610457366004611e63565b611194565b61026361046a366004611e63565b6112a2565b60606003805461047e90612185565b80601f01602080910402602001604051908101604052809291908181526020018280546104aa90612185565b80156104f75780601f106104cc576101008083540402835291602001916104f7565b820191906000526020600020905b8154815290600101906020018083116104da57829003601f168201915b5050505050905090565b60003361050f818585611367565b60019150505b92915050565b60003361052985828561148b565b610534858585611505565b506001949350505050565b6105476116de565b6001600160a01b0384166000908152600860205260409020546001116105b45760405162461bcd60e51b815260206004820152601760248201527f416c65616479206578697374206c6f636b20696e666f2e00000000000000000060448201526064015b60405180910390fd5b82421061061b5760405162461bcd60e51b815260206004820152602f60248201527f45524332303a2043757272656e742074696d652069732067726561746572207460448201526e3430b71039ba30b93a103a34b6b29760891b60648201526084016105ab565b6000821161063b5760405162461bcd60e51b81526004016105ab90612082565b6000811161068b5760405162461bcd60e51b815260206004820181905260248201527f45524332303a20416d6f756e742069732067726561746572207468616e20302e60448201526064016105ab565b604080516060808201835283825260208083018781528385018781526001600160a01b038a1660008181526008855287812096518755925160018088019190915591516002909601959095556009805491820181559091527f6e1540171b6c0c960b71a7020d9f60077f6af931a8bbf590da0223dacf75c7af0180546001600160a01b03191684179055835185815290810187905292830185905290917f1e79ce210cfb5d5b665fdab9417fddaf7112bcbbdb74138529c203c1173ea54f910160405180910390a250505050565b6107616116de565b61076961173e565b6107855760405162461bcd60e51b81526004016105ab90612012565b6001600160a01b0382166000908152600860205260409020546107ba5760405162461bcd60e51b81526004016105ab90612054565b6000811161080a5760405162461bcd60e51b815260206004820181905260248201527f45524332303a20416d6f756e742069732067726561746572207468616e20302e60448201526064016105ab565b6001600160a01b0382166000818152600860209081526040918290208490558151600181529081018490527f546881d7b11e2e451d337a9f8c5902323a467b3b333b598942f963b9e67c7d4e91015b60405180910390a2610869611825565b5050565b60003361050f8185856108808383611169565b61088a9190612115565b611367565b60008061089a6116de565b50506001600160a01b03166000908152600660205260409020805460019091015460ff90911691565b6108cb6116de565b6108d361173e565b6108ef5760405162461bcd60e51b81526004016105ab90612012565b6108f761196d565b6108ff611825565b565b61090b33826119bf565b50565b6109166116de565b61091e61173e565b61093a5760405162461bcd60e51b81526004016105ab90612012565b6001600160a01b03821660009081526008602052604090205461096f5760405162461bcd60e51b81526004016105ab90612054565b6000811161098f5760405162461bcd60e51b81526004016105ab90612082565b6001600160a01b0382166000818152600860209081526040918290206002018490558151600381529081018490527f546881d7b11e2e451d337a9f8c5902323a467b3b333b598942f963b9e67c7d4e9101610859565b336109ef81611b19565b610a0b5760405162461bcd60e51b81526004016105ab906120c9565b336000908152600660205260409020805460ff19166001179055610a324262015180612115565b3360008181526006602090815260409182902060010193909355805191825242928201929092527fab825bb15a80ddd6248dab50c44299ab366e0658b16d6c37ceda8018f5b1adde91015b60405180910390a150565b610a906116de565b610a9861173e565b610ab45760405162461bcd60e51b81526004016105ab90612012565b6108f7611b89565b6000808080336001600160a01b0386161480610af9575060055461010090046001600160a01b03166001600160a01b0316336001600160a01b0316145b610b455760405162461bcd60e51b815260206004820152601860248201527f43616c6c6572206973206e6f7420746865206f776e65722e000000000000000060448201526064016105ab565b6001600160a01b038516600090815260086020526040902054610b7a5760405162461bcd60e51b81526004016105ab90612054565b6000610b868642611b9b565b6001600160a01b039690961660009081526008602052604090208054600182015460029092015490989197909650945092505050565b60078181548110610bcc57600080fd5b6000918252602090912001546001600160a01b0316905081565b610bee6116de565b610bf661173e565b610c125760405162461bcd60e51b81526004016105ab90612012565b80610c1c81611b19565b610c385760405162461bcd60e51b81526004016105ab906120c9565b600754600310610c8a5760405162461bcd60e51b815260206004820152601e60248201527f4d757374206265206174206c65617374203320636f6e6669726d6572732e000060448201526064016105ab565b6000805b60075460ff82161015610e1d57836001600160a01b031660078260ff1681548110610cbb57610cbb61220c565b6000918252602090912001546001600160a01b031614610d555760078160ff1681548110610ceb57610ceb61220c565b600091825260209091200154600780546001600160a01b039092169160ff8516908110610d1a57610d1a61220c565b600091825260209091200180546001600160a01b0319166001600160a01b039290921691909117905581610d4d816121c0565b925050610e0b565b836001600160a01b031660078260ff1681548110610d7557610d7561220c565b6000918252602090912001546001600160a01b03161415610e0b5760078160ff1681548110610da657610da661220c565b6000918252602082200180546001600160a01b031916905560078054600692919060ff8516908110610dda57610dda61220c565b60009182526020808320909101546001600160a01b031683528201929092526040018120805460ff19168155600101555b80610e15816121c0565b915050610c8e565b506007805480610e2f57610e2f6121f6565b600082815260209020810160001990810180546001600160a01b0319169055019055610e59611825565b6040516001600160a01b03841681527f996ac2d2d3bae289f37a56cbfa088fb659e7f5b37433a0f06d8e005844d73eb69060200160405180910390a1505050565b610ea26116de565b610eaa61173e565b610ec65760405162461bcd60e51b81526004016105ab90612012565b6001600160a01b038216600090815260086020526040902054610efb5760405162461bcd60e51b81526004016105ab90612054565b804210610f615760405162461bcd60e51b815260206004820152602e60248201527f45524332303a2043757272656e742074696d652069732067726561746572207460448201526d68616e2073746172742074696d6560901b60648201526084016105ab565b6001600160a01b0382166000818152600860209081526040918290206001018490558151600281529081018490527f546881d7b11e2e451d337a9f8c5902323a467b3b333b598942f963b9e67c7d4e9101610859565b610fc282338361148b565b61086982826119bf565b6060610fd66116de565b60098054806020026020016040519081016040528092919081815260200182805480156104f757602002820191906000526020600020905b81546001600160a01b0316815260019091019060200180831161100e575050505050905090565b61103d6116de565b61104561173e565b6110615760405162461bcd60e51b81526004016105ab90612012565b6108f7611c42565b60606110736116de565b60078054806020026020016040519081016040528092919081815260200182805480156104f7576020028201919060005260206000209081546001600160a01b0316815260019091019060200180831161100e575050505050905090565b60606004805461047e90612185565b600033816110ee8286611169565b90508381101561114e5760405162461bcd60e51b815260206004820152602560248201527f45524332303a2064656372656173656420616c6c6f77616e63652062656c6f77604482015264207a65726f60d81b60648201526084016105ab565b6105348286868403611367565b60003361050f818585611505565b6001600160a01b03918216600090815260016020908152604080832093909416825291909152205490565b61119c6116de565b6111a461173e565b6111c05760405162461bcd60e51b81526004016105ab90612012565b6111c981611b19565b156112165760405162461bcd60e51b815260206004820152601760248201527f416c6561647920657869737420636f6e6669726d65722e00000000000000000060448201526064016105ab565b600780546001810182556000919091527fa66cc928b5edb82af9bd49922954155ab7b0942694bea4ce44661d9a8736c6880180546001600160a01b0319166001600160a01b038316179055611269611825565b6040516001600160a01b03821681527f36cdd242bdd95cb0e707df56299f9f974765eefb508f6e9165d196e29bd7337490602001610a7d565b336112ac81611b19565b6112c85760405162461bcd60e51b81526004016105ab906120c9565b6112d061173e565b6112ec5760405162461bcd60e51b81526004016105ab90612012565b6001600160a01b0382166113515760405162461bcd60e51b815260206004820152602660248201527f4f776e61626c653a206e6577206f776e657220697320746865207a65726f206160448201526564647265737360d01b60648201526084016105ab565b61135a82611c7f565b610869611825565b505050565b6001600160a01b0383166113c95760405162461bcd60e51b8152602060048201526024808201527f45524332303a20617070726f76652066726f6d20746865207a65726f206164646044820152637265737360e01b60648201526084016105ab565b6001600160a01b03821661142a5760405162461bcd60e51b815260206004820152602260248201527f45524332303a20617070726f766520746f20746865207a65726f206164647265604482015261737360f01b60648201526084016105ab565b6001600160a01b0383811660008181526001602090815260408083209487168084529482529182902085905590518481527f8c5be1e5ebec7d5bd14f71427d1e84f3dd0314c0f7b2291e5b200ac8c7c3b925910160405180910390a3505050565b60006114978484611169565b905060001981146114ff57818110156114f25760405162461bcd60e51b815260206004820152601d60248201527f45524332303a20696e73756666696369656e7420616c6c6f77616e636500000060448201526064016105ab565b6114ff8484848403611367565b50505050565b6001600160a01b0383166115695760405162461bcd60e51b815260206004820152602560248201527f45524332303a207472616e736665722066726f6d20746865207a65726f206164604482015264647265737360d81b60648201526084016105ab565b6001600160a01b0382166115cb5760405162461bcd60e51b815260206004820152602360248201527f45524332303a207472616e7366657220746f20746865207a65726f206164647260448201526265737360e81b60648201526084016105ab565b6115d6838383611cd9565b6001600160a01b0383166000908152602081905260409020548181101561164e5760405162461bcd60e51b815260206004820152602660248201527f45524332303a207472616e7366657220616d6f756e7420657863656564732062604482015265616c616e636560d01b60648201526084016105ab565b6001600160a01b03808516600090815260208190526040808220858503905591851681529081208054849290611685908490612115565b92505081905550826001600160a01b0316846001600160a01b03167fddf252ad1be2c89b69c2b068fc378daa952ba7f163c4a11628f55a4df523b3ef846040516116d191815260200190565b60405180910390a36114ff565b6005546001600160a01b036101009091041633146108ff5760405162461bcd60e51b815260206004820181905260248201527f4f776e61626c653a2063616c6c6572206973206e6f7420746865206f776e657260448201526064016105ab565b600080805b60075460ff82161015611808576006600060078360ff168154811061176a5761176a61220c565b60009182526020808320909101546001600160a01b0316835282019290925260400190205460ff16151560011480156117e35750426006600060078460ff16815481106117b9576117b961220c565b60009182526020808320909101546001600160a01b03168352820192909252604001902060010154115b156117f657816117f2816121c0565b9250505b80611800816121c0565b915050611743565b5060018160ff16111561181d57600191505090565b600091505090565b61182e33611b19565b8061185a575060055461010090046001600160a01b03166001600160a01b0316336001600160a01b0316145b6118b45760405162461bcd60e51b815260206004820152602560248201527f43616c6c6572206973206e6f7420746865206f776e6572206f7220636f6e66696044820152643936b2b91760d91b60648201526084016105ab565b60005b60075460ff8216101561090b5760006006600060078460ff16815481106118e0576118e061220c565b6000918252602080832091909101546001600160a01b031683528201929092526040018120805460ff191692151592909217909155600780544292600692909160ff86169081106119335761193361220c565b60009182526020808320909101546001600160a01b0316835282019290925260400190206001015580611965816121c0565b9150506118b7565b611975611d31565b6005805460ff191690557f5db9ee0a495bf2e6ff9c91a7834c1ba4fdd244a5e8aa4e537bd38aeae4b073aa335b6040516001600160a01b03909116815260200160405180910390a1565b6001600160a01b038216611a1f5760405162461bcd60e51b815260206004820152602160248201527f45524332303a206275726e2066726f6d20746865207a65726f206164647265736044820152607360f81b60648201526084016105ab565b611a2b82600083611cd9565b6001600160a01b03821660009081526020819052604090205481811015611a9f5760405162461bcd60e51b815260206004820152602260248201527f45524332303a206275726e20616d6f756e7420657863656564732062616c616e604482015261636560f01b60648201526084016105ab565b6001600160a01b0383166000908152602081905260408120838303905560028054849290611ace90849061216e565b90915550506040518281526000906001600160a01b038516907fddf252ad1be2c89b69c2b068fc378daa952ba7f163c4a11628f55a4df523b3ef9060200160405180910390a3505050565b6000805b60075460ff82161015611b8057826001600160a01b031660078260ff1681548110611b4a57611b4a61220c565b6000918252602090912001546001600160a01b03161415611b6e5750600192915050565b80611b78816121c0565b915050611b1d565b50600092915050565b611b916116de565b6108ff6000611c7f565b6001600160a01b03821660009081526008602052604081208054600182015460029092015490919081851015611bd75760009350505050610515565b6000611be3838761216e565b90506000611bf462278d008361212d565b9050808311611c0a578495505050505050610515565b6001811015611c2157600095505050505050610515565b82611c2c828761214f565b611c36919061212d565b95505050505050610515565b611c4a611d7a565b6005805460ff191660011790557f62e78cea01bee320cd4e420270b5ea74000d11b0c9f74754ebdbfc544b05a2586119a23390565b600580546001600160a01b03838116610100818102610100600160a81b031985161790945560405193909204169182907f8be0079c531659141344cd1fd0a4f28419497f9722a3daafe3b4186f6b6457e090600090a35050565b611ce1611d7a565b611ceb8382611dc0565b156113625760405162461bcd60e51b815260206004820152601660248201527522a92199181d102637b1b5b2b2103130b630b731b29760511b60448201526064016105ab565b60055460ff166108ff5760405162461bcd60e51b815260206004820152601460248201527314185d5cd8589b194e881b9bdd081c185d5cd95960621b60448201526064016105ab565b60055460ff16156108ff5760405162461bcd60e51b815260206004820152601060248201526f14185d5cd8589b194e881c185d5cd95960821b60448201526064016105ab565b6001600160a01b03821660009081526008602052604081205415611e3f576000611dea8442611b9b565b6001600160a01b0385166000908152600860205260409020549091508390611e1390839061216e565b6001600160a01b038616600090815260208190526040902054611e36919061216e565b10915050610515565b506000610515565b80356001600160a01b0381168114611e5e57600080fd5b919050565b600060208284031215611e7557600080fd5b611e7e82611e47565b9392505050565b60008060408385031215611e9857600080fd5b611ea183611e47565b9150611eaf60208401611e47565b90509250929050565b600080600060608486031215611ecd57600080fd5b611ed684611e47565b9250611ee460208501611e47565b9150604084013590509250925092565b60008060408385031215611f0757600080fd5b611f1083611e47565b946020939093013593505050565b60008060008060808587031215611f3457600080fd5b611f3d85611e47565b966020860135965060408601359560600135945092505050565b600060208284031215611f6957600080fd5b5035919050565b6020808252825182820181905260009190848201906040850190845b81811015611fb15783516001600160a01b031683529284019291840191600101611f8c565b50909695505050505050565b600060208083528351808285015260005b81811015611fea57858101830151858201604001528201611fce565b81811115611ffc576000604083870101525b50601f01601f1916929092016040019392505050565b60208082526022908201527f496e73756666696369656e7420657865637574696f6e20636f6e646974696f6e604082015261399760f11b606082015260800190565b6020808252601490820152732737ba1032bc34b9ba103637b1b59034b733379760611b604082015260600190565b60208082526027908201527f45524332303a2052656c656173654d6f6e7468732069732067726561746572206040820152663a3430b710181760c91b606082015260800190565b6020808252602c908201527f546869732061646472657373206f722063616c6c6572206973206e6f7420746860408201526b329031b7b73334b936b2b91760a11b606082015260800190565b60008219821115612128576121286121e0565b500190565b60008261214a57634e487b7160e01b600052601260045260246000fd5b500490565b6000816000190483118215151615612169576121696121e0565b500290565b600082821015612180576121806121e0565b500390565b600181811c9082168061219957607f821691505b602082108114156121ba57634e487b7160e01b600052602260045260246000fd5b50919050565b600060ff821660ff8114156121d7576121d76121e0565b60010192915050565b634e487b7160e01b600052601160045260246000fd5b634e487b7160e01b600052603160045260246000fd5b634e487b7160e01b600052603260045260246000fdfea264697066735822122086787ec20083de951d4091e7da8c47afeb558610794be4afdcc0b5039f53cab664736f6c63430008070033",
  "linkReferences": {},
  "deployedLinkReferences": {}
}