{
  "_format": "hh-sol-artifact-1",
  "contractName": "KlaytnKIP37Ori",
  "sourceName": "contracts/KlaytnKIP37Ori.sol",
  "abi": [
    {
      "anonymous": false,
      "inputs": [
        {
          "indexed": true,
          "internalType": "address",
          "name": "account",
          "type": "address"
        },
        {
          "indexed": true,
          "internalType": "address",
          "name": "operator",
          "type": "address"
        },
        {
          "indexed": false,
          "internalType": "bool",
          "name": "approved",
          "type": "bool"
        }
      ],
      "name": "ApprovalForAll",
      "type": "event"
    },
    {
      "anonymous": false,
      "inputs": [
        {
          "indexed": false,
          "internalType": "uint8",
          "name": "version",
          "type": "uint8"
        }
      ],
      "name": "Initialized",
      "type": "event"
    },
    {
      "anonymous": false,
      "inputs": [
        {
          "indexed": true,
          "internalType": "address",
          "name": "operator",
          "type": "address"
        },
        {
          "indexed": true,
          "internalType": "address",
          "name": "from",
          "type": "address"
        },
        {
          "indexed": true,
          "internalType": "address",
          "name": "to",
          "type": "address"
        },
        {
          "indexed": false,
          "internalType": "uint256[]",
          "name": "ids",
          "type": "uint256[]"
        },
        {
          "indexed": false,
          "internalType": "uint256[]",
          "name": "values",
          "type": "uint256[]"
        }
      ],
      "name": "TransferBatch",
      "type": "event"
    },
    {
      "anonymous": false,
      "inputs": [
        {
          "indexed": true,
          "internalType": "address",
          "name": "operator",
          "type": "address"
        },
        {
          "indexed": true,
          "internalType": "address",
          "name": "from",
          "type": "address"
        },
        {
          "indexed": true,
          "internalType": "address",
          "name": "to",
          "type": "address"
        },
        {
          "indexed": false,
          "internalType": "uint256",
          "name": "id",
          "type": "uint256"
        },
        {
          "indexed": false,
          "internalType": "uint256",
          "name": "value",
          "type": "uint256"
        }
      ],
      "name": "TransferSingle",
      "type": "event"
    },
    {
      "anonymous": false,
      "inputs": [
        {
          "indexed": false,
          "internalType": "string",
          "name": "value",
          "type": "string"
        },
        {
          "indexed": true,
          "internalType": "uint256",
          "name": "id",
          "type": "uint256"
        }
      ],
      "name": "URI",
      "type": "event"
    },
    {
      "anonymous": false,
      "inputs": [
        {
          "indexed": true,
          "internalType": "uint256",
          "name": "tokenId",
          "type": "uint256"
        },
        {
          "indexed": false,
          "internalType": "string",
          "name": "tokenUri",
          "type": "string"
        }
      ],
      "name": "assetInformation",
      "type": "event"
    },
    {
      "inputs": [
        {
          "internalType": "address",
          "name": "account",
          "type": "address"
        },
        {
          "internalType": "uint256",
          "name": "id",
          "type": "uint256"
        }
      ],
      "name": "balanceOf",
      "outputs": [
        {
          "internalType": "uint256",
          "name": "",
          "type": "uint256"
        }
      ],
      "stateMutability": "view",
      "type": "function"
    },
    {
      "inputs": [
        {
          "internalType": "address[]",
          "name": "accounts",
          "type": "address[]"
        },
        {
          "internalType": "uint256[]",
          "name": "ids",
          "type": "uint256[]"
        }
      ],
      "name": "balanceOfBatch",
      "outputs": [
        {
          "internalType": "uint256[]",
          "name": "",
          "type": "uint256[]"
        }
      ],
      "stateMutability": "view",
      "type": "function"
    },
    {
      "inputs": [],
      "name": "initialize",
      "outputs": [],
      "stateMutability": "nonpayable",
      "type": "function"
    },
    {
      "inputs": [
        {
          "internalType": "address",
          "name": "account",
          "type": "address"
        },
        {
          "internalType": "address",
          "name": "operator",
          "type": "address"
        }
      ],
      "name": "isApprovedForAll",
      "outputs": [
        {
          "internalType": "bool",
          "name": "",
          "type": "bool"
        }
      ],
      "stateMutability": "view",
      "type": "function"
    },
    {
      "inputs": [
        {
          "internalType": "address",
          "name": "from",
          "type": "address"
        },
        {
          "internalType": "address",
          "name": "to",
          "type": "address"
        },
        {
          "internalType": "uint256[]",
          "name": "ids",
          "type": "uint256[]"
        },
        {
          "internalType": "uint256[]",
          "name": "amounts",
          "type": "uint256[]"
        },
        {
          "internalType": "bytes",
          "name": "data",
          "type": "bytes"
        }
      ],
      "name": "safeBatchTransferFrom",
      "outputs": [],
      "stateMutability": "nonpayable",
      "type": "function"
    },
    {
      "inputs": [
        {
          "internalType": "address",
          "name": "from",
          "type": "address"
        },
        {
          "internalType": "address",
          "name": "to",
          "type": "address"
        },
        {
          "internalType": "uint256",
          "name": "id",
          "type": "uint256"
        },
        {
          "internalType": "uint256",
          "name": "amount",
          "type": "uint256"
        },
        {
          "internalType": "bytes",
          "name": "data",
          "type": "bytes"
        }
      ],
      "name": "safeTransferFrom",
      "outputs": [],
      "stateMutability": "nonpayable",
      "type": "function"
    },
    {
      "inputs": [
        {
          "internalType": "address",
          "name": "operator",
          "type": "address"
        },
        {
          "internalType": "bool",
          "name": "approved",
          "type": "bool"
        }
      ],
      "name": "setApprovalForAll",
      "outputs": [],
      "stateMutability": "nonpayable",
      "type": "function"
    },
    {
      "inputs": [
        {
          "internalType": "bool",
          "name": "_isFirst",
          "type": "bool"
        },
        {
          "internalType": "uint256",
          "name": "_tokenId",
          "type": "uint256"
        },
        {
          "internalType": "uint256",
          "name": "_quantity",
          "type": "uint256"
        },
        {
          "internalType": "uint256",
          "name": "_totalQuantity",
          "type": "uint256"
        },
        {
          "internalType": "address",
          "name": "_seller",
          "type": "address"
        },
        {
          "internalType": "string",
          "name": "_tokenUri",
          "type": "string"
        }
      ],
      "name": "setKRWOrder",
      "outputs": [
        {
          "internalType": "uint256",
          "name": "",
          "type": "uint256"
        }
      ],
      "stateMutability": "payable",
      "type": "function"
    },
    {
      "inputs": [
        {
          "internalType": "address",
          "name": "_creator",
          "type": "address"
        },
        {
          "internalType": "uint256",
          "name": "_tokenId",
          "type": "uint256"
        },
        {
          "internalType": "uint256",
          "name": "_quantity",
          "type": "uint256"
        }
      ],
      "name": "setMint",
      "outputs": [],
      "stateMutability": "nonpayable",
      "type": "function"
    },
    {
      "inputs": [
        {
          "internalType": "bool",
          "name": "_isFirst",
          "type": "bool"
        },
        {
          "internalType": "uint256",
          "name": "_tokenId",
          "type": "uint256"
        },
        {
          "internalType": "uint256",
          "name": "_quantity",
          "type": "uint256"
        },
        {
          "internalType": "uint256",
          "name": "_totalQuantity",
          "type": "uint256"
        },
        {
          "internalType": "uint256",
          "name": "_createFee",
          "type": "uint256"
        },
        {
          "internalType": "uint256",
          "name": "_serviceFee",
          "type": "uint256"
        },
        {
          "internalType": "uint256",
          "name": "_sellerPrice",
          "type": "uint256"
        },
        {
          "internalType": "address",
          "name": "_seller",
          "type": "address"
        },
        {
          "internalType": "address",
          "name": "_creator",
          "type": "address"
        },
        {
          "internalType": "address",
          "name": "_serviceOwner",
          "type": "address"
        },
        {
          "internalType": "string",
          "name": "_tokenUri",
          "type": "string"
        }
      ],
      "name": "setOrder",
      "outputs": [
        {
          "internalType": "uint256",
          "name": "",
          "type": "uint256"
        }
      ],
      "stateMutability": "payable",
      "type": "function"
    },
    {
      "inputs": [
        {
          "internalType": "uint256",
          "name": "_tokenId",
          "type": "uint256"
        },
        {
          "internalType": "string",
          "name": "_uri",
          "type": "string"
        }
      ],
      "name": "setTokenUri",
      "outputs": [],
      "stateMutability": "nonpayable",
      "type": "function"
    },
    {
      "inputs": [
        {
          "internalType": "bytes4",
          "name": "interfaceId",
          "type": "bytes4"
        }
      ],
      "name": "supportsInterface",
      "outputs": [
        {
          "internalType": "bool",
          "name": "",
          "type": "bool"
        }
      ],
      "stateMutability": "view",
      "type": "function"
    },
    {
      "inputs": [
        {
          "internalType": "uint256",
          "name": "tokenId",
          "type": "uint256"
        }
      ],
      "name": "uri",
      "outputs": [
        {
          "internalType": "string",
          "name": "",
          "type": "string"
        }
      ],
      "stateMutability": "view",
      "type": "function"
    }
  ],
  "bytecode": "0x608060405234801561001057600080fd5b50611ca0806100206000396000f3fe6080604052600436106100c15760003560e01c806357f7789e1161007f578063da7a94a911610059578063da7a94a91461021a578063e985e9c51461022d578063f242432a14610276578063f64d47d01461029657600080fd5b806357f7789e146101c55780638129fc1c146101e5578063a22cb465146101fa57600080fd5b8062fdd58e146100c657806301ffc9a7146100f95780630e89341c146101295780631384e843146101565780632eb2c2d6146101785780634e1273f414610198575b600080fd5b3480156100d257600080fd5b506100e66100e1366004611495565b6102a9565b6040519081526020015b60405180910390f35b34801561010557600080fd5b506101196101143660046116fa565b610341565b60405190151581526020016100f0565b34801561013557600080fd5b5061014961014436600461173b565b610393565b6040516100f091906118fd565b34801561016257600080fd5b506101766101713660046114bf565b610435565b005b34801561018457600080fd5b5061017661019336600461135c565b610455565b3480156101a457600080fd5b506101b86101b33660046114f2565b6104a1565b6040516100f091906118bc565b3480156101d157600080fd5b506101766101e0366004611754565b6105cb565b3480156101f157600080fd5b50610176610649565b34801561020657600080fd5b5061017661021536600461146b565b610773565b6100e66102283660046115c3565b610782565b34801561023957600080fd5b50610119610248366004611329565b6001600160a01b03918216600090815260666020908152604080832093909416825291909152205460ff1690565b34801561028257600080fd5b50610176610291366004611406565b61080b565b6100e66102a436600461163d565b610850565b60006001600160a01b0383166103195760405162461bcd60e51b815260206004820152602a60248201527f455243313135353a2061646472657373207a65726f206973206e6f742061207660448201526930b634b21037bbb732b960b11b60648201526084015b60405180910390fd5b5060009081526065602090815260408083206001600160a01b03949094168352929052205490565b60006001600160e01b03198216636cdb3d1360e11b148061037257506001600160e01b031982166303a24d0760e21b145b8061038d57506301ffc9a760e01b6001600160e01b03198316145b92915050565b600081815260c9602052604090208054606091906103b090611abd565b80601f01602080910402602001604051908101604052809291908181526020018280546103dc90611abd565b80156104295780601f106103fe57610100808354040283529160200191610429565b820191906000526020600020905b81548152906001019060200180831161040c57829003601f168201915b50505050509050919050565b6104508383836040518060200160405280600081525061098a565b505050565b6001600160a01b03851633148061047157506104718533610248565b61048d5760405162461bcd60e51b815260040161031090611910565b61049a8585858585610aa0565b5050505050565b606081518351146105065760405162461bcd60e51b815260206004820152602960248201527f455243313135353a206163636f756e747320616e6420696473206c656e677468604482015268040dad2e6dac2e8c6d60bb1b6064820152608401610310565b6000835167ffffffffffffffff81111561052257610522611b6c565b60405190808252806020026020018201604052801561054b578160200160208202803683370190505b50905060005b84518110156105c35761059685828151811061056f5761056f611b56565b602002602001015185838151811061058957610589611b56565b60200260200101516102a9565b8282815181106105a8576105a8611b56565b60209081029190910101526105bc81611b25565b9050610551565b509392505050565b600082815260c96020526040902080546105e490611abd565b15905061062a5760405162461bcd60e51b815260206004820152601460248201527343616e6e6f74207365742075726920747769636560601b6044820152606401610310565b600082815260c960209081526040909120825161045092840190611179565b600054610100900460ff16158080156106695750600054600160ff909116105b806106835750303b158015610683575060005460ff166001145b6106e65760405162461bcd60e51b815260206004820152602e60248201527f496e697469616c697a61626c653a20636f6e747261637420697320616c72656160448201526d191e481a5b9a5d1a585b1a5e995960921b6064820152608401610310565b6000805460ff191660011790558015610709576000805461ff0019166101001790555b61072a6040518060600160405280602c8152602001611c3f602c9139610c80565b8015610770576000805461ff0019169055604051600181527f7f26b83ff96e1f2b6a682f133852f6798a09c465da95921460cefb38474024989060200160405180910390a15b50565b61077e338383610cb0565b5050565b6000861561079f57610795838786610435565b61079f86836105cb565b6107c883338888604051806040016040528060048152602001630307830360e41b815250610d91565b857fdfb39d67d0b1525dbef9256aa3e472004bbd76dfc49120dfe261b002df5ae8c0836040516107f891906118fd565b60405180910390a2509395945050505050565b6001600160a01b03851633148061082757506108278533610248565b6108435760405162461bcd60e51b815260040161031090611910565b61049a8585858585610d91565b60008b1561086d57610863858c8b610435565b61086d8b836105cb565b61089685338d8d604051806040016040528060048152602001630307830360e41b815250610d91565b87156108d4576040516001600160a01b0385169089156108fc02908a906000818181858888f193505050501580156108d2573d6000803e3d6000fd5b505b6040516001600160a01b0386169087156108fc029088906000818181858888f1935050505015801561090a573d6000803e3d6000fd5b506040516001600160a01b0384169088156108fc029089906000818181858888f19350505050158015610941573d6000803e3d6000fd5b508a7fdfb39d67d0b1525dbef9256aa3e472004bbd76dfc49120dfe261b002df5ae8c08360405161097291906118fd565b60405180910390a250989a9950505050505050505050565b6001600160a01b0384166109ea5760405162461bcd60e51b815260206004820152602160248201527f455243313135353a206d696e7420746f20746865207a65726f206164647265736044820152607360f81b6064820152608401610310565b3360006109f685610ebf565b90506000610a0385610ebf565b905060008681526065602090815260408083206001600160a01b038b16845290915281208054879290610a37908490611aa5565b909155505060408051878152602081018790526001600160a01b03808a1692600092918716917fc3d58168c5ae7397731d063d5bbf3d657854427343f4c083240f7aacaa2d0f62910160405180910390a4610a9783600089898989610f0a565b50505050505050565b8151835114610b025760405162461bcd60e51b815260206004820152602860248201527f455243313135353a2069647320616e6420616d6f756e7473206c656e677468206044820152670dad2e6dac2e8c6d60c31b6064820152608401610310565b6001600160a01b038416610b285760405162461bcd60e51b8152600401610310906119a7565b3360005b8451811015610c12576000858281518110610b4957610b49611b56565b602002602001015190506000858381518110610b6757610b67611b56565b60209081029190910181015160008481526065835260408082206001600160a01b038e168352909352919091205490915081811015610bb85760405162461bcd60e51b8152600401610310906119ec565b60008381526065602090815260408083206001600160a01b038e8116855292528083208585039055908b16825281208054849290610bf7908490611aa5565b9250508190555050505080610c0b90611b25565b9050610b2c565b50846001600160a01b0316866001600160a01b0316826001600160a01b03167f4a39dc06d4c0dbc64b70af90fd698a233a518aa5d07e595d983b8c0526c8f7fb8787604051610c629291906118cf565b60405180910390a4610c78818787878787611075565b505050505050565b600054610100900460ff16610ca75760405162461bcd60e51b815260040161031090611a36565b6107708161113f565b816001600160a01b0316836001600160a01b03161415610d245760405162461bcd60e51b815260206004820152602960248201527f455243313135353a2073657474696e6720617070726f76616c20737461747573604482015268103337b91039b2b63360b91b6064820152608401610310565b6001600160a01b03838116600081815260666020908152604080832094871680845294825291829020805460ff191686151590811790915591519182527f17307eab39ab6107e8899845ad3d59bd9653f200f220920489ca2b5937696c31910160405180910390a3505050565b6001600160a01b038416610db75760405162461bcd60e51b8152600401610310906119a7565b336000610dc385610ebf565b90506000610dd085610ebf565b905060008681526065602090815260408083206001600160a01b038c16845290915290205485811015610e155760405162461bcd60e51b8152600401610310906119ec565b60008781526065602090815260408083206001600160a01b038d8116855292528083208985039055908a16825281208054889290610e54908490611aa5565b909155505060408051888152602081018890526001600160a01b03808b16928c821692918816917fc3d58168c5ae7397731d063d5bbf3d657854427343f4c083240f7aacaa2d0f62910160405180910390a4610eb4848a8a8a8a8a610f0a565b505050505050505050565b60408051600180825281830190925260609160009190602080830190803683370190505090508281600081518110610ef957610ef9611b56565b602090810291909101015292915050565b6001600160a01b0384163b15610c785760405163f23a6e6160e01b81526001600160a01b0385169063f23a6e6190610f4e9089908990889088908890600401611877565b602060405180830381600087803b158015610f6857600080fd5b505af1925050508015610f98575060408051601f3d908101601f19168201909252610f959181019061171e565b60015b61104557610fa4611b82565b806308c379a01415610fde5750610fb9611b9e565b80610fc45750610fe0565b8060405162461bcd60e51b815260040161031091906118fd565b505b60405162461bcd60e51b815260206004820152603460248201527f455243313135353a207472616e7366657220746f206e6f6e20455243313135356044820152732932b1b2b4bb32b91034b6b83632b6b2b73a32b960611b6064820152608401610310565b6001600160e01b0319811663f23a6e6160e01b14610a975760405162461bcd60e51b81526004016103109061195f565b6001600160a01b0384163b15610c785760405163bc197c8160e01b81526001600160a01b0385169063bc197c81906110b99089908990889088908890600401611819565b602060405180830381600087803b1580156110d357600080fd5b505af1925050508015611103575060408051601f3d908101601f191682019092526111009181019061171e565b60015b61110f57610fa4611b82565b6001600160e01b0319811663bc197c8160e01b14610a975760405162461bcd60e51b81526004016103109061195f565b600054610100900460ff166111665760405162461bcd60e51b815260040161031090611a36565b61077081805161077e9060679060208401905b82805461118590611abd565b90600052602060002090601f0160209004810192826111a757600085556111ed565b82601f106111c057805160ff19168380011785556111ed565b828001600101855582156111ed579182015b828111156111ed5782518255916020019190600101906111d2565b506111f99291506111fd565b5090565b5b808211156111f957600081556001016111fe565b80356001600160a01b038116811461122957600080fd5b919050565b600082601f83011261123f57600080fd5b8135602061124c82611a81565b6040516112598282611af8565b8381528281019150858301600585901b8701840188101561127957600080fd5b60005b858110156112985781358452928401929084019060010161127c565b5090979650505050505050565b8035801515811461122957600080fd5b600082601f8301126112c657600080fd5b813567ffffffffffffffff8111156112e0576112e0611b6c565b6040516112f7601f8301601f191660200182611af8565b81815284602083860101111561130c57600080fd5b816020850160208301376000918101602001919091529392505050565b6000806040838503121561133c57600080fd5b61134583611212565b915061135360208401611212565b90509250929050565b600080600080600060a0868803121561137457600080fd5b61137d86611212565b945061138b60208701611212565b9350604086013567ffffffffffffffff808211156113a857600080fd5b6113b489838a0161122e565b945060608801359150808211156113ca57600080fd5b6113d689838a0161122e565b935060808801359150808211156113ec57600080fd5b506113f9888289016112b5565b9150509295509295909350565b600080600080600060a0868803121561141e57600080fd5b61142786611212565b945061143560208701611212565b93506040860135925060608601359150608086013567ffffffffffffffff81111561145f57600080fd5b6113f9888289016112b5565b6000806040838503121561147e57600080fd5b61148783611212565b9150611353602084016112a5565b600080604083850312156114a857600080fd5b6114b183611212565b946020939093013593505050565b6000806000606084860312156114d457600080fd5b6114dd84611212565b95602085013595506040909401359392505050565b6000806040838503121561150557600080fd5b823567ffffffffffffffff8082111561151d57600080fd5b818501915085601f83011261153157600080fd5b8135602061153e82611a81565b60405161154b8282611af8565b8381528281019150858301600585901b870184018b101561156b57600080fd5b600096505b848710156115955761158181611212565b835260019690960195918301918301611570565b50965050860135925050808211156115ac57600080fd5b506115b98582860161122e565b9150509250929050565b60008060008060008060c087890312156115dc57600080fd5b6115e5876112a5565b955060208701359450604087013593506060870135925061160860808801611212565b915060a087013567ffffffffffffffff81111561162457600080fd5b61163089828a016112b5565b9150509295509295509295565b60008060008060008060008060008060006101608c8e03121561165f57600080fd5b6116688c6112a5565b9a5060208c0135995060408c0135985060608c0135975060808c0135965060a08c0135955060c08c013594506116a060e08d01611212565b93506116af6101008d01611212565b92506116be6101208d01611212565b91506101408c013567ffffffffffffffff8111156116db57600080fd5b6116e78e828f016112b5565b9150509295989b509295989b9093969950565b60006020828403121561170c57600080fd5b813561171781611c28565b9392505050565b60006020828403121561173057600080fd5b815161171781611c28565b60006020828403121561174d57600080fd5b5035919050565b6000806040838503121561176757600080fd5b82359150602083013567ffffffffffffffff81111561178557600080fd5b6115b9858286016112b5565b600081518084526020808501945080840160005b838110156117c1578151875295820195908201906001016117a5565b509495945050505050565b6000815180845260005b818110156117f2576020818501810151868301820152016117d6565b81811115611804576000602083870101525b50601f01601f19169290920160200192915050565b6001600160a01b0386811682528516602082015260a06040820181905260009061184590830186611791565b82810360608401526118578186611791565b9050828103608084015261186b81856117cc565b98975050505050505050565b6001600160a01b03868116825285166020820152604081018490526060810183905260a0608082018190526000906118b1908301846117cc565b979650505050505050565b6020815260006117176020830184611791565b6040815260006118e26040830185611791565b82810360208401526118f48185611791565b95945050505050565b60208152600061171760208301846117cc565b6020808252602f908201527f455243313135353a2063616c6c6572206973206e6f7420746f6b656e206f776e60408201526e195c881b9bdc88185c1c1c9bdd9959608a1b606082015260800190565b60208082526028908201527f455243313135353a204552433131353552656365697665722072656a656374656040820152676420746f6b656e7360c01b606082015260800190565b60208082526025908201527f455243313135353a207472616e7366657220746f20746865207a65726f206164604082015264647265737360d81b606082015260800190565b6020808252602a908201527f455243313135353a20696e73756666696369656e742062616c616e636520666f60408201526939103a3930b739b332b960b11b606082015260800190565b6020808252602b908201527f496e697469616c697a61626c653a20636f6e7472616374206973206e6f74206960408201526a6e697469616c697a696e6760a81b606082015260800190565b600067ffffffffffffffff821115611a9b57611a9b611b6c565b5060051b60200190565b60008219821115611ab857611ab8611b40565b500190565b600181811c90821680611ad157607f821691505b60208210811415611af257634e487b7160e01b600052602260045260246000fd5b50919050565b601f8201601f1916810167ffffffffffffffff81118282101715611b1e57611b1e611b6c565b6040525050565b6000600019821415611b3957611b39611b40565b5060010190565b634e487b7160e01b600052601160045260246000fd5b634e487b7160e01b600052603260045260246000fd5b634e487b7160e01b600052604160045260246000fd5b600060033d1115611b9b5760046000803e5060005160e01c5b90565b600060443d1015611bac5790565b6040516003193d81016004833e81513d67ffffffffffffffff8160248401118184111715611bdc57505050505090565b8285019150815181811115611bf45750505050505090565b843d8701016020828501011115611c0e5750505050505090565b611c1d60208286010187611af8565b509095945050505050565b6001600160e01b03198116811461077057600080fdfe68747470733a2f2f64656e61697373616e63652e6d7970696e6174612e636c6f75642f697066732f7b69647da2646970667358221220760976bd4573fc39a20ffbdce66047a0e5d8f51492922af8dccd27535ad69ac464736f6c63430008070033",
  "linkReferences": {},
  "deployedLinkReferences": {}
}