{
  "_format": "hh-sol-artifact-1",
  "contractName": "KlaytnKIP37Modify",
  "sourceName": "contracts/KlaytnKIP37Modify.sol",
  "abi": [
    {
      "anonymous": false,
      "inputs": [
        {
          "indexed": true,
          "internalType": "address",
          "name": "account",
          "type": "address"
        },
        {
          "indexed": true,
          "internalType": "address",
          "name": "operator",
          "type": "address"
        },
        {
          "indexed": false,
          "internalType": "bool",
          "name": "approved",
          "type": "bool"
        }
      ],
      "name": "ApprovalForAll",
      "type": "event"
    },
    {
      "anonymous": false,
      "inputs": [
        {
          "indexed": false,
          "internalType": "uint8",
          "name": "version",
          "type": "uint8"
        }
      ],
      "name": "Initialized",
      "type": "event"
    },
    {
      "anonymous": false,
      "inputs": [
        {
          "indexed": true,
          "internalType": "address",
          "name": "operator",
          "type": "address"
        },
        {
          "indexed": true,
          "internalType": "address",
          "name": "from",
          "type": "address"
        },
        {
          "indexed": true,
          "internalType": "address",
          "name": "to",
          "type": "address"
        },
        {
          "indexed": false,
          "internalType": "uint256[]",
          "name": "ids",
          "type": "uint256[]"
        },
        {
          "indexed": false,
          "internalType": "uint256[]",
          "name": "values",
          "type": "uint256[]"
        }
      ],
      "name": "TransferBatch",
      "type": "event"
    },
    {
      "anonymous": false,
      "inputs": [
        {
          "indexed": true,
          "internalType": "address",
          "name": "operator",
          "type": "address"
        },
        {
          "indexed": true,
          "internalType": "address",
          "name": "from",
          "type": "address"
        },
        {
          "indexed": true,
          "internalType": "address",
          "name": "to",
          "type": "address"
        },
        {
          "indexed": false,
          "internalType": "uint256",
          "name": "id",
          "type": "uint256"
        },
        {
          "indexed": false,
          "internalType": "uint256",
          "name": "value",
          "type": "uint256"
        }
      ],
      "name": "TransferSingle",
      "type": "event"
    },
    {
      "anonymous": false,
      "inputs": [
        {
          "indexed": false,
          "internalType": "string",
          "name": "value",
          "type": "string"
        },
        {
          "indexed": true,
          "internalType": "uint256",
          "name": "id",
          "type": "uint256"
        }
      ],
      "name": "URI",
      "type": "event"
    },
    {
      "anonymous": false,
      "inputs": [
        {
          "indexed": true,
          "internalType": "uint256",
          "name": "tokenId",
          "type": "uint256"
        },
        {
          "indexed": false,
          "internalType": "string",
          "name": "tokenUri",
          "type": "string"
        },
        {
          "indexed": false,
          "internalType": "uint256",
          "name": "quantity",
          "type": "uint256"
        },
        {
          "indexed": false,
          "internalType": "address",
          "name": "ownerAdress",
          "type": "address"
        }
      ],
      "name": "assetInformation",
      "type": "event"
    },
    {
      "anonymous": false,
      "inputs": [
        {
          "indexed": true,
          "internalType": "string",
          "name": "marektId",
          "type": "string"
        },
        {
          "indexed": false,
          "internalType": "uint256",
          "name": "tokenId",
          "type": "uint256"
        },
        {
          "indexed": false,
          "internalType": "string",
          "name": "tokenUri",
          "type": "string"
        },
        {
          "indexed": false,
          "internalType": "uint256",
          "name": "quantity",
          "type": "uint256"
        },
        {
          "indexed": false,
          "internalType": "address",
          "name": "ownerAdress",
          "type": "address"
        }
      ],
      "name": "marketInformation",
      "type": "event"
    },
    {
      "anonymous": false,
      "inputs": [
        {
          "indexed": true,
          "internalType": "string",
          "name": "marektId",
          "type": "string"
        },
        {
          "indexed": false,
          "internalType": "uint256",
          "name": "tokenId",
          "type": "uint256"
        },
        {
          "indexed": false,
          "internalType": "string",
          "name": "tokenUri",
          "type": "string"
        },
        {
          "indexed": false,
          "internalType": "uint256",
          "name": "quantity",
          "type": "uint256"
        },
        {
          "indexed": false,
          "internalType": "address",
          "name": "sellerAdress",
          "type": "address"
        },
        {
          "indexed": false,
          "internalType": "address",
          "name": "buyerAdress",
          "type": "address"
        }
      ],
      "name": "orderInformation",
      "type": "event"
    },
    {
      "inputs": [
        {
          "internalType": "address",
          "name": "account",
          "type": "address"
        },
        {
          "internalType": "uint256",
          "name": "id",
          "type": "uint256"
        }
      ],
      "name": "balanceOf",
      "outputs": [
        {
          "internalType": "uint256",
          "name": "",
          "type": "uint256"
        }
      ],
      "stateMutability": "view",
      "type": "function"
    },
    {
      "inputs": [
        {
          "internalType": "address[]",
          "name": "accounts",
          "type": "address[]"
        },
        {
          "internalType": "uint256[]",
          "name": "ids",
          "type": "uint256[]"
        }
      ],
      "name": "balanceOfBatch",
      "outputs": [
        {
          "internalType": "uint256[]",
          "name": "",
          "type": "uint256[]"
        }
      ],
      "stateMutability": "view",
      "type": "function"
    },
    {
      "inputs": [
        {
          "internalType": "address",
          "name": "operator",
          "type": "address"
        }
      ],
      "name": "deleteApprovalForAll",
      "outputs": [],
      "stateMutability": "nonpayable",
      "type": "function"
    },
    {
      "inputs": [],
      "name": "getOwner",
      "outputs": [
        {
          "internalType": "address",
          "name": "",
          "type": "address"
        }
      ],
      "stateMutability": "view",
      "type": "function"
    },
    {
      "inputs": [],
      "name": "initialize",
      "outputs": [],
      "stateMutability": "nonpayable",
      "type": "function"
    },
    {
      "inputs": [
        {
          "internalType": "address",
          "name": "account",
          "type": "address"
        },
        {
          "internalType": "address",
          "name": "operator",
          "type": "address"
        }
      ],
      "name": "isApprovedForAll",
      "outputs": [
        {
          "internalType": "bool",
          "name": "",
          "type": "bool"
        }
      ],
      "stateMutability": "view",
      "type": "function"
    },
    {
      "inputs": [
        {
          "internalType": "address",
          "name": "_creator",
          "type": "address"
        },
        {
          "internalType": "uint256",
          "name": "_tokenId",
          "type": "uint256"
        },
        {
          "internalType": "uint256",
          "name": "_quantity",
          "type": "uint256"
        }
      ],
      "name": "mint",
      "outputs": [],
      "stateMutability": "nonpayable",
      "type": "function"
    },
    {
      "inputs": [
        {
          "internalType": "address",
          "name": "from",
          "type": "address"
        },
        {
          "internalType": "address",
          "name": "to",
          "type": "address"
        },
        {
          "internalType": "uint256[]",
          "name": "ids",
          "type": "uint256[]"
        },
        {
          "internalType": "uint256[]",
          "name": "amounts",
          "type": "uint256[]"
        },
        {
          "internalType": "bytes",
          "name": "data",
          "type": "bytes"
        }
      ],
      "name": "safeBatchTransferFrom",
      "outputs": [],
      "stateMutability": "nonpayable",
      "type": "function"
    },
    {
      "inputs": [
        {
          "internalType": "address",
          "name": "from",
          "type": "address"
        },
        {
          "internalType": "address",
          "name": "to",
          "type": "address"
        },
        {
          "internalType": "uint256",
          "name": "id",
          "type": "uint256"
        },
        {
          "internalType": "uint256",
          "name": "amount",
          "type": "uint256"
        },
        {
          "internalType": "bytes",
          "name": "data",
          "type": "bytes"
        }
      ],
      "name": "safeTransferFrom",
      "outputs": [],
      "stateMutability": "nonpayable",
      "type": "function"
    },
    {
      "inputs": [
        {
          "internalType": "address",
          "name": "operator",
          "type": "address"
        },
        {
          "internalType": "bool",
          "name": "approved",
          "type": "bool"
        }
      ],
      "name": "setApprovalForAll",
      "outputs": [],
      "stateMutability": "nonpayable",
      "type": "function"
    },
    {
      "inputs": [
        {
          "internalType": "string",
          "name": "_marketId",
          "type": "string"
        },
        {
          "internalType": "uint256",
          "name": "_tokenId",
          "type": "uint256"
        },
        {
          "internalType": "string",
          "name": "_tokenUri",
          "type": "string"
        },
        {
          "internalType": "uint256",
          "name": "_quantity",
          "type": "uint256"
        },
        {
          "internalType": "bool",
          "name": "_isBalanceEmpty",
          "type": "bool"
        },
        {
          "internalType": "address",
          "name": "buyer",
          "type": "address"
        }
      ],
      "name": "setKRWOrder",
      "outputs": [
        {
          "internalType": "uint256",
          "name": "",
          "type": "uint256"
        }
      ],
      "stateMutability": "payable",
      "type": "function"
    },
    {
      "inputs": [
        {
          "internalType": "string",
          "name": "_marketId",
          "type": "string"
        },
        {
          "internalType": "uint256",
          "name": "_tokenId",
          "type": "uint256"
        },
        {
          "internalType": "string",
          "name": "_tokenUri",
          "type": "string"
        },
        {
          "internalType": "uint256",
          "name": "_quantity",
          "type": "uint256"
        },
        {
          "internalType": "bool",
          "name": "_isBalanceEmpty",
          "type": "bool"
        },
        {
          "internalType": "address",
          "name": "buyer",
          "type": "address"
        }
      ],
      "name": "setKRWOrderRestore",
      "outputs": [
        {
          "internalType": "uint256",
          "name": "",
          "type": "uint256"
        }
      ],
      "stateMutability": "payable",
      "type": "function"
    },
    {
      "inputs": [
        {
          "internalType": "string",
          "name": "_marketId",
          "type": "string"
        },
        {
          "internalType": "uint256",
          "name": "_tokenId",
          "type": "uint256"
        },
        {
          "internalType": "uint256",
          "name": "_supply",
          "type": "uint256"
        },
        {
          "internalType": "string",
          "name": "_tokenUri",
          "type": "string"
        },
        {
          "internalType": "address",
          "name": "_seller",
          "type": "address"
        }
      ],
      "name": "setListing",
      "outputs": [
        {
          "internalType": "string",
          "name": "",
          "type": "string"
        }
      ],
      "stateMutability": "nonpayable",
      "type": "function"
    },
    {
      "inputs": [
        {
          "internalType": "uint256",
          "name": "_tokenId",
          "type": "uint256"
        },
        {
          "internalType": "uint256",
          "name": "_supply",
          "type": "uint256"
        },
        {
          "internalType": "string",
          "name": "_tokenUri",
          "type": "string"
        },
        {
          "internalType": "address",
          "name": "_creator",
          "type": "address"
        }
      ],
      "name": "setMint",
      "outputs": [
        {
          "internalType": "uint256",
          "name": "",
          "type": "uint256"
        }
      ],
      "stateMutability": "nonpayable",
      "type": "function"
    },
    {
      "inputs": [
        {
          "internalType": "string",
          "name": "_marketId",
          "type": "string"
        },
        {
          "internalType": "uint256",
          "name": "_tokenId",
          "type": "uint256"
        },
        {
          "internalType": "uint256",
          "name": "_quantity",
          "type": "uint256"
        },
        {
          "internalType": "uint256",
          "name": "_createFee",
          "type": "uint256"
        },
        {
          "internalType": "uint256",
          "name": "_serviceFee",
          "type": "uint256"
        },
        {
          "internalType": "uint256",
          "name": "_sellerPrice",
          "type": "uint256"
        },
        {
          "internalType": "string",
          "name": "_tokenUri",
          "type": "string"
        },
        {
          "internalType": "bool",
          "name": "_isBalanceEmpty",
          "type": "bool"
        }
      ],
      "name": "setOrder",
      "outputs": [
        {
          "internalType": "uint256",
          "name": "",
          "type": "uint256"
        }
      ],
      "stateMutability": "payable",
      "type": "function"
    },
    {
      "inputs": [
        {
          "internalType": "uint256",
          "name": "_tokenId",
          "type": "uint256"
        },
        {
          "internalType": "string",
          "name": "_uri",
          "type": "string"
        }
      ],
      "name": "setTokenUri",
      "outputs": [],
      "stateMutability": "nonpayable",
      "type": "function"
    },
    {
      "inputs": [
        {
          "internalType": "bytes4",
          "name": "interfaceId",
          "type": "bytes4"
        }
      ],
      "name": "supportsInterface",
      "outputs": [
        {
          "internalType": "bool",
          "name": "",
          "type": "bool"
        }
      ],
      "stateMutability": "view",
      "type": "function"
    },
    {
      "inputs": [
        {
          "internalType": "uint256",
          "name": "tokenId",
          "type": "uint256"
        }
      ],
      "name": "uri",
      "outputs": [
        {
          "internalType": "string",
          "name": "",
          "type": "string"
        }
      ],
      "stateMutability": "view",
      "type": "function"
    }
  ],
  "bytecode": "0x608060405234801561001057600080fd5b506127ca806100206000396000f3fe6080604052600436106101085760003560e01c80638129fc1c11610095578063cc2c9a8611610064578063cc2c9a86146102dc578063d4f0fb40146102ef578063e985e9c51461030f578063f242432a1461032f578063fbfeebe01461034f57600080fd5b80638129fc1c1461025f578063893d20e814610274578063894d826b1461029c578063a22cb465146102bc57600080fd5b80632eb2c2d6116100dc5780632eb2c2d6146101bf578063316f3910146101df5780634e1273f4146101f257806357f7789e1461021f57806379b62d5e1461023f57600080fd5b8062fdd58e1461010d57806301ffc9a7146101405780630e89341c14610170578063156e29f61461019d575b600080fd5b34801561011957600080fd5b5061012d610128366004611d67565b610362565b6040519081526020015b60405180910390f35b34801561014c57600080fd5b5061016061015b366004611e94565b6103fa565b6040519015158152602001610137565b34801561017c57600080fd5b5061019061018b36600461208f565b61044c565b60405161013791906122ab565b3480156101a957600080fd5b506101bd6101b8366004611d91565b6104ee565b005b3480156101cb57600080fd5b506101bd6101da366004611c30565b610562565b61012d6101ed366004611ece565b6105ae565b3480156101fe57600080fd5b5061021261020d366004611dc4565b6107bf565b604051610137919061226a565b34801561022b57600080fd5b506101bd61023a3660046120a8565b6108e8565b34801561024b57600080fd5b5061012d61025a3660046120e4565b61096b565b34801561026b57600080fd5b506101bd610a9c565b34801561028057600080fd5b5060c9546040516001600160a01b039091168152602001610137565b3480156102a857600080fd5b506101906102b7366004611f64565b610bcf565b3480156102c857600080fd5b506101bd6102d7366004611d3d565b610d46565b61012d6102ea366004611ece565b610d8b565b3480156102fb57600080fd5b506101bd61030a366004611bdb565b610e2e565b34801561031b57600080fd5b5061016061032a366004611bfd565b610e8c565b34801561033b57600080fd5b506101bd61034a366004611cd9565b610eba565b61012d61035d366004611feb565b610eff565b60006001600160a01b0383166103d25760405162461bcd60e51b815260206004820152602a60248201527f455243313135353a2061646472657373207a65726f206973206e6f742061207660448201526930b634b21037bbb732b960b11b60648201526084015b60405180910390fd5b5060009081526065602090815260408083206001600160a01b03949094168352929052205490565b60006001600160e01b03198216636cdb3d1360e11b148061042b57506001600160e01b031982166303a24d0760e21b145b8061044657506301ffc9a760e01b6001600160e01b03198316145b92915050565b600081815260ca60205260409020805460609190610469906125e9565b80601f0160208091040260200160405190810160405280929190818152602001828054610495906125e9565b80156104e25780601f106104b7576101008083540402835291602001916104e2565b820191906000526020600020905b8154815290600101906020018083116104c557829003601f168201915b50505050509050919050565b60c9546001600160a01b031633146105185760405162461bcd60e51b81526004016103c9906123b2565b610533838383604051806020016040528060008152506111f4565b50600090815260cb6020526040902080546001600160a01b0319166001600160a01b0392909216919091179055565b6001600160a01b03851633148061057e575061057e8533610e8c565b61059a5760405162461bcd60e51b81526004016103c9906122f1565b6105a7858585858561130a565b5050505050565b60c9546000906001600160a01b031633146105db5760405162461bcd60e51b81526004016103c9906123b2565b60008751116105fc5760405162461bcd60e51b81526004016103c990612388565b8361062f60cc8960405161061091906121ab565b908152604051908190036020019020546001600160a01b031688610362565b101561066f5760405162461bcd60e51b815260206004820152600f60248201526e436865636b205175616e746974792160881b60448201526064016103c9565b6000861161068f5760405162461bcd60e51b81526004016103c990612490565b60008551116106b05760405162461bcd60e51b81526004016103c99061241c565b61070160cc886040516106c391906121ab565b9081526040805191829003602090810183205483830190925260048352630307830360e41b908301526001600160a01b0316908490899088906114ea565b82156107385761073860cc8860405161071a91906121ab565b908152604051908190036020019020546001600160a01b0316610e2e565b8660405161074691906121ab565b60405180910390207fd1755ff4ac6a7505a5f75484540b47382edcf994d187c692b51ed564efa785d787878760cc8c60405161078291906121ab565b908152604051908190036020018120546107ac949392916001600160a01b0390911690899061253e565b60405180910390a2509395945050505050565b606081518351146108245760405162461bcd60e51b815260206004820152602960248201527f455243313135353a206163636f756e747320616e6420696473206c656e677468604482015268040dad2e6dac2e8c6d60bb1b60648201526084016103c9565b600083516001600160401b0381111561083f5761083f612697565b604051908082528060200260200182016040528015610868578160200160208202803683370190505b50905060005b84518110156108e0576108b385828151811061088c5761088c612681565b60200260200101518583815181106108a6576108a6612681565b6020026020010151610362565b8282815181106108c5576108c5612681565b60209081029190910101526108d981612650565b905061086e565b509392505050565b600082815260ca602052604090208054610901906125e9565b1590506109475760405162461bcd60e51b815260206004820152601460248201527343616e6e6f74207365742075726920747769636560601b60448201526064016103c9565b600082815260ca60209081526040909120825161096692840190611a2c565b505050565b60c9546000906001600160a01b031633146109985760405162461bcd60e51b81526004016103c9906123b2565b600084116109d85760405162461bcd60e51b815260206004820152600d60248201526c436865636b20537570706c792160981b60448201526064016103c9565b600085116109f85760405162461bcd60e51b81526004016103c990612490565b6000835111610a195760405162461bcd60e51b81526004016103c99061241c565b610a248286866104ee565b610a2e85846108e8565b600085815260cb60205260409081902080546001600160a01b0319166001600160a01b0385161790555185907f0a836d5d39466b2f36a382ee6a87b1a98c0e06d4da9c2c00222919c25f0bb5d390610a8b908690889087906122be565b60405180910390a250929392505050565b600054610100900460ff1615808015610abc5750600054600160ff909116105b80610ad65750303b158015610ad6575060005460ff166001145b610b395760405162461bcd60e51b815260206004820152602e60248201527f496e697469616c697a61626c653a20636f6e747261637420697320616c72656160448201526d191e481a5b9a5d1a585b1a5e995960921b60648201526084016103c9565b6000805460ff191660011790558015610b5c576000805461ff0019166101001790555b610b6533611618565b610b866040518060600160405280602c8152602001612769602c9139611661565b8015610bcc576000805461ff0019169055604051600181527f7f26b83ff96e1f2b6a682f133852f6798a09c465da95921460cefb38474024989060200160405180910390a15b50565b60c9546060906001600160a01b03163314610bfc5760405162461bcd60e51b81526004016103c9906123b2565b6000865111610c1d5760405162461bcd60e51b81526004016103c990612388565b60008411610c5d5760405162461bcd60e51b815260206004820152600d60248201526c436865636b20537570706c792160981b60448201526064016103c9565b60008511610c7d5760405162461bcd60e51b81526004016103c990612490565b6000835111610c9e5760405162461bcd60e51b81526004016103c99061241c565b8160cc87604051610caf91906121ab565b90815260405190819003602001902080546001600160a01b03929092166001600160a01b0319909216919091179055610ce9826001610d46565b85604051610cf791906121ab565b60405180910390207fb096e356679dacc242e62c27e88abe819c505dcfae5355c592b10d79b8425fbc86858786604051610d349493929190612504565b60405180910390a25093949350505050565b60c9546001600160a01b03163314610d705760405162461bcd60e51b81526004016103c9906123b2565b60c954610d87906001600160a01b03168383611691565b5050565b60c9546000906001600160a01b0316331480610de2575060c954604051610de2916001600160a01b03169060cc90610dc4908b906121ab565b908152604051908190036020019020546001600160a01b0316610e8c565b6105db5760405162461bcd60e51b815260206004820152601760248201527f4f6e6c79204f776e6572206f7220417070726f7665642100000000000000000060448201526064016103c9565b60c9546001600160a01b0316331480610e58575060c954610e58906001600160a01b031682610e8c565b610e745760405162461bcd60e51b81526004016103c9906123b2565b60c954610bcc906001600160a01b0316826000611691565b6001600160a01b03918216600090815260666020908152604080832093909416825291909152205460ff1690565b6001600160a01b038516331480610ed65750610ed68533610e8c565b610ef25760405162461bcd60e51b81526004016103c9906122f1565b6105a785858585856114ea565b600080895111610f215760405162461bcd60e51b81526004016103c990612388565b86610f5460cc8b604051610f3591906121ab565b908152604051908190036020019020546001600160a01b03168a610362565b1015610f945760405162461bcd60e51b815260206004820152600f60248201526e436865636b205175616e746974792160881b60448201526064016103c9565b60008811610fb45760405162461bcd60e51b81526004016103c990612490565b6000835111610fd55760405162461bcd60e51b81526004016103c99061241c565b3484610fe187896125a1565b610feb91906125a1565b146110275760405162461bcd60e51b815260206004820152600c60248201526b436865636b2050726963652160a01b60448201526064016103c9565b61107860cc8a60405161103a91906121ab565b9081526040805191829003602090810183205483830190925260048352630307830360e41b908301526001600160a01b03169033908b908b906114ea565b85156110c457600088815260cb60205260408082205490516001600160a01b039091169188156108fc02918991818181858888f193505050501580156110c2573d6000803e3d6000fd5b505b60cc896040516110d491906121ab565b908152604051908190036020018120546001600160a01b03169085156108fc029086906000818181858888f19350505050158015611116573d6000803e3d6000fd5b5060c9546040516001600160a01b039091169086156108fc029087906000818181858888f19350505050158015611151573d6000803e3d6000fd5b50811561116b5761116b60cc8a60405161071a91906121ab565b8860405161117991906121ab565b60405180910390207fd1755ff4ac6a7505a5f75484540b47382edcf994d187c692b51ed564efa785d789858a60cc8e6040516111b591906121ab565b908152604051908190036020018120546111df949392916001600160a01b0390911690339061253e565b60405180910390a25095979650505050505050565b6001600160a01b0384166112545760405162461bcd60e51b815260206004820152602160248201527f455243313135353a206d696e7420746f20746865207a65726f206164647265736044820152607360f81b60648201526084016103c9565b33600061126085611772565b9050600061126d85611772565b905060008681526065602090815260408083206001600160a01b038b168452909152812080548792906112a19084906125a1565b909155505060408051878152602081018790526001600160a01b03808a1692600092918716917fc3d58168c5ae7397731d063d5bbf3d657854427343f4c083240f7aacaa2d0f62910160405180910390a4611301836000898989896117bd565b50505050505050565b815183511461136c5760405162461bcd60e51b815260206004820152602860248201527f455243313135353a2069647320616e6420616d6f756e7473206c656e677468206044820152670dad2e6dac2e8c6d60c31b60648201526084016103c9565b6001600160a01b0384166113925760405162461bcd60e51b81526004016103c9906123d7565b3360005b845181101561147c5760008582815181106113b3576113b3612681565b6020026020010151905060008583815181106113d1576113d1612681565b60209081029190910181015160008481526065835260408082206001600160a01b038e1683529093529190912054909150818110156114225760405162461bcd60e51b81526004016103c990612446565b60008381526065602090815260408083206001600160a01b038e8116855292528083208585039055908b168252812080548492906114619084906125a1565b925050819055505050508061147590612650565b9050611396565b50846001600160a01b0316866001600160a01b0316826001600160a01b03167f4a39dc06d4c0dbc64b70af90fd698a233a518aa5d07e595d983b8c0526c8f7fb87876040516114cc92919061227d565b60405180910390a46114e2818787878787611928565b505050505050565b6001600160a01b0384166115105760405162461bcd60e51b81526004016103c9906123d7565b33600061151c85611772565b9050600061152985611772565b905060008681526065602090815260408083206001600160a01b038c1684529091529020548581101561156e5760405162461bcd60e51b81526004016103c990612446565b60008781526065602090815260408083206001600160a01b038d8116855292528083208985039055908a168252812080548892906115ad9084906125a1565b909155505060408051888152602081018890526001600160a01b03808b16928c821692918816917fc3d58168c5ae7397731d063d5bbf3d657854427343f4c083240f7aacaa2d0f62910160405180910390a461160d848a8a8a8a8a6117bd565b505050505050505050565b600054610100900460ff1661163f5760405162461bcd60e51b81526004016103c9906124b9565b60c980546001600160a01b0319166001600160a01b0392909216919091179055565b600054610100900460ff166116885760405162461bcd60e51b81526004016103c9906124b9565b610bcc816119f2565b816001600160a01b0316836001600160a01b031614156117055760405162461bcd60e51b815260206004820152602960248201527f455243313135353a2073657474696e6720617070726f76616c20737461747573604482015268103337b91039b2b63360b91b60648201526084016103c9565b6001600160a01b03838116600081815260666020908152604080832094871680845294825291829020805460ff191686151590811790915591519182527f17307eab39ab6107e8899845ad3d59bd9653f200f220920489ca2b5937696c31910160405180910390a3505050565b604080516001808252818301909252606091600091906020808301908036833701905050905082816000815181106117ac576117ac612681565b602090810291909101015292915050565b6001600160a01b0384163b156114e25760405163f23a6e6160e01b81526001600160a01b0385169063f23a6e61906118019089908990889088908890600401612225565b602060405180830381600087803b15801561181b57600080fd5b505af192505050801561184b575060408051601f3d908101601f1916820190925261184891810190611eb1565b60015b6118f8576118576126ad565b806308c379a01415611891575061186c6126c9565b806118775750611893565b8060405162461bcd60e51b81526004016103c991906122ab565b505b60405162461bcd60e51b815260206004820152603460248201527f455243313135353a207472616e7366657220746f206e6f6e20455243313135356044820152732932b1b2b4bb32b91034b6b83632b6b2b73a32b960611b60648201526084016103c9565b6001600160e01b0319811663f23a6e6160e01b146113015760405162461bcd60e51b81526004016103c990612340565b6001600160a01b0384163b156114e25760405163bc197c8160e01b81526001600160a01b0385169063bc197c819061196c90899089908890889088906004016121c7565b602060405180830381600087803b15801561198657600080fd5b505af19250505080156119b6575060408051601f3d908101601f191682019092526119b391810190611eb1565b60015b6119c2576118576126ad565b6001600160e01b0319811663bc197c8160e01b146113015760405162461bcd60e51b81526004016103c990612340565b600054610100900460ff16611a195760405162461bcd60e51b81526004016103c9906124b9565b610bcc818051610d879060679060208401905b828054611a38906125e9565b90600052602060002090601f016020900481019282611a5a5760008555611aa0565b82601f10611a7357805160ff1916838001178555611aa0565b82800160010185558215611aa0579182015b82811115611aa0578251825591602001919060010190611a85565b50611aac929150611ab0565b5090565b5b80821115611aac5760008155600101611ab1565b80356001600160a01b0381168114611adc57600080fd5b919050565b600082601f830112611af257600080fd5b81356020611aff8261257e565b604051611b0c8282612624565b8381528281019150858301600585901b87018401881015611b2c57600080fd5b60005b85811015611b4b57813584529284019290840190600101611b2f565b5090979650505050505050565b80358015158114611adc57600080fd5b600082601f830112611b7957600080fd5b81356001600160401b03811115611b9257611b92612697565b604051611ba9601f8301601f191660200182612624565b818152846020838601011115611bbe57600080fd5b816020850160208301376000918101602001919091529392505050565b600060208284031215611bed57600080fd5b611bf682611ac5565b9392505050565b60008060408385031215611c1057600080fd5b611c1983611ac5565b9150611c2760208401611ac5565b90509250929050565b600080600080600060a08688031215611c4857600080fd5b611c5186611ac5565b9450611c5f60208701611ac5565b935060408601356001600160401b0380821115611c7b57600080fd5b611c8789838a01611ae1565b94506060880135915080821115611c9d57600080fd5b611ca989838a01611ae1565b93506080880135915080821115611cbf57600080fd5b50611ccc88828901611b68565b9150509295509295909350565b600080600080600060a08688031215611cf157600080fd5b611cfa86611ac5565b9450611d0860208701611ac5565b9350604086013592506060860135915060808601356001600160401b03811115611d3157600080fd5b611ccc88828901611b68565b60008060408385031215611d5057600080fd5b611d5983611ac5565b9150611c2760208401611b58565b60008060408385031215611d7a57600080fd5b611d8383611ac5565b946020939093013593505050565b600080600060608486031215611da657600080fd5b611daf84611ac5565b95602085013595506040909401359392505050565b60008060408385031215611dd757600080fd5b82356001600160401b0380821115611dee57600080fd5b818501915085601f830112611e0257600080fd5b81356020611e0f8261257e565b604051611e1c8282612624565b8381528281019150858301600585901b870184018b1015611e3c57600080fd5b600096505b84871015611e6657611e5281611ac5565b835260019690960195918301918301611e41565b5096505086013592505080821115611e7d57600080fd5b50611e8a85828601611ae1565b9150509250929050565b600060208284031215611ea657600080fd5b8135611bf681612752565b600060208284031215611ec357600080fd5b8151611bf681612752565b60008060008060008060c08789031215611ee757600080fd5b86356001600160401b0380821115611efe57600080fd5b611f0a8a838b01611b68565b9750602089013596506040890135915080821115611f2757600080fd5b50611f3489828a01611b68565b94505060608701359250611f4a60808801611b58565b9150611f5860a08801611ac5565b90509295509295509295565b600080600080600060a08688031215611f7c57600080fd5b85356001600160401b0380821115611f9357600080fd5b611f9f89838a01611b68565b965060208801359550604088013594506060880135915080821115611fc357600080fd5b50611fd088828901611b68565b925050611fdf60808701611ac5565b90509295509295909350565b600080600080600080600080610100898b03121561200857600080fd5b88356001600160401b038082111561201f57600080fd5b61202b8c838d01611b68565b995060208b0135985060408b0135975060608b0135965060808b0135955060a08b0135945060c08b013591508082111561206457600080fd5b506120718b828c01611b68565b92505061208060e08a01611b58565b90509295985092959890939650565b6000602082840312156120a157600080fd5b5035919050565b600080604083850312156120bb57600080fd5b8235915060208301356001600160401b038111156120d857600080fd5b611e8a85828601611b68565b600080600080608085870312156120fa57600080fd5b843593506020850135925060408501356001600160401b0381111561211e57600080fd5b61212a87828801611b68565b92505061213960608601611ac5565b905092959194509250565b600081518084526020808501945080840160005b8381101561217457815187529582019590820190600101612158565b509495945050505050565b600081518084526121978160208601602086016125b9565b601f01601f19169290920160200192915050565b600082516121bd8184602087016125b9565b9190910192915050565b6001600160a01b0386811682528516602082015260a0604082018190526000906121f390830186612144565b82810360608401526122058186612144565b90508281036080840152612219818561217f565b98975050505050505050565b6001600160a01b03868116825285166020820152604081018490526060810183905260a06080820181905260009061225f9083018461217f565b979650505050505050565b602081526000611bf66020830184612144565b6040815260006122906040830185612144565b82810360208401526122a28185612144565b95945050505050565b602081526000611bf6602083018461217f565b6060815260006122d1606083018661217f565b6020830194909452506001600160a01b0391909116604090910152919050565b6020808252602f908201527f455243313135353a2063616c6c6572206973206e6f7420746f6b656e206f776e60408201526e195c881b9bdc88185c1c1c9bdd9959608a1b606082015260800190565b60208082526028908201527f455243313135353a204552433131353552656365697665722072656a656374656040820152676420746f6b656e7360c01b606082015260800190565b60208082526010908201526f436865636b204d61726b65742049642160801b604082015260600190565b6020808252600b908201526a4f6e6c79204f776e65722160a81b604082015260600190565b60208082526025908201527f455243313135353a207472616e7366657220746f20746865207a65726f206164604082015264647265737360d81b606082015260800190565b60208082526010908201526f436865636b20546f6b656e205572692160801b604082015260600190565b6020808252602a908201527f455243313135353a20696e73756666696369656e742062616c616e636520666f60408201526939103a3930b739b332b960b11b606082015260800190565b6020808252600f908201526e436865636b20546f6b656e2049642160881b604082015260600190565b6020808252602b908201527f496e697469616c697a61626c653a20636f6e7472616374206973206e6f74206960408201526a6e697469616c697a696e6760a81b606082015260800190565b84815260806020820152600061251d608083018661217f565b6040830194909452506001600160a01b039190911660609091015292915050565b85815260a06020820152600061255760a083018761217f565b6040830195909552506001600160a01b039283166060820152911660809091015292915050565b60006001600160401b0382111561259757612597612697565b5060051b60200190565b600082198211156125b4576125b461266b565b500190565b60005b838110156125d45781810151838201526020016125bc565b838111156125e3576000848401525b50505050565b600181811c908216806125fd57607f821691505b6020821081141561261e57634e487b7160e01b600052602260045260246000fd5b50919050565b601f8201601f191681016001600160401b038111828210171561264957612649612697565b6040525050565b60006000198214156126645761266461266b565b5060010190565b634e487b7160e01b600052601160045260246000fd5b634e487b7160e01b600052603260045260246000fd5b634e487b7160e01b600052604160045260246000fd5b600060033d11156126c65760046000803e5060005160e01c5b90565b600060443d10156126d75790565b6040516003193d81016004833e81513d6001600160401b03816024840111818411171561270657505050505090565b828501915081518181111561271e5750505050505090565b843d87010160208285010111156127385750505050505090565b61274760208286010187612624565b509095945050505050565b6001600160e01b031981168114610bcc57600080fdfe68747470733a2f2f64656e61697373616e63652e6d7970696e6174612e636c6f75642f697066732f7b69647da2646970667358221220b08f9ad87a0a9ae7c1af337defc08234f4cf3fd39c875ea42f7b182d8838182264736f6c63430008070033",
  "linkReferences": {},
  "deployedLinkReferences": {}
}