{
  "_format": "hh-sol-artifact-1",
  "contractName": "KlaytnKIP17",
  "sourceName": "contracts/KlaytnKIP17.sol",
  "abi": [
    {
      "inputs": [],
      "stateMutability": "nonpayable",
      "type": "constructor"
    },
    {
      "anonymous": false,
      "inputs": [
        {
          "indexed": true,
          "internalType": "address",
          "name": "owner",
          "type": "address"
        },
        {
          "indexed": true,
          "internalType": "address",
          "name": "approved",
          "type": "address"
        },
        {
          "indexed": true,
          "internalType": "uint256",
          "name": "tokenId",
          "type": "uint256"
        }
      ],
      "name": "Approval",
      "type": "event"
    },
    {
      "anonymous": false,
      "inputs": [
        {
          "indexed": true,
          "internalType": "address",
          "name": "owner",
          "type": "address"
        },
        {
          "indexed": true,
          "internalType": "address",
          "name": "operator",
          "type": "address"
        },
        {
          "indexed": false,
          "internalType": "bool",
          "name": "approved",
          "type": "bool"
        }
      ],
      "name": "ApprovalForAll",
      "type": "event"
    },
    {
      "anonymous": false,
      "inputs": [
        {
          "indexed": true,
          "internalType": "address",
          "name": "from",
          "type": "address"
        },
        {
          "indexed": true,
          "internalType": "address",
          "name": "to",
          "type": "address"
        },
        {
          "indexed": true,
          "internalType": "uint256",
          "name": "tokenId",
          "type": "uint256"
        }
      ],
      "name": "Transfer",
      "type": "event"
    },
    {
      "anonymous": false,
      "inputs": [
        {
          "indexed": true,
          "internalType": "uint256",
          "name": "tokenId",
          "type": "uint256"
        },
        {
          "indexed": false,
          "internalType": "string",
          "name": "tokenUri",
          "type": "string"
        },
        {
          "indexed": false,
          "internalType": "address",
          "name": "ownerAdress",
          "type": "address"
        }
      ],
      "name": "assetInformation",
      "type": "event"
    },
    {
      "anonymous": false,
      "inputs": [
        {
          "indexed": true,
          "internalType": "string",
          "name": "marektId",
          "type": "string"
        },
        {
          "indexed": false,
          "internalType": "uint256",
          "name": "tokenId",
          "type": "uint256"
        },
        {
          "indexed": false,
          "internalType": "string",
          "name": "tokenUri",
          "type": "string"
        },
        {
          "indexed": false,
          "internalType": "address",
          "name": "ownerAdress",
          "type": "address"
        }
      ],
      "name": "marketInformation",
      "type": "event"
    },
    {
      "anonymous": false,
      "inputs": [
        {
          "indexed": true,
          "internalType": "string",
          "name": "marektId",
          "type": "string"
        },
        {
          "indexed": false,
          "internalType": "uint256",
          "name": "tokenId",
          "type": "uint256"
        },
        {
          "indexed": false,
          "internalType": "string",
          "name": "tokenUri",
          "type": "string"
        },
        {
          "indexed": false,
          "internalType": "address",
          "name": "sellerAdress",
          "type": "address"
        },
        {
          "indexed": false,
          "internalType": "address",
          "name": "buyerAdress",
          "type": "address"
        }
      ],
      "name": "orderInformation",
      "type": "event"
    },
    {
      "inputs": [
        {
          "internalType": "address",
          "name": "to",
          "type": "address"
        },
        {
          "internalType": "uint256",
          "name": "tokenId",
          "type": "uint256"
        }
      ],
      "name": "approve",
      "outputs": [],
      "stateMutability": "nonpayable",
      "type": "function"
    },
    {
      "inputs": [
        {
          "internalType": "address",
          "name": "owner",
          "type": "address"
        }
      ],
      "name": "balanceOf",
      "outputs": [
        {
          "internalType": "uint256",
          "name": "",
          "type": "uint256"
        }
      ],
      "stateMutability": "view",
      "type": "function"
    },
    {
      "inputs": [
        {
          "internalType": "address",
          "name": "operator",
          "type": "address"
        }
      ],
      "name": "deleteApprovalForAll",
      "outputs": [],
      "stateMutability": "nonpayable",
      "type": "function"
    },
    {
      "inputs": [
        {
          "internalType": "uint256",
          "name": "tokenId",
          "type": "uint256"
        }
      ],
      "name": "getApproved",
      "outputs": [
        {
          "internalType": "address",
          "name": "",
          "type": "address"
        }
      ],
      "stateMutability": "view",
      "type": "function"
    },
    {
      "inputs": [],
      "name": "getOwner",
      "outputs": [
        {
          "internalType": "address",
          "name": "",
          "type": "address"
        }
      ],
      "stateMutability": "view",
      "type": "function"
    },
    {
      "inputs": [
        {
          "internalType": "address",
          "name": "owner",
          "type": "address"
        },
        {
          "internalType": "address",
          "name": "operator",
          "type": "address"
        }
      ],
      "name": "isApprovedForAll",
      "outputs": [
        {
          "internalType": "bool",
          "name": "",
          "type": "bool"
        }
      ],
      "stateMutability": "view",
      "type": "function"
    },
    {
      "inputs": [
        {
          "internalType": "uint256",
          "name": "_tokenId",
          "type": "uint256"
        },
        {
          "internalType": "string",
          "name": "_tokenURI",
          "type": "string"
        },
        {
          "internalType": "uint256",
          "name": "_quantity",
          "type": "uint256"
        }
      ],
      "name": "mintMulty",
      "outputs": [],
      "stateMutability": "nonpayable",
      "type": "function"
    },
    {
      "inputs": [
        {
          "internalType": "uint256",
          "name": "_tokenId",
          "type": "uint256"
        },
        {
          "internalType": "string",
          "name": "_tokenURI",
          "type": "string"
        },
        {
          "internalType": "address",
          "name": "_creator",
          "type": "address"
        }
      ],
      "name": "mintSingle",
      "outputs": [],
      "stateMutability": "nonpayable",
      "type": "function"
    },
    {
      "inputs": [],
      "name": "name",
      "outputs": [
        {
          "internalType": "string",
          "name": "",
          "type": "string"
        }
      ],
      "stateMutability": "view",
      "type": "function"
    },
    {
      "inputs": [
        {
          "internalType": "uint256",
          "name": "tokenId",
          "type": "uint256"
        }
      ],
      "name": "ownerOf",
      "outputs": [
        {
          "internalType": "address",
          "name": "",
          "type": "address"
        }
      ],
      "stateMutability": "view",
      "type": "function"
    },
    {
      "inputs": [
        {
          "internalType": "address",
          "name": "from",
          "type": "address"
        },
        {
          "internalType": "address",
          "name": "to",
          "type": "address"
        },
        {
          "internalType": "uint256",
          "name": "tokenId",
          "type": "uint256"
        }
      ],
      "name": "safeTransferFrom",
      "outputs": [],
      "stateMutability": "nonpayable",
      "type": "function"
    },
    {
      "inputs": [
        {
          "internalType": "address",
          "name": "from",
          "type": "address"
        },
        {
          "internalType": "address",
          "name": "to",
          "type": "address"
        },
        {
          "internalType": "uint256",
          "name": "tokenId",
          "type": "uint256"
        },
        {
          "internalType": "bytes",
          "name": "_data",
          "type": "bytes"
        }
      ],
      "name": "safeTransferFrom",
      "outputs": [],
      "stateMutability": "nonpayable",
      "type": "function"
    },
    {
      "inputs": [
        {
          "internalType": "address",
          "name": "operator",
          "type": "address"
        },
        {
          "internalType": "bool",
          "name": "approved",
          "type": "bool"
        }
      ],
      "name": "setApprovalForAll",
      "outputs": [],
      "stateMutability": "nonpayable",
      "type": "function"
    },
    {
      "inputs": [
        {
          "internalType": "string",
          "name": "_marketId",
          "type": "string"
        },
        {
          "internalType": "uint256",
          "name": "_tokenId",
          "type": "uint256"
        },
        {
          "internalType": "string",
          "name": "_tokenUri",
          "type": "string"
        },
        {
          "internalType": "bool",
          "name": "_isBalanceEmpty",
          "type": "bool"
        },
        {
          "internalType": "address",
          "name": "buyer",
          "type": "address"
        }
      ],
      "name": "setKrwOrder",
      "outputs": [],
      "stateMutability": "nonpayable",
      "type": "function"
    },
    {
      "inputs": [
        {
          "internalType": "string",
          "name": "_marketId",
          "type": "string"
        },
        {
          "internalType": "uint256",
          "name": "_tokenId",
          "type": "uint256"
        },
        {
          "internalType": "string",
          "name": "_tokenUri",
          "type": "string"
        },
        {
          "internalType": "address",
          "name": "_seller",
          "type": "address"
        }
      ],
      "name": "setListing",
      "outputs": [
        {
          "internalType": "string",
          "name": "",
          "type": "string"
        }
      ],
      "stateMutability": "nonpayable",
      "type": "function"
    },
    {
      "inputs": [
        {
          "internalType": "string",
          "name": "_marketId",
          "type": "string"
        },
        {
          "internalType": "uint256",
          "name": "_tokenId",
          "type": "uint256"
        },
        {
          "internalType": "uint256",
          "name": "_createFee",
          "type": "uint256"
        },
        {
          "internalType": "uint256",
          "name": "_serviceFee",
          "type": "uint256"
        },
        {
          "internalType": "uint256",
          "name": "_sellerPrice",
          "type": "uint256"
        },
        {
          "internalType": "string",
          "name": "_tokenUri",
          "type": "string"
        },
        {
          "internalType": "bool",
          "name": "_isBalanceEmpty",
          "type": "bool"
        }
      ],
      "name": "setOrder",
      "outputs": [],
      "stateMutability": "payable",
      "type": "function"
    },
    {
      "inputs": [
        {
          "internalType": "bytes4",
          "name": "interfaceId",
          "type": "bytes4"
        }
      ],
      "name": "supportsInterface",
      "outputs": [
        {
          "internalType": "bool",
          "name": "",
          "type": "bool"
        }
      ],
      "stateMutability": "view",
      "type": "function"
    },
    {
      "inputs": [],
      "name": "symbol",
      "outputs": [
        {
          "internalType": "string",
          "name": "",
          "type": "string"
        }
      ],
      "stateMutability": "view",
      "type": "function"
    },
    {
      "inputs": [
        {
          "internalType": "uint256",
          "name": "tokenId",
          "type": "uint256"
        }
      ],
      "name": "tokenURI",
      "outputs": [
        {
          "internalType": "string",
          "name": "",
          "type": "string"
        }
      ],
      "stateMutability": "view",
      "type": "function"
    },
    {
      "inputs": [
        {
          "internalType": "address",
          "name": "from",
          "type": "address"
        },
        {
          "internalType": "address",
          "name": "to",
          "type": "address"
        },
        {
          "internalType": "uint256",
          "name": "tokenId",
          "type": "uint256"
        }
      ],
      "name": "transferFrom",
      "outputs": [],
      "stateMutability": "nonpayable",
      "type": "function"
    }
  ],
  "bytecode": "0x60806040523480156200001157600080fd5b50604080518082018252600e81526d11195b985a5cdcdb9858d953919560921b60208083019182528351808501909452600b84526a44656e61697373616e636560a81b9084015281519192916200006b916000916200009c565b508051620000819060019060208401906200009c565b5050600780546001600160a01b03191633179055506200017f565b828054620000aa9062000142565b90600052602060002090601f016020900481019282620000ce576000855562000119565b82601f10620000e957805160ff191683800117855562000119565b8280016001018555821562000119579182015b8281111562000119578251825591602001919060010190620000fc565b50620001279291506200012b565b5090565b5b808211156200012757600081556001016200012c565b600181811c908216806200015757607f821691505b602082108114156200017957634e487b7160e01b600052602260045260246000fd5b50919050565b6123d3806200018f6000396000f3fe60806040526004361061011f5760003560e01c8063893d20e8116100a0578063c87b56dd11610064578063c87b56dd14610329578063d0d4431614610349578063d3d3c13314610369578063d4f0fb4014610389578063e985e9c5146103a957600080fd5b8063893d20e8146102a35780638fe8cdb8146102c157806395d89b41146102d4578063a22cb465146102e9578063b88d4fde1461030957600080fd5b806323b872dd116100e757806323b872dd146101f55780634046f1f11461021557806342842e0e146102355780636352211e1461025557806370a082311461027557600080fd5b806301ffc9a71461012457806306fdde0314610159578063081812fc1461017b578063095ea7b3146101b35780630f0cdf2d146101d5575b600080fd5b34801561013057600080fd5b5061014461013f366004611d66565b6103c9565b60405190151581526020015b60405180910390f35b34801561016557600080fd5b5061016e61041b565b60405161015091906120bc565b34801561018757600080fd5b5061019b610196366004611f48565b6104ad565b6040516001600160a01b039091168152602001610150565b3480156101bf57600080fd5b506101d36101ce366004611d3c565b610539565b005b3480156101e157600080fd5b506101d36101f0366004611e1e565b610645565b34801561020157600080fd5b506101d3610210366004611c5a565b6107d8565b34801561022157600080fd5b506101d3610230366004611f61565b610809565b34801561024157600080fd5b506101d3610250366004611c5a565b610885565b34801561026157600080fd5b5061019b610270366004611f48565b6108a0565b34801561028157600080fd5b50610295610290366004611c0c565b610916565b604051908152602001610150565b3480156102af57600080fd5b506007546001600160a01b031661019b565b6101d36102cf366004611ead565b61099b565b3480156102e057600080fd5b5061016e610cb4565b3480156102f557600080fd5b506101d3610304366004611d12565b610cc3565b34801561031557600080fd5b506101d3610324366004611c96565b610d08565b34801561033557600080fd5b5061016e610344366004611f48565b610d40565b34801561035557600080fd5b5061016e610364366004611da0565b610eb6565b34801561037557600080fd5b506101d3610384366004611fb8565b610fea565b34801561039557600080fd5b506101d36103a4366004611c0c565b61105d565b3480156103b557600080fd5b506101446103c4366004611c27565b6110be565b60006001600160e01b031982166380ac58cd60e01b14806103fa57506001600160e01b03198216635b5e139f60e01b145b8061041557506301ffc9a760e01b6001600160e01b03198316145b92915050565b60606000805461042a906122c5565b80601f0160208091040260200160405190810160405280929190818152602001828054610456906122c5565b80156104a35780601f10610478576101008083540402835291602001916104a3565b820191906000526020600020905b81548152906001019060200180831161048657829003601f168201915b5050505050905090565b60006104b8826110ec565b61051d5760405162461bcd60e51b815260206004820152602b60248201527f4b495031373a20617070726f76656420717565727920666f72206e6f6e65786960448201526a39ba32b73a103a37b5b2b760a91b60648201526084015b60405180910390fd5b506000908152600460205260409020546001600160a01b031690565b6000610544826108a0565b9050806001600160a01b0316836001600160a01b031614156105a85760405162461bcd60e51b815260206004820181905260248201527f4b495031373a20617070726f76616c20746f2063757272656e74206f776e65726044820152606401610514565b336001600160a01b03821614806105c457506105c481336110be565b6106365760405162461bcd60e51b815260206004820152603760248201527f4b495031373a20617070726f76652063616c6c6572206973206e6f74206f776e60448201527f6572206e6f7220617070726f76656420666f7220616c6c0000000000000000006064820152608401610514565b6106408383611109565b505050565b6007546001600160a01b0316331461066f5760405162461bcd60e51b815260040161051490612123565b60008551116106905760405162461bcd60e51b8152600401610514906120f9565b600084116106b05760405162461bcd60e51b8152600401610514906121c2565b60008351116106d15760405162461bcd60e51b815260040161051490612148565b610720600a866040516106e49190612034565b9081526040805191829003602090810183205483830190925260048352630307830360e41b908301526001600160a01b03169083908790611177565b811561075757610757600a866040516107399190612034565b908152604051908190036020019020546001600160a01b031661105d565b846040516107659190612034565b60405180910390207f69aad170e34bd52cb9e2a8a6d2c36ebb1e653ae4e825dbf06fbb71905df79a978585600a896040516107a09190612034565b908152604051908190036020018120546107c99392916001600160a01b0390911690879061221c565b60405180910390a25050505050565b6107e2338261121c565b6107fe5760405162461bcd60e51b815260040161051490612172565b6106408383836112e4565b610813818461147e565b61081d83836115b1565b6000838152600960205260409081902080546001600160a01b0319166001600160a01b0384161790555183907ffdeda8644c30150acbeff648f7be52e511d8495929a4e696d8e74eb8219ddd8e9061087890859085906120cf565b60405180910390a2505050565b61064083838360405180602001604052806000815250610d08565b6000818152600260205260408120546001600160a01b0316806104155760405162461bcd60e51b815260206004820152602860248201527f4b495031373a206f776e657220717565727920666f72206e6f6e657869737465604482015267373a103a37b5b2b760c11b6064820152608401610514565b60006001600160a01b03821661097f5760405162461bcd60e51b815260206004820152602860248201527f4b495031373a2061646472657373207a65726f206973206e6f7420612076616c60448201526734b21037bbb732b960c11b6064820152608401610514565b506001600160a01b031660009081526003602052604090205490565b6007546001600160a01b03163314806109ef57506007546040516109ef916001600160a01b031690600a906109d1908b90612034565b908152604051908190036020019020546001600160a01b03166110be565b610a3b5760405162461bcd60e51b815260206004820152601760248201527f4f6e6c79204f776e6572206f7220417070726f766564210000000000000000006044820152606401610514565b6000875111610a5c5760405162461bcd60e51b8152600401610514906120f9565b60008611610a7c5760405162461bcd60e51b8152600401610514906121c2565b6000825111610a9d5760405162461bcd60e51b815260040161051490612148565b3483610aa98688612256565b610ab39190612256565b14610aef5760405162461bcd60e51b815260206004820152600c60248201526b436865636b2050726963652160a01b6044820152606401610514565b610b3e600a88604051610b029190612034565b9081526040805191829003602090810183205483830190925260048352630307830360e41b908301526001600160a01b03169033908990611177565b8415610b8a576000868152600960205260408082205490516001600160a01b039091169187156108fc02918891818181858888f19350505050158015610b88573d6000803e3d6000fd5b505b600a87604051610b9a9190612034565b908152604051908190036020018120546001600160a01b03169084156108fc029085906000818181858888f19350505050158015610bdc573d6000803e3d6000fd5b506007546040516001600160a01b039091169085156108fc029086906000818181858888f19350505050158015610c17573d6000803e3d6000fd5b508015610c3157610c31600a886040516107399190612034565b86604051610c3f9190612034565b60405180910390207f69aad170e34bd52cb9e2a8a6d2c36ebb1e653ae4e825dbf06fbb71905df79a978784600a8b604051610c7a9190612034565b90815260405190819003602001812054610ca39392916001600160a01b0390911690339061221c565b60405180910390a250505050505050565b60606001805461042a906122c5565b6007546001600160a01b03163314610ced5760405162461bcd60e51b815260040161051490612123565b600754610d04906001600160a01b0316838361163b565b5050565b610d12338361121c565b610d2e5760405162461bcd60e51b815260040161051490612172565b610d3a84848484611177565b50505050565b6060610d4b826110ec565b610db05760405162461bcd60e51b815260206004820152603060248201527f4b4950313755524953746f726167653a2055524920717565727920666f72206e60448201526f37b732bc34b9ba32b73a103a37b5b2b760811b6064820152608401610514565b60008281526006602052604081208054610dc9906122c5565b80601f0160208091040260200160405190810160405280929190818152602001828054610df5906122c5565b8015610e425780601f10610e1757610100808354040283529160200191610e42565b820191906000526020600020905b815481529060010190602001808311610e2557829003601f168201915b505050505090506000610e6060408051602081019091526000815290565b9050805160001415610e73575092915050565b815115610ea5578082604051602001610e8d929190612050565b60405160208183030381529060405292505050919050565b610eae8461170a565b949350505050565b6007546060906001600160a01b03163314610ee35760405162461bcd60e51b815260040161051490612123565b6000855111610f045760405162461bcd60e51b8152600401610514906120f9565b60008411610f245760405162461bcd60e51b8152600401610514906121c2565b6000835111610f455760405162461bcd60e51b815260040161051490612148565b81600a86604051610f569190612034565b90815260405190819003602001902080546001600160a01b03929092166001600160a01b0319909216919091179055610f90826001610cc3565b84604051610f9e9190612034565b60405180910390207ff77c75cd05a9ab063960d21c0941a05eb5ddc13b356ffbd966fa3f34bc56bc74858585604051610fd9939291906121eb565b60405180910390a250929392505050565b6000811161102c5760405162461bcd60e51b815260206004820152600f60248201526e436865636b205175616e746974792160881b6044820152606401610514565b60005b81811015610d3a57611041338561147e565b61104b84846115b1565b8061105581612300565b91505061102f565b6007546001600160a01b03163314806110875750600754611087906001600160a01b0316826110be565b6110a35760405162461bcd60e51b815260040161051490612123565b6007546110bb906001600160a01b031682600061163b565b50565b6001600160a01b03918216600090815260056020908152604080832093909416825291909152205460ff1690565b6000908152600260205260409020546001600160a01b0316151590565b600081815260046020526040902080546001600160a01b0319166001600160a01b038416908117909155819061113e826108a0565b6001600160a01b03167f8c5be1e5ebec7d5bd14f71427d1e84f3dd0314c0f7b2291e5b200ac8c7c3b92560405160405180910390a45050565b6111828484846112e4565b61118e848484846117e1565b806111a057506111a0848484846118dd565b610d3a5760405162461bcd60e51b815260206004820152604160248201527f4b495031373a207472616e7366657220746f206e6f6e20494b4950313752656360448201527f65697665722f49455243373231526563656976657220696d706c656d656e74656064820152603960f91b608482015260a401610514565b6000611227826110ec565b6112875760405162461bcd60e51b815260206004820152602b60248201527f4b495031373a206f70657261746f7220717565727920666f72206e6f6e65786960448201526a39ba32b73a103a37b5b2b760a91b6064820152608401610514565b6000611292836108a0565b9050806001600160a01b0316846001600160a01b031614806112b957506112b981856110be565b80610eae5750836001600160a01b03166112d2846104ad565b6001600160a01b031614949350505050565b826001600160a01b03166112f7826108a0565b6001600160a01b0316146113595760405162461bcd60e51b8152602060048201526024808201527f4b495031373a207472616e736665722066726f6d20696e636f7272656374206f6044820152633bb732b960e11b6064820152608401610514565b6001600160a01b0382166113bb5760405162461bcd60e51b815260206004820152602360248201527f4b495031373a207472616e7366657220746f20746865207a65726f206164647260448201526265737360e81b6064820152608401610514565b6113c6600082611109565b6001600160a01b03831660009081526003602052604081208054600192906113ef908490612282565b90915550506001600160a01b038216600090815260036020526040812080546001929061141d908490612256565b909155505060008181526002602052604080822080546001600160a01b0319166001600160a01b0386811691821790925591518493918716917fddf252ad1be2c89b69c2b068fc378daa952ba7f163c4a11628f55a4df523b3ef91a4505050565b6001600160a01b0382166114d45760405162461bcd60e51b815260206004820152601f60248201527f4b495031373a206d696e7420746f20746865207a65726f2061646472657373006044820152606401610514565b6114dd816110ec565b1561152a5760405162461bcd60e51b815260206004820152601b60248201527f4b495031373a20746f6b656e20616c7265616479206d696e74656400000000006044820152606401610514565b6001600160a01b0382166000908152600360205260408120805460019290611553908490612256565b909155505060008181526002602052604080822080546001600160a01b0319166001600160a01b03861690811790915590518392907fddf252ad1be2c89b69c2b068fc378daa952ba7f163c4a11628f55a4df523b3ef908290a45050565b6115ba826110ec565b61161c5760405162461bcd60e51b815260206004820152602d60248201527f4b4950313755524953746f726167653a2055524920736574206f66206e6f6e6560448201526c3c34b9ba32b73a103a37b5b2b760991b6064820152608401610514565b6000828152600660209081526040909120825161064092840190611ab1565b816001600160a01b0316836001600160a01b0316141561169d5760405162461bcd60e51b815260206004820152601860248201527f4b495031373a20617070726f766520746f2063616c6c657200000000000000006044820152606401610514565b6001600160a01b03838116600081815260056020908152604080832094871680845294825291829020805460ff191686151590811790915591519182527f17307eab39ab6107e8899845ad3d59bd9653f200f220920489ca2b5937696c31910160405180910390a3505050565b6060611715826110ec565b6117785760405162461bcd60e51b815260206004820152602e60248201527f4b495031374d657461646174613a2055524920717565727920666f72206e6f6e60448201526d32bc34b9ba32b73a103a37b5b2b760911b6064820152608401610514565b600061178f60408051602081019091526000815290565b905060008151116117af57604051806020016040528060008152506117da565b806117b9846119b3565b6040516020016117ca929190612050565b6040516020818303038152906040525b9392505050565b60006001600160a01b0384163b156118d557604051636745782b60e01b81526001600160a01b03851690636745782b9061182590339089908890889060040161207f565b602060405180830381600087803b15801561183f57600080fd5b505af192505050801561186f575060408051601f3d908101601f1916820190925261186c91810190611d83565b60015b6118bb573d80801561189d576040519150601f19603f3d011682016040523d82523d6000602084013e6118a2565b606091505b5080516118b3576000915050610eae565b805181602001fd5b6001600160e01b031916636745782b60e01b149050610eae565b506001610eae565b60006001600160a01b0384163b156118d557604051630a85bd0160e11b81526001600160a01b0385169063150b7a029061192190339089908890889060040161207f565b602060405180830381600087803b15801561193b57600080fd5b505af192505050801561196b575060408051601f3d908101601f1916820190925261196891810190611d83565b60015b611999573d80801561189d576040519150601f19603f3d011682016040523d82523d6000602084013e6118a2565b6001600160e01b031916630a85bd0160e11b149050610eae565b6060816119d75750506040805180820190915260018152600360fc1b602082015290565b8160005b8115611a0157806119eb81612300565b91506119fa9050600a8361226e565b91506119db565b60008167ffffffffffffffff811115611a1c57611a1c612371565b6040519080825280601f01601f191660200182016040528015611a46576020820181803683370190505b5090505b8415610eae57611a5b600183612282565b9150611a68600a8661231b565b611a73906030612256565b60f81b818381518110611a8857611a8861235b565b60200101906001600160f81b031916908160001a905350611aaa600a8661226e565b9450611a4a565b828054611abd906122c5565b90600052602060002090601f016020900481019282611adf5760008555611b25565b82601f10611af857805160ff1916838001178555611b25565b82800160010185558215611b25579182015b82811115611b25578251825591602001919060010190611b0a565b50611b31929150611b35565b5090565b5b80821115611b315760008155600101611b36565b600067ffffffffffffffff80841115611b6557611b65612371565b604051601f8501601f19908116603f01168101908282118183101715611b8d57611b8d612371565b81604052809350858152868686011115611ba657600080fd5b858560208301376000602087830101525050509392505050565b80356001600160a01b0381168114611bd757600080fd5b919050565b80358015158114611bd757600080fd5b600082601f830112611bfd57600080fd5b6117da83833560208501611b4a565b600060208284031215611c1e57600080fd5b6117da82611bc0565b60008060408385031215611c3a57600080fd5b611c4383611bc0565b9150611c5160208401611bc0565b90509250929050565b600080600060608486031215611c6f57600080fd5b611c7884611bc0565b9250611c8660208501611bc0565b9150604084013590509250925092565b60008060008060808587031215611cac57600080fd5b611cb585611bc0565b9350611cc360208601611bc0565b925060408501359150606085013567ffffffffffffffff811115611ce657600080fd5b8501601f81018713611cf757600080fd5b611d0687823560208401611b4a565b91505092959194509250565b60008060408385031215611d2557600080fd5b611d2e83611bc0565b9150611c5160208401611bdc565b60008060408385031215611d4f57600080fd5b611d5883611bc0565b946020939093013593505050565b600060208284031215611d7857600080fd5b81356117da81612387565b600060208284031215611d9557600080fd5b81516117da81612387565b60008060008060808587031215611db657600080fd5b843567ffffffffffffffff80821115611dce57600080fd5b611dda88838901611bec565b9550602087013594506040870135915080821115611df757600080fd5b50611e0487828801611bec565b925050611e1360608601611bc0565b905092959194509250565b600080600080600060a08688031215611e3657600080fd5b853567ffffffffffffffff80821115611e4e57600080fd5b611e5a89838a01611bec565b9650602088013595506040880135915080821115611e7757600080fd5b50611e8488828901611bec565b935050611e9360608701611bdc565b9150611ea160808701611bc0565b90509295509295909350565b600080600080600080600060e0888a031215611ec857600080fd5b873567ffffffffffffffff80821115611ee057600080fd5b611eec8b838c01611bec565b985060208a0135975060408a0135965060608a0135955060808a0135945060a08a0135915080821115611f1e57600080fd5b50611f2b8a828b01611bec565b925050611f3a60c08901611bdc565b905092959891949750929550565b600060208284031215611f5a57600080fd5b5035919050565b600080600060608486031215611f7657600080fd5b83359250602084013567ffffffffffffffff811115611f9457600080fd5b611fa086828701611bec565b925050611faf60408501611bc0565b90509250925092565b600080600060608486031215611fcd57600080fd5b83359250602084013567ffffffffffffffff811115611feb57600080fd5b611ff786828701611bec565b925050604084013590509250925092565b60008151808452612020816020860160208601612299565b601f01601f19169290920160200192915050565b60008251612046818460208701612299565b9190910192915050565b60008351612062818460208801612299565b835190830190612076818360208801612299565b01949350505050565b6001600160a01b03858116825284166020820152604081018390526080606082018190526000906120b290830184612008565b9695505050505050565b6020815260006117da6020830184612008565b6040815260006120e26040830185612008565b905060018060a01b03831660208301529392505050565b60208082526010908201526f436865636b204d61726b65742049642160801b604082015260600190565b6020808252600b908201526a4f6e6c79204f776e65722160a81b604082015260600190565b60208082526010908201526f436865636b20546f6b656e205572692160801b604082015260600190565b60208082526030908201527f4b495031373a207472616e736665722063616c6c6572206973206e6f74206f7760408201526f1b995c881b9bdc88185c1c1c9bdd995960821b606082015260800190565b6020808252600f908201526e436865636b20546f6b656e2049642160881b604082015260600190565b8381526060602082015260006122046060830185612008565b905060018060a01b0383166040830152949350505050565b8481526080602082015260006122356080830186612008565b6001600160a01b039485166040840152929093166060909101529392505050565b600082198211156122695761226961232f565b500190565b60008261227d5761227d612345565b500490565b6000828210156122945761229461232f565b500390565b60005b838110156122b457818101518382015260200161229c565b83811115610d3a5750506000910152565b600181811c908216806122d957607f821691505b602082108114156122fa57634e487b7160e01b600052602260045260246000fd5b50919050565b60006000198214156123145761231461232f565b5060010190565b60008261232a5761232a612345565b500690565b634e487b7160e01b600052601160045260246000fd5b634e487b7160e01b600052601260045260246000fd5b634e487b7160e01b600052603260045260246000fd5b634e487b7160e01b600052604160045260246000fd5b6001600160e01b0319811681146110bb57600080fdfea2646970667358221220764c326319d510969c2cd6106e26e9166de7cd5090b0f9afda8e7fff20fd5c6b64736f6c63430008070033",
  "linkReferences": {},
  "deployedLinkReferences": {}
}