{
  "_format": "hh-sol-artifact-1",
  "contractName": "UpgradeMarketplace",
  "sourceName": "contracts/UpgradeMarketplace.sol",
  "abi": [
    {
      "anonymous": false,
      "inputs": [
        {
          "indexed": true,
          "internalType": "address",
          "name": "owner",
          "type": "address"
        },
        {
          "indexed": true,
          "internalType": "address",
          "name": "approved",
          "type": "address"
        },
        {
          "indexed": true,
          "internalType": "uint256",
          "name": "tokenId",
          "type": "uint256"
        }
      ],
      "name": "Approval",
      "type": "event"
    },
    {
      "anonymous": false,
      "inputs": [
        {
          "indexed": true,
          "internalType": "address",
          "name": "owner",
          "type": "address"
        },
        {
          "indexed": true,
          "internalType": "address",
          "name": "operator",
          "type": "address"
        },
        {
          "indexed": false,
          "internalType": "bool",
          "name": "approved",
          "type": "bool"
        }
      ],
      "name": "ApprovalForAll",
      "type": "event"
    },
    {
      "anonymous": false,
      "inputs": [
        {
          "indexed": false,
          "internalType": "uint8",
          "name": "version",
          "type": "uint8"
        }
      ],
      "name": "Initialized",
      "type": "event"
    },
    {
      "anonymous": false,
      "inputs": [
        {
          "indexed": true,
          "internalType": "uint256",
          "name": "tokenId",
          "type": "uint256"
        },
        {
          "indexed": false,
          "internalType": "address",
          "name": "seller",
          "type": "address"
        },
        {
          "indexed": false,
          "internalType": "address",
          "name": "creator",
          "type": "address"
        },
        {
          "indexed": false,
          "internalType": "address",
          "name": "owner",
          "type": "address"
        },
        {
          "indexed": false,
          "internalType": "uint256",
          "name": "price",
          "type": "uint256"
        },
        {
          "indexed": false,
          "internalType": "bool",
          "name": "sold",
          "type": "bool"
        }
      ],
      "name": "MarketItemCreated",
      "type": "event"
    },
    {
      "anonymous": false,
      "inputs": [
        {
          "indexed": true,
          "internalType": "address",
          "name": "from",
          "type": "address"
        },
        {
          "indexed": true,
          "internalType": "address",
          "name": "to",
          "type": "address"
        },
        {
          "indexed": true,
          "internalType": "uint256",
          "name": "tokenId",
          "type": "uint256"
        }
      ],
      "name": "Transfer",
      "type": "event"
    },
    {
      "inputs": [
        {
          "internalType": "string",
          "name": "tokenURI",
          "type": "string"
        },
        {
          "internalType": "uint256",
          "name": "price",
          "type": "uint256"
        }
      ],
      "name": "Mint",
      "outputs": [
        {
          "internalType": "uint256",
          "name": "",
          "type": "uint256"
        }
      ],
      "stateMutability": "payable",
      "type": "function"
    },
    {
      "inputs": [
        {
          "internalType": "uint256",
          "name": "tokenId",
          "type": "uint256"
        },
        {
          "internalType": "uint256",
          "name": "createFee",
          "type": "uint256"
        },
        {
          "internalType": "uint256",
          "name": "serviceFee",
          "type": "uint256"
        },
        {
          "internalType": "uint256",
          "name": "sellerPrice",
          "type": "uint256"
        }
      ],
      "name": "Order",
      "outputs": [],
      "stateMutability": "payable",
      "type": "function"
    },
    {
      "inputs": [
        {
          "internalType": "bool",
          "name": "isFirst",
          "type": "bool"
        },
        {
          "internalType": "uint256",
          "name": "tokenId",
          "type": "uint256"
        },
        {
          "internalType": "string",
          "name": "tokenURI",
          "type": "string"
        },
        {
          "internalType": "address",
          "name": "seller",
          "type": "address"
        },
        {
          "internalType": "address",
          "name": "creator",
          "type": "address"
        },
        {
          "internalType": "address",
          "name": "serviceOwner",
          "type": "address"
        },
        {
          "internalType": "uint256",
          "name": "createFee",
          "type": "uint256"
        },
        {
          "internalType": "uint256",
          "name": "serviceFee",
          "type": "uint256"
        },
        {
          "internalType": "uint256",
          "name": "sellerPrice",
          "type": "uint256"
        }
      ],
      "name": "OrderMint",
      "outputs": [
        {
          "internalType": "uint256",
          "name": "",
          "type": "uint256"
        }
      ],
      "stateMutability": "payable",
      "type": "function"
    },
    {
      "inputs": [
        {
          "internalType": "address",
          "name": "to",
          "type": "address"
        },
        {
          "internalType": "uint256",
          "name": "tokenId",
          "type": "uint256"
        }
      ],
      "name": "approve",
      "outputs": [],
      "stateMutability": "nonpayable",
      "type": "function"
    },
    {
      "inputs": [
        {
          "internalType": "address",
          "name": "owner",
          "type": "address"
        }
      ],
      "name": "balanceOf",
      "outputs": [
        {
          "internalType": "uint256",
          "name": "",
          "type": "uint256"
        }
      ],
      "stateMutability": "view",
      "type": "function"
    },
    {
      "inputs": [],
      "name": "fetchItemsListed",
      "outputs": [
        {
          "components": [
            {
              "internalType": "uint256",
              "name": "tokenId",
              "type": "uint256"
            },
            {
              "internalType": "address payable",
              "name": "seller",
              "type": "address"
            },
            {
              "internalType": "address payable",
              "name": "creator",
              "type": "address"
            },
            {
              "internalType": "address payable",
              "name": "owner",
              "type": "address"
            },
            {
              "internalType": "uint256",
              "name": "price",
              "type": "uint256"
            },
            {
              "internalType": "bool",
              "name": "sold",
              "type": "bool"
            }
          ],
          "internalType": "struct UpgradeMarketplace.MarketItem[]",
          "name": "",
          "type": "tuple[]"
        }
      ],
      "stateMutability": "view",
      "type": "function"
    },
    {
      "inputs": [],
      "name": "fetchMarketItems",
      "outputs": [
        {
          "components": [
            {
              "internalType": "uint256",
              "name": "tokenId",
              "type": "uint256"
            },
            {
              "internalType": "address payable",
              "name": "seller",
              "type": "address"
            },
            {
              "internalType": "address payable",
              "name": "creator",
              "type": "address"
            },
            {
              "internalType": "address payable",
              "name": "owner",
              "type": "address"
            },
            {
              "internalType": "uint256",
              "name": "price",
              "type": "uint256"
            },
            {
              "internalType": "bool",
              "name": "sold",
              "type": "bool"
            }
          ],
          "internalType": "struct UpgradeMarketplace.MarketItem[]",
          "name": "",
          "type": "tuple[]"
        }
      ],
      "stateMutability": "view",
      "type": "function"
    },
    {
      "inputs": [],
      "name": "fetchMyNFTs",
      "outputs": [
        {
          "components": [
            {
              "internalType": "uint256",
              "name": "tokenId",
              "type": "uint256"
            },
            {
              "internalType": "address payable",
              "name": "seller",
              "type": "address"
            },
            {
              "internalType": "address payable",
              "name": "creator",
              "type": "address"
            },
            {
              "internalType": "address payable",
              "name": "owner",
              "type": "address"
            },
            {
              "internalType": "uint256",
              "name": "price",
              "type": "uint256"
            },
            {
              "internalType": "bool",
              "name": "sold",
              "type": "bool"
            }
          ],
          "internalType": "struct UpgradeMarketplace.MarketItem[]",
          "name": "",
          "type": "tuple[]"
        }
      ],
      "stateMutability": "view",
      "type": "function"
    },
    {
      "inputs": [],
      "name": "foo",
      "outputs": [
        {
          "internalType": "address",
          "name": "",
          "type": "address"
        }
      ],
      "stateMutability": "view",
      "type": "function"
    },
    {
      "inputs": [
        {
          "internalType": "uint256",
          "name": "tokenId",
          "type": "uint256"
        }
      ],
      "name": "getApproved",
      "outputs": [
        {
          "internalType": "address",
          "name": "",
          "type": "address"
        }
      ],
      "stateMutability": "view",
      "type": "function"
    },
    {
      "inputs": [],
      "name": "initialize",
      "outputs": [],
      "stateMutability": "nonpayable",
      "type": "function"
    },
    {
      "inputs": [
        {
          "internalType": "address",
          "name": "owner",
          "type": "address"
        },
        {
          "internalType": "address",
          "name": "operator",
          "type": "address"
        }
      ],
      "name": "isApprovedForAll",
      "outputs": [
        {
          "internalType": "bool",
          "name": "",
          "type": "bool"
        }
      ],
      "stateMutability": "view",
      "type": "function"
    },
    {
      "inputs": [],
      "name": "name",
      "outputs": [
        {
          "internalType": "string",
          "name": "",
          "type": "string"
        }
      ],
      "stateMutability": "view",
      "type": "function"
    },
    {
      "inputs": [
        {
          "internalType": "uint256",
          "name": "tokenId",
          "type": "uint256"
        }
      ],
      "name": "ownerOf",
      "outputs": [
        {
          "internalType": "address",
          "name": "",
          "type": "address"
        }
      ],
      "stateMutability": "view",
      "type": "function"
    },
    {
      "inputs": [
        {
          "internalType": "uint256",
          "name": "tokenId",
          "type": "uint256"
        },
        {
          "internalType": "uint256",
          "name": "price",
          "type": "uint256"
        }
      ],
      "name": "resellToken",
      "outputs": [],
      "stateMutability": "payable",
      "type": "function"
    },
    {
      "inputs": [
        {
          "internalType": "address",
          "name": "from",
          "type": "address"
        },
        {
          "internalType": "address",
          "name": "to",
          "type": "address"
        },
        {
          "internalType": "uint256",
          "name": "tokenId",
          "type": "uint256"
        }
      ],
      "name": "safeTransferFrom",
      "outputs": [],
      "stateMutability": "nonpayable",
      "type": "function"
    },
    {
      "inputs": [
        {
          "internalType": "address",
          "name": "from",
          "type": "address"
        },
        {
          "internalType": "address",
          "name": "to",
          "type": "address"
        },
        {
          "internalType": "uint256",
          "name": "tokenId",
          "type": "uint256"
        },
        {
          "internalType": "bytes",
          "name": "data",
          "type": "bytes"
        }
      ],
      "name": "safeTransferFrom",
      "outputs": [],
      "stateMutability": "nonpayable",
      "type": "function"
    },
    {
      "inputs": [
        {
          "internalType": "address",
          "name": "operator",
          "type": "address"
        },
        {
          "internalType": "bool",
          "name": "approved",
          "type": "bool"
        }
      ],
      "name": "setApprovalForAll",
      "outputs": [],
      "stateMutability": "nonpayable",
      "type": "function"
    },
    {
      "inputs": [
        {
          "internalType": "bytes4",
          "name": "interfaceId",
          "type": "bytes4"
        }
      ],
      "name": "supportsInterface",
      "outputs": [
        {
          "internalType": "bool",
          "name": "",
          "type": "bool"
        }
      ],
      "stateMutability": "view",
      "type": "function"
    },
    {
      "inputs": [],
      "name": "symbol",
      "outputs": [
        {
          "internalType": "string",
          "name": "",
          "type": "string"
        }
      ],
      "stateMutability": "view",
      "type": "function"
    },
    {
      "inputs": [
        {
          "internalType": "uint256",
          "name": "tokenId",
          "type": "uint256"
        }
      ],
      "name": "tokenURI",
      "outputs": [
        {
          "internalType": "string",
          "name": "",
          "type": "string"
        }
      ],
      "stateMutability": "view",
      "type": "function"
    },
    {
      "inputs": [
        {
          "internalType": "address",
          "name": "from",
          "type": "address"
        },
        {
          "internalType": "address",
          "name": "to",
          "type": "address"
        },
        {
          "internalType": "uint256",
          "name": "tokenId",
          "type": "uint256"
        }
      ],
      "name": "transferFrom",
      "outputs": [],
      "stateMutability": "nonpayable",
      "type": "function"
    }
  ],
  "bytecode": "0x608060405234801561001057600080fd5b50612506806100206000396000f3fe6080604052600436106101355760003560e01c80636e1a505f116100ab578063b88d4fde1161006f578063b88d4fde14610335578063c298557814610355578063c579faf814610368578063c87b56dd1461037b578063e219fc751461039b578063e985e9c5146103ae57600080fd5b80636e1a505f146102b857806370a08231146102cb5780638129fc1c146102eb57806395d89b4114610300578063a22cb4651461031557600080fd5b80630f08efe0116100fd5780630f08efe01461020c578063202e37401461022e57806323b872dd1461024357806342842e0e1461026357806345f8fa80146102835780636352211e1461029857600080fd5b806301ffc9a71461013a57806306fdde031461016f578063081812fc14610191578063095ea7b3146101c95780630a4e1e50146101eb575b600080fd5b34801561014657600080fd5b5061015a61015536600461207d565b6103f7565b60405190151581526020015b60405180910390f35b34801561017b57600080fd5b50610184610449565b604051610166919061228b565b34801561019d57600080fd5b506101b16101ac3660046120fc565b6104db565b6040516001600160a01b039091168152602001610166565b3480156101d557600080fd5b506101e96101e4366004611fac565b610502565b005b6101fe6101f93660046120b7565b61061d565b604051908152602001610166565b34801561021857600080fd5b5061022161065f565b6040516101669190612201565b34801561023a57600080fd5b50610221610794565b34801561024f57600080fd5b506101e961025e366004611eca565b61095e565b34801561026f57600080fd5b506101e961027e366004611eca565b61098f565b34801561028f57600080fd5b506102216109aa565b3480156102a457600080fd5b506101b16102b33660046120fc565b610b6b565b6101e96102c6366004612137565b610bcb565b3480156102d757600080fd5b506101fe6102e6366004611e7c565b610d7e565b3480156102f757600080fd5b506101e9610e04565b34801561030c57600080fd5b50610184610f6e565b34801561032157600080fd5b506101e9610330366004611f82565b610f7d565b34801561034157600080fd5b506101e9610350366004611f06565b610f8c565b34801561036157600080fd5b50336101b1565b6101fe610376366004611fd6565b610fc4565b34801561038757600080fd5b506101846103963660046120fc565b6110a6565b6101e96103a9366004612115565b6111b7565b3480156103ba57600080fd5b5061015a6103c9366004611e97565b6001600160a01b039182166000908152606a6020908152604080832093909416825291909152205460ff1690565b60006001600160e01b031982166380ac58cd60e01b148061042857506001600160e01b03198216635b5e139f60e01b145b8061044357506301ffc9a760e01b6001600160e01b03198316145b92915050565b606060658054610458906123f8565b80601f0160208091040260200160405190810160405280929190818152602001828054610484906123f8565b80156104d15780601f106104a6576101008083540402835291602001916104d1565b820191906000526020600020905b8154815290600101906020018083116104b457829003601f168201915b5050505050905090565b60006104e68261127c565b506000908152606960205260409020546001600160a01b031690565b600061050d82610b6b565b9050806001600160a01b0316836001600160a01b031614156105805760405162461bcd60e51b815260206004820152602160248201527f4552433732313a20617070726f76616c20746f2063757272656e74206f776e656044820152603960f91b60648201526084015b60405180910390fd5b336001600160a01b038216148061059c575061059c81336103c9565b61060e5760405162461bcd60e51b815260206004820152603e60248201527f4552433732313a20617070726f76652063616c6c6572206973206e6f7420746f60448201527f6b656e206f776e6572206e6f7220617070726f76656420666f7220616c6c00006064820152608401610577565b61061883836112db565b505050565b600061062d60c980546001019055565b600061063860c95490565b90506106443382611349565b61064e818561148b565b6106588184611525565b9392505050565b6060600061066c60c95490565b90506000808267ffffffffffffffff81111561068a5761068a6124a4565b6040519080825280602002602001820160405280156106c357816020015b6106b0611cec565b8152602001906001900390816106a85790505b50905060005b8381101561078c5760006106de826001612389565b600081815260cc6020908152604091829020825160c0810184528154815260018201546001600160a01b039081169382019390935260028201548316938101939093526003810154909116606083015260048101546080830152600581015460ff16151560a083015285519293509185908790811061075f5761075f61248e565b6020908102919091010152610775600186612389565b94505050808061078490612433565b9150506106c9565b509392505050565b606060006107a160c95490565b905060008060005b83811015610804573360cc60006107c1846001612389565b81526020810191909152604001600020600201546001600160a01b031614156107f2576107ef600184612389565b92505b806107fc81612433565b9150506107a9565b5060008267ffffffffffffffff811115610820576108206124a4565b60405190808252806020026020018201604052801561085957816020015b610846611cec565b81526020019060019003908161083e5790505b50905060005b84811015610955573360cc6000610877846001612389565b81526020810191909152604001600020600301546001600160a01b031614156109435760006108a7826001612389565b600081815260cc6020908152604091829020825160c0810184528154815260018201546001600160a01b039081169382019390935260028201548316938101939093526003810154909116606083015260048101546080830152600581015460ff16151560a08301528551929350918590879081106109285761092861248e565b602090810291909101015261093e600186612389565b945050505b8061094d81612433565b91505061085f565b50949350505050565b610968338261167c565b6109845760405162461bcd60e51b81526004016105779061233b565b6106188383836116fa565b61061883838360405180602001604052806000815250610f8c565b606060006109b760c95490565b905060008060005b83811015610a1a573360cc60006109d7846001612389565b81526020810191909152604001600020600101546001600160a01b03161415610a0857610a05600184612389565b92505b80610a1281612433565b9150506109bf565b5060008267ffffffffffffffff811115610a3657610a366124a4565b604051908082528060200260200182016040528015610a6f57816020015b610a5c611cec565b815260200190600190039081610a545790505b50905060005b84811015610955573360cc6000610a8d846001612389565b81526020810191909152604001600020600101546001600160a01b03161415610b59576000610abd826001612389565b600081815260cc6020908152604091829020825160c0810184528154815260018201546001600160a01b039081169382019390935260028201548316938101939093526003810154909116606083015260048101546080830152600581015460ff16151560a0830152855192935091859087908110610b3e57610b3e61248e565b6020908102919091010152610b54600186612389565b945050505b80610b6381612433565b915050610a75565b6000818152606760205260408120546001600160a01b0316806104435760405162461bcd60e51b8152602060048201526018602482015277115490cdcc8c4e881a5b9d985b1a59081d1bdad95b88125160421b6044820152606401610577565b600084815260cc602052604090206004810154600182015460029092015490916001600160a01b039081169116348314610c6f576040805162461bcd60e51b81526020600482015260248101919091527f506c65617365207375626d6974207468652061736b696e67207072696365206960448201527f6e206f7264657220746f20636f6d706c657465207468652070757263686173656064820152608401610577565b600087815260cc6020526040902060058101805460ff19166001908117909155810180546001600160a01b03199081163390811790925560039092018054909216179055610cc160ca80546001019055565b610ccc3033896116fa565b6040516001600160a01b0382169087156108fc029088906000818181858888f19350505050158015610d02573d6000803e3d6000fd5b506040516001600160a01b0383169085156108fc029086906000818181858888f19350505050158015610d39573d6000803e3d6000fd5b5060cb546040516001600160a01b039091169086156108fc029087906000818181858888f19350505050158015610d74573d6000803e3d6000fd5b5050505050505050565b60006001600160a01b038216610de85760405162461bcd60e51b815260206004820152602960248201527f4552433732313a2061646472657373207a65726f206973206e6f7420612076616044820152683634b21037bbb732b960b91b6064820152608401610577565b506001600160a01b031660009081526068602052604090205490565b600054610100900460ff1615808015610e245750600054600160ff909116105b80610e3e5750303b158015610e3e575060005460ff166001145b610ea15760405162461bcd60e51b815260206004820152602e60248201527f496e697469616c697a61626c653a20636f6e747261637420697320616c72656160448201526d191e481a5b9a5d1a585b1a5e995960921b6064820152608401610577565b6000805460ff191660011790558015610ec4576000805461ff0019166101001790555b610f136040518060400160405280601281526020017144656e61697373616e636520546f6b656e7360701b8152506040518060400160405280600381526020016208aa8960eb1b815250611896565b60cb80546001600160a01b031916331790558015610f6b576000805461ff0019169055604051600181527f7f26b83ff96e1f2b6a682f133852f6798a09c465da95921460cefb38474024989060200160405180910390a15b50565b606060668054610458906123f8565b610f883383836118c7565b5050565b610f96338361167c565b610fb25760405162461bcd60e51b81526004016105779061233b565b610fbe84848484611996565b50505050565b6000888a15610fe157610fd78882611349565b610fe1818a61148b565b610fec8833836116fa565b841561102a576040516001600160a01b0388169086156108fc029087906000818181858888f19350505050158015611028573d6000803e3d6000fd5b505b6040516001600160a01b0389169084156108fc029085906000818181858888f19350505050158015611060573d6000803e3d6000fd5b506040516001600160a01b0387169085156108fc029086906000818181858888f19350505050158015611097573d6000803e3d6000fd5b509a9950505050505050505050565b60606110b18261127c565b600082815260976020526040812080546110ca906123f8565b80601f01602080910402602001604051908101604052809291908181526020018280546110f6906123f8565b80156111435780601f1061111857610100808354040283529160200191611143565b820191906000526020600020905b81548152906001019060200180831161112657829003601f168201915b50505050509050600061116160408051602081019091526000815290565b9050805160001415611174575092915050565b8151156111a657808260405160200161118e929190612195565b60405160208183030381529060405292505050919050565b6111af846119c9565b949350505050565b600082815260cc60205260409020600301546001600160a01b031633146112335760405162461bcd60e51b815260206004820152602a60248201527f4f6e6c79206974656d206f776e65722063616e20706572666f726d20746869736044820152691037b832b930ba34b7b760b11b6064820152608401610577565b600082815260cc6020526040902060058101805460ff191690556004810182905560010180546001600160a01b0319163317905561127160ca611a3c565b610f883330846116fa565b6000818152606760205260409020546001600160a01b0316610f6b5760405162461bcd60e51b8152602060048201526018602482015277115490cdcc8c4e881a5b9d985b1a59081d1bdad95b88125160421b6044820152606401610577565b600081815260696020526040902080546001600160a01b0319166001600160a01b038416908117909155819061131082610b6b565b6001600160a01b03167f8c5be1e5ebec7d5bd14f71427d1e84f3dd0314c0f7b2291e5b200ac8c7c3b92560405160405180910390a45050565b6001600160a01b03821661139f5760405162461bcd60e51b815260206004820181905260248201527f4552433732313a206d696e7420746f20746865207a65726f20616464726573736044820152606401610577565b6000818152606760205260409020546001600160a01b0316156114045760405162461bcd60e51b815260206004820152601c60248201527f4552433732313a20746f6b656e20616c7265616479206d696e746564000000006044820152606401610577565b6001600160a01b038216600090815260686020526040812080546001929061142d908490612389565b909155505060008181526067602052604080822080546001600160a01b0319166001600160a01b03861690811790915590518392907fddf252ad1be2c89b69c2b068fc378daa952ba7f163c4a11628f55a4df523b3ef908290a45050565b6000828152606760205260409020546001600160a01b03166115065760405162461bcd60e51b815260206004820152602e60248201527f45524337323155524953746f726167653a2055524920736574206f66206e6f6e60448201526d32bc34b9ba32b73a103a37b5b2b760911b6064820152608401610577565b6000828152609760209081526040909120825161061892840190611d21565b600081116115755760405162461bcd60e51b815260206004820152601c60248201527f5072696365206d757374206265206174206c65617374203120776569000000006044820152606401610577565b6040805160c081018252838152336020808301828152838501838152306060860181815260808701898152600060a089018181528c825260cc909752989098209651875592516001870180546001600160a01b03199081166001600160a01b0393841617909155925160028801805485169183169190911790559251600387018054909316931692909217905593516004840155516005909201805460ff19169215159290921790915561162991846116fa565b6040805133808252602082015230818301526060810183905260006080820152905183917fd6b5a2ea507e15741fd76fed025e0dfe9294bea94de5e3359d76d718efd991bd919081900360a00190a25050565b60008061168883610b6b565b9050806001600160a01b0316846001600160a01b031614806116cf57506001600160a01b038082166000908152606a602090815260408083209388168352929052205460ff165b806111af5750836001600160a01b03166116e8846104db565b6001600160a01b031614949350505050565b826001600160a01b031661170d82610b6b565b6001600160a01b0316146117715760405162461bcd60e51b815260206004820152602560248201527f4552433732313a207472616e736665722066726f6d20696e636f72726563742060448201526437bbb732b960d91b6064820152608401610577565b6001600160a01b0382166117d35760405162461bcd60e51b8152602060048201526024808201527f4552433732313a207472616e7366657220746f20746865207a65726f206164646044820152637265737360e01b6064820152608401610577565b6117de6000826112db565b6001600160a01b03831660009081526068602052604081208054600192906118079084906123b5565b90915550506001600160a01b0382166000908152606860205260408120805460019290611835908490612389565b909155505060008181526067602052604080822080546001600160a01b0319166001600160a01b0386811691821790925591518493918716917fddf252ad1be2c89b69c2b068fc378daa952ba7f163c4a11628f55a4df523b3ef91a4505050565b600054610100900460ff166118bd5760405162461bcd60e51b8152600401610577906122f0565b610f888282611a93565b816001600160a01b0316836001600160a01b031614156119295760405162461bcd60e51b815260206004820152601960248201527f4552433732313a20617070726f766520746f2063616c6c6572000000000000006044820152606401610577565b6001600160a01b038381166000818152606a6020908152604080832094871680845294825291829020805460ff191686151590811790915591519182527f17307eab39ab6107e8899845ad3d59bd9653f200f220920489ca2b5937696c31910160405180910390a3505050565b6119a18484846116fa565b6119ad84848484611ae1565b610fbe5760405162461bcd60e51b81526004016105779061229e565b60606119d48261127c565b60006119eb60408051602081019091526000815290565b90506000815111611a0b5760405180602001604052806000815250610658565b80611a1584611bee565b604051602001611a26929190612195565b6040516020818303038152906040529392505050565b805480611a8b5760405162461bcd60e51b815260206004820152601b60248201527f436f756e7465723a2064656372656d656e74206f766572666c6f7700000000006044820152606401610577565b600019019055565b600054610100900460ff16611aba5760405162461bcd60e51b8152600401610577906122f0565b8151611acd906065906020850190611d21565b508051610618906066906020840190611d21565b60006001600160a01b0384163b15611be357604051630a85bd0160e11b81526001600160a01b0385169063150b7a0290611b259033908990889088906004016121c4565b602060405180830381600087803b158015611b3f57600080fd5b505af1925050508015611b6f575060408051601f3d908101601f19168201909252611b6c9181019061209a565b60015b611bc9573d808015611b9d576040519150601f19603f3d011682016040523d82523d6000602084013e611ba2565b606091505b508051611bc15760405162461bcd60e51b81526004016105779061229e565b805181602001fd5b6001600160e01b031916630a85bd0160e11b1490506111af565b506001949350505050565b606081611c125750506040805180820190915260018152600360fc1b602082015290565b8160005b8115611c3c5780611c2681612433565b9150611c359050600a836123a1565b9150611c16565b60008167ffffffffffffffff811115611c5757611c576124a4565b6040519080825280601f01601f191660200182016040528015611c81576020820181803683370190505b5090505b84156111af57611c966001836123b5565b9150611ca3600a8661244e565b611cae906030612389565b60f81b818381518110611cc357611cc361248e565b60200101906001600160f81b031916908160001a905350611ce5600a866123a1565b9450611c85565b6040805160c081018252600080825260208201819052918101829052606081018290526080810182905260a081019190915290565b828054611d2d906123f8565b90600052602060002090601f016020900481019282611d4f5760008555611d95565b82601f10611d6857805160ff1916838001178555611d95565b82800160010185558215611d95579182015b82811115611d95578251825591602001919060010190611d7a565b50611da1929150611da5565b5090565b5b80821115611da15760008155600101611da6565b600067ffffffffffffffff80841115611dd557611dd56124a4565b604051601f8501601f19908116603f01168101908282118183101715611dfd57611dfd6124a4565b81604052809350858152868686011115611e1657600080fd5b858560208301376000602087830101525050509392505050565b80356001600160a01b0381168114611e4757600080fd5b919050565b80358015158114611e4757600080fd5b600082601f830112611e6d57600080fd5b61065883833560208501611dba565b600060208284031215611e8e57600080fd5b61065882611e30565b60008060408385031215611eaa57600080fd5b611eb383611e30565b9150611ec160208401611e30565b90509250929050565b600080600060608486031215611edf57600080fd5b611ee884611e30565b9250611ef660208501611e30565b9150604084013590509250925092565b60008060008060808587031215611f1c57600080fd5b611f2585611e30565b9350611f3360208601611e30565b925060408501359150606085013567ffffffffffffffff811115611f5657600080fd5b8501601f81018713611f6757600080fd5b611f7687823560208401611dba565b91505092959194509250565b60008060408385031215611f9557600080fd5b611f9e83611e30565b9150611ec160208401611e4c565b60008060408385031215611fbf57600080fd5b611fc883611e30565b946020939093013593505050565b60008060008060008060008060006101208a8c031215611ff557600080fd5b611ffe8a611e4c565b985060208a0135975060408a013567ffffffffffffffff81111561202157600080fd5b61202d8c828d01611e5c565b97505061203c60608b01611e30565b955061204a60808b01611e30565b945061205860a08b01611e30565b935060c08a0135925060e08a013591506101008a013590509295985092959850929598565b60006020828403121561208f57600080fd5b8135610658816124ba565b6000602082840312156120ac57600080fd5b8151610658816124ba565b600080604083850312156120ca57600080fd5b823567ffffffffffffffff8111156120e157600080fd5b6120ed85828601611e5c565b95602094909401359450505050565b60006020828403121561210e57600080fd5b5035919050565b6000806040838503121561212857600080fd5b50508035926020909101359150565b6000806000806080858703121561214d57600080fd5b5050823594602084013594506040840135936060013592509050565b600081518084526121818160208601602086016123cc565b601f01601f19169290920160200192915050565b600083516121a78184602088016123cc565b8351908301906121bb8183602088016123cc565b01949350505050565b6001600160a01b03858116825284166020820152604081018390526080606082018190526000906121f790830184612169565b9695505050505050565b602080825282518282018190526000919060409081850190868401855b8281101561227e57815180518552868101516001600160a01b039081168887015286820151811687870152606080830151909116908601526080808201519086015260a09081015115159085015260c0909301929085019060010161221e565b5091979650505050505050565b6020815260006106586020830184612169565b60208082526032908201527f4552433732313a207472616e7366657220746f206e6f6e20455243373231526560408201527131b2b4bb32b91034b6b83632b6b2b73a32b960711b606082015260800190565b6020808252602b908201527f496e697469616c697a61626c653a20636f6e7472616374206973206e6f74206960408201526a6e697469616c697a696e6760a81b606082015260800190565b6020808252602e908201527f4552433732313a2063616c6c6572206973206e6f7420746f6b656e206f776e6560408201526d1c881b9bdc88185c1c1c9bdd995960921b606082015260800190565b6000821982111561239c5761239c612462565b500190565b6000826123b0576123b0612478565b500490565b6000828210156123c7576123c7612462565b500390565b60005b838110156123e75781810151838201526020016123cf565b83811115610fbe5750506000910152565b600181811c9082168061240c57607f821691505b6020821081141561242d57634e487b7160e01b600052602260045260246000fd5b50919050565b600060001982141561244757612447612462565b5060010190565b60008261245d5761245d612478565b500690565b634e487b7160e01b600052601160045260246000fd5b634e487b7160e01b600052601260045260246000fd5b634e487b7160e01b600052603260045260246000fd5b634e487b7160e01b600052604160045260246000fd5b6001600160e01b031981168114610f6b57600080fdfea2646970667358221220520eb304c50727f7c0e045be83544c0467b327c7f21662f0a9406baca29522c664736f6c63430008070033",
  "linkReferences": {},
  "deployedLinkReferences": {}
}