{
  "_format": "hh-sol-artifact-1",
  "contractName": "KlaytnKIP37",
  "sourceName": "contracts/KlaytnKIP37.sol",
  "abi": [
    {
      "inputs": [],
      "stateMutability": "nonpayable",
      "type": "constructor"
    },
    {
      "anonymous": false,
      "inputs": [
        {
          "indexed": true,
          "internalType": "address",
          "name": "owner",
          "type": "address"
        },
        {
          "indexed": true,
          "internalType": "address",
          "name": "operator",
          "type": "address"
        },
        {
          "indexed": false,
          "internalType": "bool",
          "name": "approved",
          "type": "bool"
        }
      ],
      "name": "ApprovalForAll",
      "type": "event"
    },
    {
      "anonymous": false,
      "inputs": [
        {
          "indexed": true,
          "internalType": "address",
          "name": "operator",
          "type": "address"
        },
        {
          "indexed": true,
          "internalType": "address",
          "name": "from",
          "type": "address"
        },
        {
          "indexed": true,
          "internalType": "address",
          "name": "to",
          "type": "address"
        },
        {
          "indexed": false,
          "internalType": "uint256[]",
          "name": "ids",
          "type": "uint256[]"
        },
        {
          "indexed": false,
          "internalType": "uint256[]",
          "name": "amounts",
          "type": "uint256[]"
        }
      ],
      "name": "TransferBatch",
      "type": "event"
    },
    {
      "anonymous": false,
      "inputs": [
        {
          "indexed": true,
          "internalType": "address",
          "name": "operator",
          "type": "address"
        },
        {
          "indexed": true,
          "internalType": "address",
          "name": "from",
          "type": "address"
        },
        {
          "indexed": true,
          "internalType": "address",
          "name": "to",
          "type": "address"
        },
        {
          "indexed": false,
          "internalType": "uint256",
          "name": "id",
          "type": "uint256"
        },
        {
          "indexed": false,
          "internalType": "uint256",
          "name": "amount",
          "type": "uint256"
        }
      ],
      "name": "TransferSingle",
      "type": "event"
    },
    {
      "anonymous": false,
      "inputs": [
        {
          "indexed": false,
          "internalType": "string",
          "name": "value",
          "type": "string"
        },
        {
          "indexed": true,
          "internalType": "uint256",
          "name": "id",
          "type": "uint256"
        }
      ],
      "name": "URI",
      "type": "event"
    },
    {
      "anonymous": false,
      "inputs": [
        {
          "indexed": true,
          "internalType": "uint256",
          "name": "tokenId",
          "type": "uint256"
        },
        {
          "indexed": false,
          "internalType": "string",
          "name": "tokenUri",
          "type": "string"
        },
        {
          "indexed": false,
          "internalType": "uint256",
          "name": "quantity",
          "type": "uint256"
        },
        {
          "indexed": false,
          "internalType": "address",
          "name": "ownerAdress",
          "type": "address"
        }
      ],
      "name": "assetInformation",
      "type": "event"
    },
    {
      "anonymous": false,
      "inputs": [
        {
          "indexed": true,
          "internalType": "string",
          "name": "marektId",
          "type": "string"
        },
        {
          "indexed": false,
          "internalType": "uint256",
          "name": "tokenId",
          "type": "uint256"
        },
        {
          "indexed": false,
          "internalType": "string",
          "name": "tokenUri",
          "type": "string"
        },
        {
          "indexed": false,
          "internalType": "uint256",
          "name": "quantity",
          "type": "uint256"
        },
        {
          "indexed": false,
          "internalType": "address",
          "name": "ownerAdress",
          "type": "address"
        }
      ],
      "name": "marketInformation",
      "type": "event"
    },
    {
      "anonymous": false,
      "inputs": [
        {
          "indexed": true,
          "internalType": "string",
          "name": "marektId",
          "type": "string"
        },
        {
          "indexed": false,
          "internalType": "uint256",
          "name": "tokenId",
          "type": "uint256"
        },
        {
          "indexed": false,
          "internalType": "string",
          "name": "tokenUri",
          "type": "string"
        },
        {
          "indexed": false,
          "internalType": "uint256",
          "name": "quantity",
          "type": "uint256"
        },
        {
          "indexed": false,
          "internalType": "address",
          "name": "sellerAdress",
          "type": "address"
        },
        {
          "indexed": false,
          "internalType": "address",
          "name": "buyerAdress",
          "type": "address"
        }
      ],
      "name": "orderInformation",
      "type": "event"
    },
    {
      "inputs": [
        {
          "internalType": "address",
          "name": "owner",
          "type": "address"
        },
        {
          "internalType": "uint256",
          "name": "id",
          "type": "uint256"
        }
      ],
      "name": "balanceOf",
      "outputs": [
        {
          "internalType": "uint256",
          "name": "",
          "type": "uint256"
        }
      ],
      "stateMutability": "view",
      "type": "function"
    },
    {
      "inputs": [
        {
          "internalType": "address[]",
          "name": "owners",
          "type": "address[]"
        },
        {
          "internalType": "uint256[]",
          "name": "ids",
          "type": "uint256[]"
        }
      ],
      "name": "balanceOfBatch",
      "outputs": [
        {
          "internalType": "uint256[]",
          "name": "",
          "type": "uint256[]"
        }
      ],
      "stateMutability": "view",
      "type": "function"
    },
    {
      "inputs": [
        {
          "internalType": "address",
          "name": "operator",
          "type": "address"
        }
      ],
      "name": "deleteApprovalForAll",
      "outputs": [],
      "stateMutability": "nonpayable",
      "type": "function"
    },
    {
      "inputs": [],
      "name": "getOwner",
      "outputs": [
        {
          "internalType": "address",
          "name": "",
          "type": "address"
        }
      ],
      "stateMutability": "view",
      "type": "function"
    },
    {
      "inputs": [
        {
          "internalType": "address",
          "name": "owner",
          "type": "address"
        },
        {
          "internalType": "address",
          "name": "operator",
          "type": "address"
        }
      ],
      "name": "isApprovedForAll",
      "outputs": [
        {
          "internalType": "bool",
          "name": "",
          "type": "bool"
        }
      ],
      "stateMutability": "view",
      "type": "function"
    },
    {
      "inputs": [
        {
          "internalType": "address",
          "name": "_creator",
          "type": "address"
        },
        {
          "internalType": "uint256",
          "name": "_tokenId",
          "type": "uint256"
        },
        {
          "internalType": "uint256",
          "name": "_quantity",
          "type": "uint256"
        }
      ],
      "name": "mint",
      "outputs": [],
      "stateMutability": "nonpayable",
      "type": "function"
    },
    {
      "inputs": [
        {
          "internalType": "address",
          "name": "from",
          "type": "address"
        },
        {
          "internalType": "address",
          "name": "to",
          "type": "address"
        },
        {
          "internalType": "uint256[]",
          "name": "ids",
          "type": "uint256[]"
        },
        {
          "internalType": "uint256[]",
          "name": "amounts",
          "type": "uint256[]"
        },
        {
          "internalType": "bytes",
          "name": "data",
          "type": "bytes"
        }
      ],
      "name": "safeBatchTransferFrom",
      "outputs": [],
      "stateMutability": "nonpayable",
      "type": "function"
    },
    {
      "inputs": [
        {
          "internalType": "address",
          "name": "from",
          "type": "address"
        },
        {
          "internalType": "address",
          "name": "to",
          "type": "address"
        },
        {
          "internalType": "uint256",
          "name": "id",
          "type": "uint256"
        },
        {
          "internalType": "uint256",
          "name": "amount",
          "type": "uint256"
        },
        {
          "internalType": "bytes",
          "name": "data",
          "type": "bytes"
        }
      ],
      "name": "safeTransferFrom",
      "outputs": [],
      "stateMutability": "nonpayable",
      "type": "function"
    },
    {
      "inputs": [
        {
          "internalType": "address",
          "name": "operator",
          "type": "address"
        },
        {
          "internalType": "bool",
          "name": "approved",
          "type": "bool"
        }
      ],
      "name": "setApprovalForAll",
      "outputs": [],
      "stateMutability": "nonpayable",
      "type": "function"
    },
    {
      "inputs": [
        {
          "internalType": "string",
          "name": "_marketId",
          "type": "string"
        },
        {
          "internalType": "uint256",
          "name": "_tokenId",
          "type": "uint256"
        },
        {
          "internalType": "string",
          "name": "_tokenUri",
          "type": "string"
        },
        {
          "internalType": "uint256",
          "name": "_quantity",
          "type": "uint256"
        },
        {
          "internalType": "bool",
          "name": "_isBalanceEmpty",
          "type": "bool"
        }
      ],
      "name": "setKRWOrder",
      "outputs": [
        {
          "internalType": "uint256",
          "name": "",
          "type": "uint256"
        }
      ],
      "stateMutability": "payable",
      "type": "function"
    },
    {
      "inputs": [
        {
          "internalType": "string",
          "name": "_marketId",
          "type": "string"
        },
        {
          "internalType": "uint256",
          "name": "_tokenId",
          "type": "uint256"
        },
        {
          "internalType": "uint256",
          "name": "_supply",
          "type": "uint256"
        },
        {
          "internalType": "string",
          "name": "_tokenUri",
          "type": "string"
        },
        {
          "internalType": "address",
          "name": "_seller",
          "type": "address"
        }
      ],
      "name": "setListing",
      "outputs": [
        {
          "internalType": "string",
          "name": "",
          "type": "string"
        }
      ],
      "stateMutability": "nonpayable",
      "type": "function"
    },
    {
      "inputs": [
        {
          "internalType": "uint256",
          "name": "_tokenId",
          "type": "uint256"
        },
        {
          "internalType": "uint256",
          "name": "_supply",
          "type": "uint256"
        },
        {
          "internalType": "string",
          "name": "_tokenUri",
          "type": "string"
        },
        {
          "internalType": "address",
          "name": "_creator",
          "type": "address"
        }
      ],
      "name": "setMint",
      "outputs": [
        {
          "internalType": "uint256",
          "name": "",
          "type": "uint256"
        }
      ],
      "stateMutability": "nonpayable",
      "type": "function"
    },
    {
      "inputs": [
        {
          "internalType": "string",
          "name": "_marketId",
          "type": "string"
        },
        {
          "internalType": "uint256",
          "name": "_tokenId",
          "type": "uint256"
        },
        {
          "internalType": "uint256",
          "name": "_quantity",
          "type": "uint256"
        },
        {
          "internalType": "uint256",
          "name": "_createFee",
          "type": "uint256"
        },
        {
          "internalType": "uint256",
          "name": "_serviceFee",
          "type": "uint256"
        },
        {
          "internalType": "uint256",
          "name": "_sellerPrice",
          "type": "uint256"
        },
        {
          "internalType": "string",
          "name": "_tokenUri",
          "type": "string"
        },
        {
          "internalType": "bool",
          "name": "_isBalanceEmpty",
          "type": "bool"
        }
      ],
      "name": "setOrder",
      "outputs": [
        {
          "internalType": "uint256",
          "name": "",
          "type": "uint256"
        }
      ],
      "stateMutability": "payable",
      "type": "function"
    },
    {
      "inputs": [
        {
          "internalType": "uint256",
          "name": "_tokenId",
          "type": "uint256"
        },
        {
          "internalType": "string",
          "name": "_uri",
          "type": "string"
        }
      ],
      "name": "setTokenUri",
      "outputs": [],
      "stateMutability": "nonpayable",
      "type": "function"
    },
    {
      "inputs": [
        {
          "internalType": "bytes4",
          "name": "interfaceId",
          "type": "bytes4"
        }
      ],
      "name": "supportsInterface",
      "outputs": [
        {
          "internalType": "bool",
          "name": "",
          "type": "bool"
        }
      ],
      "stateMutability": "view",
      "type": "function"
    },
    {
      "inputs": [
        {
          "internalType": "uint256",
          "name": "tokenId",
          "type": "uint256"
        }
      ],
      "name": "uri",
      "outputs": [
        {
          "internalType": "string",
          "name": "",
          "type": "string"
        }
      ],
      "stateMutability": "view",
      "type": "function"
    }
  ],
  "bytecode": "0x60806040523480156200001157600080fd5b506040518060600160405280602c8152602001620027fc602c9139620000378162000050565b50600380546001600160a01b031916331790556200014c565b80516200006590600290602084019062000069565b5050565b82805462000077906200010f565b90600052602060002090601f0160209004810192826200009b5760008555620000e6565b82601f10620000b657805160ff1916838001178555620000e6565b82800160010185558215620000e6579182015b82811115620000e6578251825591602001919060010190620000c9565b50620000f4929150620000f8565b5090565b5b80821115620000f45760008155600101620000f9565b600181811c908216806200012457607f821691505b602082108114156200014657634e487b7160e01b600052602260045260246000fd5b50919050565b6126a0806200015c6000396000f3fe6080604052600436106100f25760003560e01c806379b62d5e1161008a578063d4f0fb4011610059578063d4f0fb40146102b1578063e985e9c5146102d1578063f242432a146102f1578063fbfeebe01461031157600080fd5b806379b62d5e14610229578063893d20e814610249578063894d826b14610271578063a22cb4651461029157600080fd5b8063156e29f6116100c6578063156e29f61461019a5780632eb2c2d6146101bc5780634e1273f4146101dc57806357f7789e1461020957600080fd5b8062fdd58e146100f757806301ffc9a71461012a578063073851601461015a5780630e89341c1461016d575b600080fd5b34801561010357600080fd5b50610117610112366004611e0d565b610324565b6040519081526020015b60405180910390f35b34801561013657600080fd5b5061014a610145366004611f31565b6103b8565b6040519015158152602001610121565b610117610168366004611f6b565b61040a565b34801561017957600080fd5b5061018d610188366004612114565b61068a565b6040516101219190612332565b3480156101a657600080fd5b506101ba6101b5366004611e37565b61072c565b005b3480156101c857600080fd5b506101ba6101d7366004611cd4565b6107a0565b3480156101e857600080fd5b506101fc6101f7366004611e6a565b610835565b60405161012191906122f1565b34801561021557600080fd5b506101ba61022436600461212d565b61095b565b34801561023557600080fd5b5061011761024436600461216a565b6109de565b34801561025557600080fd5b506003546040516001600160a01b039091168152602001610121565b34801561027d57600080fd5b5061018d61028c366004611ff3565b610b0f565b34801561029d57600080fd5b506101ba6102ac366004611de3565b610c86565b3480156102bd57600080fd5b506101ba6102cc366004611c7f565b610ccb565b3480156102dd57600080fd5b5061014a6102ec366004611ca1565b610d2c565b3480156102fd57600080fd5b506101ba61030c366004611d7e565b610d5a565b61011761031f36600461206f565b610ddf565b60006001600160a01b0383166103925760405162461bcd60e51b815260206004820152602860248201527f4b495033373a2061646472657373207a65726f206973206e6f7420612076616c60448201526734b21037bbb732b960c11b60648201526084015b60405180910390fd5b506000908152602081815260408083206001600160a01b03949094168352929052205490565b60006001600160e01b03198216636cdb3d1360e11b14806103e957506001600160e01b031982166303a24d0760e21b145b8061040457506301ffc9a760e01b6001600160e01b03198316145b92915050565b6003546000906001600160a01b03163314806104615750600354604051610461916001600160a01b031690600690610443908a90612232565b908152604051908190036020019020546001600160a01b0316610d2c565b6104a75760405162461bcd60e51b81526020600482015260176024820152764f6e6c79204f776e6572206f7220417070726f7665642160481b6044820152606401610389565b60008651116104c85760405162461bcd60e51b815260040161038990612378565b826104fb6006886040516104dc9190612232565b908152604051908190036020019020546001600160a01b031687610324565b101561053b5760405162461bcd60e51b815260206004820152600f60248201526e436865636b205175616e746974792160881b6044820152606401610389565b6000851161055b5760405162461bcd60e51b815260040161038990612439565b600084511161057c5760405162461bcd60e51b81526004016103899061240f565b6105cd60068760405161058f9190612232565b9081526040805191829003602090810183205483830190925260048352630307830360e41b908301526001600160a01b031690339088908790611152565b8115610604576106046006876040516105e69190612232565b908152604051908190036020019020546001600160a01b0316610ccb565b856040516106129190612232565b60405180910390207fd1755ff4ac6a7505a5f75484540b47382edcf994d187c692b51ed564efa785d786868660068b60405161064e9190612232565b90815260405190819003602001812054610678949392916001600160a01b039091169033906124df565b60405180910390a25092949350505050565b60008181526004602052604090208054606091906106a7906125bc565b80601f01602080910402602001604051908101604052809291908181526020018280546106d3906125bc565b80156107205780601f106106f557610100808354040283529160200191610720565b820191906000526020600020905b81548152906001019060200180831161070357829003601f168201915b50505050509050919050565b6003546001600160a01b031633146107565760405162461bcd60e51b8152600401610389906123a2565b6107718383836040518060200160405280600081525061127c565b50600090815260056020526040902080546001600160a01b0319166001600160a01b0392909216919091179055565b6001600160a01b0385163314806107bc57506107bc8533610d2c565b6108215760405162461bcd60e51b815260206004820152603060248201527f4b495033373a207472616e736665722063616c6c6572206973206e6f74206f7760448201526f1b995c881b9bdc88185c1c1c9bdd995960821b6064820152608401610389565b61082e8585858585611386565b5050505050565b606081518351146108965760405162461bcd60e51b815260206004820152602560248201527f4b495033373a206f776e65727320616e6420696473206c656e677468206d69736044820152640dac2e8c6d60db1b6064820152608401610389565b6000835167ffffffffffffffff8111156108b2576108b261263e565b6040519080825280602002602001820160405280156108db578160200160208202803683370190505b50905060005b8451811015610953576109268582815181106108ff576108ff612628565b602002602001015185838151811061091957610919612628565b6020026020010151610324565b82828151811061093857610938612628565b602090810291909101015261094c816125f7565b90506108e1565b509392505050565b60008281526004602052604090208054610974906125bc565b1590506109ba5760405162461bcd60e51b815260206004820152601460248201527343616e6e6f74207365742075726920747769636560601b6044820152606401610389565b600082815260046020908152604090912082516109d992840190611ad8565b505050565b6003546000906001600160a01b03163314610a0b5760405162461bcd60e51b8152600401610389906123a2565b60008411610a4b5760405162461bcd60e51b815260206004820152600d60248201526c436865636b20537570706c792160981b6044820152606401610389565b60008511610a6b5760405162461bcd60e51b815260040161038990612439565b6000835111610a8c5760405162461bcd60e51b81526004016103899061240f565b610a9782868661072c565b610aa1858461095b565b6000858152600560205260409081902080546001600160a01b0319166001600160a01b0385161790555185907f0a836d5d39466b2f36a382ee6a87b1a98c0e06d4da9c2c00222919c25f0bb5d390610afe90869088908790612345565b60405180910390a250929392505050565b6003546060906001600160a01b03163314610b3c5760405162461bcd60e51b8152600401610389906123a2565b6000865111610b5d5760405162461bcd60e51b815260040161038990612378565b60008411610b9d5760405162461bcd60e51b815260206004820152600d60248201526c436865636b20537570706c792160981b6044820152606401610389565b60008511610bbd5760405162461bcd60e51b815260040161038990612439565b6000835111610bde5760405162461bcd60e51b81526004016103899061240f565b81600687604051610bef9190612232565b90815260405190819003602001902080546001600160a01b03929092166001600160a01b0319909216919091179055610c29826001610c86565b85604051610c379190612232565b60405180910390207fb096e356679dacc242e62c27e88abe819c505dcfae5355c592b10d79b8425fbc86858786604051610c7494939291906124a5565b60405180910390a25093949350505050565b6003546001600160a01b03163314610cb05760405162461bcd60e51b8152600401610389906123a2565b600354610cc7906001600160a01b03168383611561565b5050565b6003546001600160a01b0316331480610cf55750600354610cf5906001600160a01b031682610d2c565b610d115760405162461bcd60e51b8152600401610389906123a2565b600354610d29906001600160a01b0316826000611561565b50565b6001600160a01b03918216600090815260016020908152604080832093909416825291909152205460ff1690565b6001600160a01b038516331480610d765750610d768533610d2c565b610dd25760405162461bcd60e51b815260206004820152602760248201527f4b495033373a2063616c6c6572206973206e6f74206f776e6572206e6f7220616044820152661c1c1c9bdd995960ca1b6064820152608401610389565b61082e8585858585611152565b6003546000906001600160a01b0316331480610e185750600354604051610e18916001600160a01b031690600690610443908d90612232565b610e5e5760405162461bcd60e51b81526020600482015260176024820152764f6e6c79204f776e6572206f7220417070726f7665642160481b6044820152606401610389565b6000895111610e7f5760405162461bcd60e51b815260040161038990612378565b86610eb260068b604051610e939190612232565b908152604051908190036020019020546001600160a01b03168a610324565b1015610ef25760405162461bcd60e51b815260206004820152600f60248201526e436865636b205175616e746974792160881b6044820152606401610389565b60008811610f125760405162461bcd60e51b815260040161038990612439565b6000835111610f335760405162461bcd60e51b81526004016103899061240f565b3484610f3f8789612574565b610f499190612574565b14610f855760405162461bcd60e51b815260206004820152600c60248201526b436865636b2050726963652160a01b6044820152606401610389565b610fd660068a604051610f989190612232565b9081526040805191829003602090810183205483830190925260048352630307830360e41b908301526001600160a01b03169033908b908b90611152565b8515611022576000888152600560205260408082205490516001600160a01b039091169188156108fc02918991818181858888f19350505050158015611020573d6000803e3d6000fd5b505b6006896040516110329190612232565b908152604051908190036020018120546001600160a01b03169085156108fc029086906000818181858888f19350505050158015611074573d6000803e3d6000fd5b506003546040516001600160a01b039091169086156108fc029087906000818181858888f193505050501580156110af573d6000803e3d6000fd5b5081156110c9576110c960068a6040516105e69190612232565b886040516110d79190612232565b60405180910390207fd1755ff4ac6a7505a5f75484540b47382edcf994d187c692b51ed564efa785d789858a60068e6040516111139190612232565b9081526040519081900360200181205461113d949392916001600160a01b039091169033906124df565b60405180910390a25095979650505050505050565b6001600160a01b0384166111785760405162461bcd60e51b815260040161038990612462565b33600061118485611640565b9050600061119185611640565b90506000868152602081815260408083206001600160a01b038c168452909152902054858110156111d45760405162461bcd60e51b8152600401610389906123c7565b6000878152602081815260408083206001600160a01b038d8116855292528083208985039055908a16825281208054889290611211908490612574565b909155505060408051888152602081018890526001600160a01b03808b16928c821692918816917fc3d58168c5ae7397731d063d5bbf3d657854427343f4c083240f7aacaa2d0f62910160405180910390a4611271848a8a8a8a8a61168b565b505050505050505050565b6001600160a01b0384166112d25760405162461bcd60e51b815260206004820152601f60248201527f4b495033373a206d696e7420746f20746865207a65726f2061646472657373006044820152606401610389565b3360006112de85611640565b905060006112eb85611640565b90506000868152602081815260408083206001600160a01b038b1684529091528120805487929061131d908490612574565b909155505060408051878152602081018790526001600160a01b03808a1692600092918716917fc3d58168c5ae7397731d063d5bbf3d657854427343f4c083240f7aacaa2d0f62910160405180910390a461137d8360008989898961168b565b50505050505050565b81518351146113e65760405162461bcd60e51b815260206004820152602660248201527f4b495033373a2069647320616e6420616d6f756e7473206c656e677468206d696044820152650e6dac2e8c6d60d31b6064820152608401610389565b6001600160a01b03841661140c5760405162461bcd60e51b815260040161038990612462565b3360005b84518110156114f357600085828151811061142d5761142d612628565b60200260200101519050600085838151811061144b5761144b612628565b602090810291909101810151600084815280835260408082206001600160a01b038e16835290935291909120549091508181101561149b5760405162461bcd60e51b8152600401610389906123c7565b6000838152602081815260408083206001600160a01b038e8116855292528083208585039055908b168252812080548492906114d8908490612574565b92505081905550505050806114ec906125f7565b9050611410565b50846001600160a01b0316866001600160a01b0316826001600160a01b03167f4a39dc06d4c0dbc64b70af90fd698a233a518aa5d07e595d983b8c0526c8f7fb8787604051611543929190612304565b60405180910390a461155981878787878761172a565b505050505050565b816001600160a01b0316836001600160a01b031614156115d35760405162461bcd60e51b815260206004820152602760248201527f4b495033373a2073657474696e6720617070726f76616c20737461747573206660448201526637b91039b2b63360c91b6064820152608401610389565b6001600160a01b03838116600081815260016020908152604080832094871680845294825291829020805460ff191686151590811790915591519182527f17307eab39ab6107e8899845ad3d59bd9653f200f220920489ca2b5937696c31910160405180910390a3505050565b6040805160018082528183019092526060916000919060208083019080368337019050509050828160008151811061167a5761167a612628565b602090810291909101015292915050565b61169986868686868661174c565b806116ad57506116ad868686868686611850565b6115595760405162461bcd60e51b815260206004820152604260248201527f4b495033373a207472616e7366657220746f206e6f6e20494b4950333752656360448201527f65697665722f4945524331313535526563656976657220696d706c656d656e7460648201526132b960f11b608482015260a401610389565b611738868686868686611928565b806116ad57506116ad868686868686611a00565b60006001600160a01b0385163b156118425760405163e78b332560e01b81526001600160a01b0386169063e78b332590611792908a908a908990899089906004016122ac565b602060405180830381600087803b1580156117ac57600080fd5b505af19250505080156117dc575060408051601f3d908101601f191682019092526117d991810190611f4e565b60015b611828573d80801561180a576040519150601f19603f3d011682016040523d82523d6000602084013e61180f565b606091505b508051611820576000915050611846565b805181602001fd5b6001600160e01b03191663e78b332560e01b149050611846565b5060015b9695505050505050565b60006001600160a01b0385163b156118425760405163f23a6e6160e01b81526001600160a01b0386169063f23a6e6190611896908a908a908990899089906004016122ac565b602060405180830381600087803b1580156118b057600080fd5b505af19250505080156118e0575060408051601f3d908101601f191682019092526118dd91810190611f4e565b60015b61190e573d80801561180a576040519150601f19603f3d011682016040523d82523d6000602084013e61180f565b6001600160e01b03191663f23a6e6160e01b149050611846565b60006001600160a01b0385163b1561184257604051634da4f19960e11b81526001600160a01b03861690639b49e3329061196e908a908a9089908990899060040161224e565b602060405180830381600087803b15801561198857600080fd5b505af19250505080156119b8575060408051601f3d908101601f191682019092526119b591810190611f4e565b60015b6119e6573d80801561180a576040519150601f19603f3d011682016040523d82523d6000602084013e61180f565b6001600160e01b031916634da4f19960e11b149050611846565b60006001600160a01b0385163b156118425760405163bc197c8160e01b81526001600160a01b0386169063bc197c8190611a46908a908a9089908990899060040161224e565b602060405180830381600087803b158015611a6057600080fd5b505af1925050508015611a90575060408051601f3d908101601f19168201909252611a8d91810190611f4e565b60015b611abe573d80801561180a576040519150601f19603f3d011682016040523d82523d6000602084013e61180f565b6001600160e01b03191663bc197c8160e01b149050611846565b828054611ae4906125bc565b90600052602060002090601f016020900481019282611b065760008555611b4c565b82601f10611b1f57805160ff1916838001178555611b4c565b82800160010185558215611b4c579182015b82811115611b4c578251825591602001919060010190611b31565b50611b58929150611b5c565b5090565b5b80821115611b585760008155600101611b5d565b80356001600160a01b0381168114611b8857600080fd5b919050565b600082601f830112611b9e57600080fd5b81356020611bb3611bae83612550565b61251f565b80838252828201915082860187848660051b8901011115611bd357600080fd5b60005b85811015611bf257813584529284019290840190600101611bd6565b5090979650505050505050565b80358015158114611b8857600080fd5b600082601f830112611c2057600080fd5b813567ffffffffffffffff811115611c3a57611c3a61263e565b611c4d601f8201601f191660200161251f565b818152846020838601011115611c6257600080fd5b816020850160208301376000918101602001919091529392505050565b600060208284031215611c9157600080fd5b611c9a82611b71565b9392505050565b60008060408385031215611cb457600080fd5b611cbd83611b71565b9150611ccb60208401611b71565b90509250929050565b600080600080600060a08688031215611cec57600080fd5b611cf586611b71565b9450611d0360208701611b71565b9350604086013567ffffffffffffffff80821115611d2057600080fd5b611d2c89838a01611b8d565b94506060880135915080821115611d4257600080fd5b611d4e89838a01611b8d565b93506080880135915080821115611d6457600080fd5b50611d7188828901611c0f565b9150509295509295909350565b600080600080600060a08688031215611d9657600080fd5b611d9f86611b71565b9450611dad60208701611b71565b93506040860135925060608601359150608086013567ffffffffffffffff811115611dd757600080fd5b611d7188828901611c0f565b60008060408385031215611df657600080fd5b611dff83611b71565b9150611ccb60208401611bff565b60008060408385031215611e2057600080fd5b611e2983611b71565b946020939093013593505050565b600080600060608486031215611e4c57600080fd5b611e5584611b71565b95602085013595506040909401359392505050565b60008060408385031215611e7d57600080fd5b823567ffffffffffffffff80821115611e9557600080fd5b818501915085601f830112611ea957600080fd5b81356020611eb9611bae83612550565b8083825282820191508286018a848660051b8901011115611ed957600080fd5b600096505b84871015611f0357611eef81611b71565b835260019690960195918301918301611ede565b5096505086013592505080821115611f1a57600080fd5b50611f2785828601611b8d565b9150509250929050565b600060208284031215611f4357600080fd5b8135611c9a81612654565b600060208284031215611f6057600080fd5b8151611c9a81612654565b600080600080600060a08688031215611f8357600080fd5b853567ffffffffffffffff80821115611f9b57600080fd5b611fa789838a01611c0f565b9650602088013595506040880135915080821115611fc457600080fd5b50611fd188828901611c0f565b93505060608601359150611fe760808701611bff565b90509295509295909350565b600080600080600060a0868803121561200b57600080fd5b853567ffffffffffffffff8082111561202357600080fd5b61202f89838a01611c0f565b96506020880135955060408801359450606088013591508082111561205357600080fd5b5061206088828901611c0f565b925050611fe760808701611b71565b600080600080600080600080610100898b03121561208c57600080fd5b883567ffffffffffffffff808211156120a457600080fd5b6120b08c838d01611c0f565b995060208b0135985060408b0135975060608b0135965060808b0135955060a08b0135945060c08b01359150808211156120e957600080fd5b506120f68b828c01611c0f565b92505061210560e08a01611bff565b90509295985092959890939650565b60006020828403121561212657600080fd5b5035919050565b6000806040838503121561214057600080fd5b82359150602083013567ffffffffffffffff81111561215e57600080fd5b611f2785828601611c0f565b6000806000806080858703121561218057600080fd5b8435935060208501359250604085013567ffffffffffffffff8111156121a557600080fd5b6121b187828801611c0f565b9250506121c060608601611b71565b905092959194509250565b600081518084526020808501945080840160005b838110156121fb578151875295820195908201906001016121df565b509495945050505050565b6000815180845261221e81602086016020860161258c565b601f01601f19169290920160200192915050565b6000825161224481846020870161258c565b9190910192915050565b6001600160a01b0386811682528516602082015260a06040820181905260009061227a908301866121cb565b828103606084015261228c81866121cb565b905082810360808401526122a08185612206565b98975050505050505050565b6001600160a01b03868116825285166020820152604081018490526060810183905260a0608082018190526000906122e690830184612206565b979650505050505050565b602081526000611c9a60208301846121cb565b60408152600061231760408301856121cb565b828103602084015261232981856121cb565b95945050505050565b602081526000611c9a6020830184612206565b6060815260006123586060830186612206565b6020830194909452506001600160a01b0391909116604090910152919050565b60208082526010908201526f436865636b204d61726b65742049642160801b604082015260600190565b6020808252600b908201526a4f6e6c79204f776e65722160a81b604082015260600190565b60208082526028908201527f4b495033373a20696e73756666696369656e742062616c616e636520666f72206040820152673a3930b739b332b960c11b606082015260800190565b60208082526010908201526f436865636b20546f6b656e205572692160801b604082015260600190565b6020808252600f908201526e436865636b20546f6b656e2049642160881b604082015260600190565b60208082526023908201527f4b495033373a207472616e7366657220746f20746865207a65726f206164647260408201526265737360e81b606082015260800190565b8481526080602082015260006124be6080830186612206565b6040830194909452506001600160a01b039190911660609091015292915050565b85815260a0602082015260006124f860a0830187612206565b6040830195909552506001600160a01b039283166060820152911660809091015292915050565b604051601f8201601f1916810167ffffffffffffffff811182821017156125485761254861263e565b604052919050565b600067ffffffffffffffff82111561256a5761256a61263e565b5060051b60200190565b6000821982111561258757612587612612565b500190565b60005b838110156125a757818101518382015260200161258f565b838111156125b6576000848401525b50505050565b600181811c908216806125d057607f821691505b602082108114156125f157634e487b7160e01b600052602260045260246000fd5b50919050565b600060001982141561260b5761260b612612565b5060010190565b634e487b7160e01b600052601160045260246000fd5b634e487b7160e01b600052603260045260246000fd5b634e487b7160e01b600052604160045260246000fd5b6001600160e01b031981168114610d2957600080fdfea2646970667358221220f62913fd9f54eab8237aea962d98fa494d16f79a2d1d40fb8f44cd9b398cc3f164736f6c6343000807003368747470733a2f2f64656e61697373616e63652e6d7970696e6174612e636c6f75642f697066732f7b69647d",
  "linkReferences": {},
  "deployedLinkReferences": {}
}